{
	"data": {
		"bytecode": {
			"linkReferences": {},
			"object": "60c06040526001600a55348015610014575f80fd5b50604051614f5a380380614f5a83398181016040528101906100369190610491565b336040518060400160405280600881526020017f486173684a696e670000000000000000000000000000000000000000000000008152506040518060400160405280600281526020017f484a000000000000000000000000000000000000000000000000000000000000815250815f90816100b191906106f6565b5080600190816100c191906106f6565b5050505f73ffffffffffffffffffffffffffffffffffffffff168173ffffffffffffffffffffffffffffffffffffffff1603610134575f6040517f1e4fbdf700000000000000000000000000000000000000000000000000000000815260040161012b91906107d4565b60405180910390fd5b610143816101c660201b60201c565b508073ffffffffffffffffffffffffffffffffffffffff1660808173ffffffffffffffffffffffffffffffffffffffff16815250503373ffffffffffffffffffffffffffffffffffffffff1660a08173ffffffffffffffffffffffffffffffffffffffff16815250506101c060a0516102ee61028960201b60201c565b5061086a565b5f60085f9054906101000a900473ffffffffffffffffffffffffffffffffffffffff1690508160085f6101000a81548173ffffffffffffffffffffffffffffffffffffffff021916908373ffffffffffffffffffffffffffffffffffffffff1602179055508173ffffffffffffffffffffffffffffffffffffffff168173ffffffffffffffffffffffffffffffffffffffff167f8be0079c531659141344cd1fd0a4f28419497f9722a3daafe3b4186f6b6457e060405160405180910390a35050565b5f61029861042a60201b60201c565b6bffffffffffffffffffffffff16905080826bffffffffffffffffffffffff1611156102fd5781816040517f6f483d090000000000000000000000000000000000000000000000000000000081526004016102f4929190610843565b60405180910390fd5b5f73ffffffffffffffffffffffffffffffffffffffff168373ffffffffffffffffffffffffffffffffffffffff160361036d575f6040517fb6d9900a00000000000000000000000000000000000000000000000000000000815260040161036491906107d4565b60405180910390fd5b60405180604001604052808473ffffffffffffffffffffffffffffffffffffffff168152602001836bffffffffffffffffffffffff1681525060065f820151815f015f6101000a81548173ffffffffffffffffffffffffffffffffffffffff021916908373ffffffffffffffffffffffffffffffffffffffff1602179055506020820151815f0160146101000a8154816bffffffffffffffffffffffff02191690836bffffffffffffffffffffffff160217905550905050505050565b5f612710905090565b5f80fd5b5f73ffffffffffffffffffffffffffffffffffffffff82169050919050565b5f61046082610437565b9050919050565b61047081610456565b811461047a575f80fd5b50565b5f8151905061048b81610467565b92915050565b5f602082840312156104a6576104a5610433565b5b5f6104b38482850161047d565b91505092915050565b5f81519050919050565b7f4e487b71000000000000000000000000000000000000000000000000000000005f52604160045260245ffd5b7f4e487b71000000000000000000000000000000000000000000000000000000005f52602260045260245ffd5b5f600282049050600182168061053757607f821691505b60208210810361054a576105496104f3565b5b50919050565b5f819050815f5260205f209050919050565b5f6020601f8301049050919050565b5f82821b905092915050565b5f600883026105ac7fffffffffffffffffffffffffffffffffffffffffffffffffffffffffffffffff82610571565b6105b68683610571565b95508019841693508086168417925050509392505050565b5f819050919050565b5f819050919050565b5f6105fa6105f56105f0846105ce565b6105d7565b6105ce565b9050919050565b5f819050919050565b610613836105e0565b61062761061f82610601565b84845461057d565b825550505050565b5f90565b61063b61062f565b61064681848461060a565b505050565b5b818110156106695761065e5f82610633565b60018101905061064c565b5050565b601f8211156106ae5761067f81610550565b61068884610562565b81016020851015610697578190505b6106ab6106a385610562565b83018261064b565b50505b505050565b5f82821c905092915050565b5f6106ce5f19846008026106b3565b1980831691505092915050565b5f6106e683836106bf565b9150826002028217905092915050565b6106ff826104bc565b67ffffffffffffffff811115610718576107176104c6565b5b6107228254610520565b61072d82828561066d565b5f60209050601f83116001811461075e575f841561074c578287015190505b61075685826106db565b8655506107bd565b601f19841661076c86610550565b5f5b828110156107935784890151825560018201915060208501945060208101905061076e565b868310156107b057848901516107ac601f8916826106bf565b8355505b6001600288020188555050505b505050505050565b6107ce81610456565b82525050565b5f6020820190506107e75f8301846107c5565b92915050565b5f6bffffffffffffffffffffffff82169050919050565b5f61081e610819610814846107ed565b6105d7565b6105ce565b9050919050565b61082e81610804565b82525050565b61083d816105ce565b82525050565b5f6040820190506108565f830185610825565b6108636020830184610834565b9392505050565b60805160a0516146ba6108a05f395f81816109ba01528181610a400152610b2f01525f8181610c550152610e5701526146ba5ff3fe608060405260043610610180575f3560e01c806370a08231116100d057806399ec676511610089578063b88d4fde11610063578063b88d4fde14610529578063c87b56dd14610551578063e985e9c51461058d578063f2fde38b146105c957610180565b806399ec6765146104ad578063a22cb465146104d7578063b85f3fb8146104ff57610180565b806370a08231146103b5578063715018a6146103f15780638ada6b0f146104075780638da5cb5b146104315780638f2fc60b1461045b57806395d89b411461048357610180565b806323b872dd1161013d5780633dca40e6116101175780633dca40e6146102fd57806342842e0e1461032757806361d027b31461034f5780636352211e1461037957610180565b806323b872dd146102825780632a55205a146102aa5780633ccfd60b146102e757610180565b806301ffc9a71461018457806306fdde03146101c0578063081812fc146101ea578063095ea7b3146102265780631249c58b1461024e57806318160ddd14610258575b5f80fd5b34801561018f575f80fd5b506101aa60048036038101906101a59190613029565b6105f1565b6040516101b7919061306e565b60405180910390f35b3480156101cb575f80fd5b506101d4610602565b6040516101e191906130f7565b60405180910390f35b3480156101f5575f80fd5b50610210600480360381019061020b919061314a565b610691565b60405161021d91906131b4565b60405180910390f35b348015610231575f80fd5b5061024c600480360381019061024791906131f7565b6106ac565b005b6102566106c2565b005b348015610263575f80fd5b5061026c610782565b6040516102799190613244565b60405180910390f35b34801561028d575f80fd5b506102a860048036038101906102a3919061325d565b610797565b005b3480156102b5575f80fd5b506102d060048036038101906102cb91906132ad565b610896565b6040516102de9291906132eb565b60405180910390f35b3480156102f2575f80fd5b506102fb6109b8565b005b348015610308575f80fd5b50610311610b08565b60405161031e9190613338565b60405180910390f35b348015610332575f80fd5b5061034d6004803603810190610348919061325d565b610b0e565b005b34801561035a575f80fd5b50610363610b2d565b6040516103709190613371565b60405180910390f35b348015610384575f80fd5b5061039f600480360381019061039a919061314a565b610b51565b6040516103ac91906131b4565b60405180910390f35b3480156103c0575f80fd5b506103db60048036038101906103d6919061338a565b610b62565b6040516103e89190613244565b60405180910390f35b3480156103fc575f80fd5b50610405610c18565b005b348015610412575f80fd5b5061041b610c53565b6040516104289190613410565b60405180910390f35b34801561043c575f80fd5b50610445610c77565b60405161045291906131b4565b60405180910390f35b348015610466575f80fd5b50610481600480360381019061047c9190613453565b610c9f565b005b34801561048e575f80fd5b50610497610d16565b6040516104a491906130f7565b60405180910390f35b3480156104b8575f80fd5b506104c1610da6565b6040516104ce9190613244565b60405180910390f35b3480156104e2575f80fd5b506104fd60048036038101906104f891906134bb565b610dac565b005b34801561050a575f80fd5b50610513610dc2565b6040516105209190613244565b60405180910390f35b348015610534575f80fd5b5061054f600480360381019061054a9190613625565b610dcd565b005b34801561055c575f80fd5b506105776004803603810190610572919061314a565b610df2565b60405161058491906130f7565b60405180910390f35b348015610598575f80fd5b506105b360048036038101906105ae91906136a5565b611035565b6040516105c0919061306e565b60405180910390f35b3480156105d4575f80fd5b506105ef60048036038101906105ea919061338a565b6110c3565b005b5f6105fb82611147565b9050919050565b60605f805461061090613710565b80601f016020809104026020016040519081016040528092919081815260200182805461063c90613710565b80156106875780601f1061065e57610100808354040283529160200191610687565b820191905f5260205f20905b81548152906001019060200180831161066a57829003601f168201915b5050505050905090565b5f61069b826111c0565b506106a582611246565b9050919050565b6106be82826106b961127f565b611286565b5050565b5f600a549050612000811115610704576040517f52df9fe500000000000000000000000000000000000000000000000000000000815260040160405180910390fd5b66071afd498d00003414610744576040517f39c5f2df00000000000000000000000000000000000000000000000000000000815260040160405180910390fd5b600181610751919061376d565b600a8190555061076081611298565b60095f8381526020019081526020015f208190555061077f33826112dc565b50565b5f6001600a5461079291906137a0565b905090565b5f73ffffffffffffffffffffffffffffffffffffffff168273ffffffffffffffffffffffffffffffffffffffff1603610807575f6040517f64a0ae920000000000000000000000000000000000000000000000000000000081526004016107fe91906131b4565b60405180910390fd5b5f61081a838361081561127f565b6112f9565b90508373ffffffffffffffffffffffffffffffffffffffff168173ffffffffffffffffffffffffffffffffffffffff1614610890578382826040517f64283d7b000000000000000000000000000000000000000000000000000000008152600401610887939291906137d3565b60405180910390fd5b50505050565b5f805f60075f8681526020019081526020015f2090505f815f015f9054906101000a900473ffffffffffffffffffffffffffffffffffffffff1690505f825f0160149054906101000a90046bffffffffffffffffffffffff1690505f73ffffffffffffffffffffffffffffffffffffffff168273ffffffffffffffffffffffffffffffffffffffff160361096a5760065f015f9054906101000a900473ffffffffffffffffffffffffffffffffffffffff16915060065f0160149054906101000a90046bffffffffffffffffffffffff1690505b5f610973611504565b6bffffffffffffffffffffffff16826bffffffffffffffffffffffff168861099b9190613808565b6109a59190613876565b9050828195509550505050509250929050565b7f000000000000000000000000000000000000000000000000000000000000000073ffffffffffffffffffffffffffffffffffffffff163373ffffffffffffffffffffffffffffffffffffffff1614610a3d576040517fb90cdbb100000000000000000000000000000000000000000000000000000000815260040160405180910390fd5b5f7f000000000000000000000000000000000000000000000000000000000000000073ffffffffffffffffffffffffffffffffffffffff1647604051610a82906138d3565b5f6040518083038185875af1925050503d805f8114610abc576040519150601f19603f3d011682016040523d82523d5f602084013e610ac1565b606091505b5050905080610b05576040517f08c379a0000000000000000000000000000000000000000000000000000000008152600401610afc90613931565b60405180910390fd5b50565b6103e881565b610b2883838360405180602001604052805f815250610dcd565b505050565b7f000000000000000000000000000000000000000000000000000000000000000081565b5f610b5b826111c0565b9050919050565b5f8073ffffffffffffffffffffffffffffffffffffffff168273ffffffffffffffffffffffffffffffffffffffff1603610bd3575f6040517f89c62b64000000000000000000000000000000000000000000000000000000008152600401610bca91906131b4565b60405180910390fd5b60035f8373ffffffffffffffffffffffffffffffffffffffff1673ffffffffffffffffffffffffffffffffffffffff1681526020019081526020015f20549050919050565b6040517f08c379a0000000000000000000000000000000000000000000000000000000008152600401610c4a90613999565b60405180910390fd5b7f000000000000000000000000000000000000000000000000000000000000000081565b5f60085f9054906101000a900473ffffffffffffffffffffffffffffffffffffffff16905090565b610ca761150d565b6103e86bffffffffffffffffffffffff16816bffffffffffffffffffffffff161115610d08576040517f08c379a0000000000000000000000000000000000000000000000000000000008152600401610cff90613a01565b60405180910390fd5b610d128282611594565b5050565b606060018054610d2590613710565b80601f0160208091040260200160405190810160405280929190818152602001828054610d5190613710565b8015610d9c5780601f10610d7357610100808354040283529160200191610d9c565b820191905f5260205f20905b815481529060010190602001808311610d7f57829003601f168201915b5050505050905090565b61200081565b610dbe610db761127f565b838361172f565b5050565b66071afd498d000081565b610dd8848484610797565b610dec610de361127f565b85858585611898565b50505050565b6060610dfd82611a44565b610e3c576040517f08c379a0000000000000000000000000000000000000000000000000000000008152600401610e3390613a69565b60405180910390fd5b5f60095f8481526020019081526020015f205490505f610ef57f000000000000000000000000000000000000000000000000000000000000000073ffffffffffffffffffffffffffffffffffffffff1663042b154a846040518263ffffffff1660e01b8152600401610eae9190613a9f565b5f60405180830381865afa158015610ec8573d5f803e3d5ffd5b505050506040513d5f823e3d601f19601f82011682018060405250810190610ef09190613b56565b611a9d565b90505f610f0183611aca565b90505f610f0d84611b21565b90505f82610f50576040518060400160405280600581526020017f66616c7365000000000000000000000000000000000000000000000000000000815250610f87565b6040518060400160405280600481526020017f74727565000000000000000000000000000000000000000000000000000000008152505b610f938360ff16611cae565b610fa0875f1c6020611d78565b604051602001610fb293929190613d29565b60405160208183030381529060405290505f611006610fd089611cae565b610fdd885f1c6020611d78565b8785604051602001610ff29493929190614129565b604051602081830303815290604052611a9d565b9050806040516020016110199190614205565b6040516020818303038152906040529650505050505050919050565b5f60055f8473ffffffffffffffffffffffffffffffffffffffff1673ffffffffffffffffffffffffffffffffffffffff1681526020019081526020015f205f8373ffffffffffffffffffffffffffffffffffffffff1673ffffffffffffffffffffffffffffffffffffffff1681526020019081526020015f205f9054906101000a900460ff16905092915050565b6110cb61150d565b5f73ffffffffffffffffffffffffffffffffffffffff168173ffffffffffffffffffffffffffffffffffffffff160361113b575f6040517f1e4fbdf700000000000000000000000000000000000000000000000000000000815260040161113291906131b4565b60405180910390fd5b61114481611fb6565b50565b5f7f2a55205a000000000000000000000000000000000000000000000000000000007bffffffffffffffffffffffffffffffffffffffffffffffffffffffff1916827bffffffffffffffffffffffffffffffffffffffffffffffffffffffff191614806111b957506111b882612079565b5b9050919050565b5f806111cb8361215a565b90505f73ffffffffffffffffffffffffffffffffffffffff168173ffffffffffffffffffffffffffffffffffffffff160361123d57826040517f7e2732890000000000000000000000000000000000000000000000000000000081526004016112349190613244565b60405180910390fd5b80915050919050565b5f60045f8381526020019081526020015f205f9054906101000a900473ffffffffffffffffffffffffffffffffffffffff169050919050565b5f33905090565b6112938383836001612193565b505050565b5f6001436112a691906137a0565b40424484336040516020016112bf9594939291906142af565b604051602081830303815290604052805190602001209050919050565b6112f5828260405180602001604052805f815250612352565b5050565b5f806113048461215a565b90505f73ffffffffffffffffffffffffffffffffffffffff168373ffffffffffffffffffffffffffffffffffffffff161461134557611344818486612375565b5b5f73ffffffffffffffffffffffffffffffffffffffff168173ffffffffffffffffffffffffffffffffffffffff16146113d0576113845f855f80612193565b600160035f8373ffffffffffffffffffffffffffffffffffffffff1673ffffffffffffffffffffffffffffffffffffffff1681526020019081526020015f205f82825403925050819055505b5f73ffffffffffffffffffffffffffffffffffffffff168573ffffffffffffffffffffffffffffffffffffffff161461144f57600160035f8773ffffffffffffffffffffffffffffffffffffffff1673ffffffffffffffffffffffffffffffffffffffff1681526020019081526020015f205f82825401925050819055505b8460025f8681526020019081526020015f205f6101000a81548173ffffffffffffffffffffffffffffffffffffffff021916908373ffffffffffffffffffffffffffffffffffffffff160217905550838573ffffffffffffffffffffffffffffffffffffffff168273ffffffffffffffffffffffffffffffffffffffff167fddf252ad1be2c89b69c2b068fc378daa952ba7f163c4a11628f55a4df523b3ef60405160405180910390a4809150509392505050565b5f612710905090565b61151561127f565b73ffffffffffffffffffffffffffffffffffffffff16611533610c77565b73ffffffffffffffffffffffffffffffffffffffff16146115925761155661127f565b6040517f118cdaa700000000000000000000000000000000000000000000000000000000815260040161158991906131b4565b60405180910390fd5b565b5f61159d611504565b6bffffffffffffffffffffffff16905080826bffffffffffffffffffffffff1611156116025781816040517f6f483d090000000000000000000000000000000000000000000000000000000081526004016115f992919061433d565b60405180910390fd5b5f73ffffffffffffffffffffffffffffffffffffffff168373ffffffffffffffffffffffffffffffffffffffff1603611672575f6040517fb6d9900a00000000000000000000000000000000000000000000000000000000815260040161166991906131b4565b60405180910390fd5b60405180604001604052808473ffffffffffffffffffffffffffffffffffffffff168152602001836bffffffffffffffffffffffff1681525060065f820151815f015f6101000a81548173ffffffffffffffffffffffffffffffffffffffff021916908373ffffffffffffffffffffffffffffffffffffffff1602179055506020820151815f0160146101000a8154816bffffffffffffffffffffffff02191690836bffffffffffffffffffffffff160217905550905050505050565b5f73ffffffffffffffffffffffffffffffffffffffff168273ffffffffffffffffffffffffffffffffffffffff160361179f57816040517f5b08ba1800000000000000000000000000000000000000000000000000000000815260040161179691906131b4565b60405180910390fd5b8060055f8573ffffffffffffffffffffffffffffffffffffffff1673ffffffffffffffffffffffffffffffffffffffff1681526020019081526020015f205f8473ffffffffffffffffffffffffffffffffffffffff1673ffffffffffffffffffffffffffffffffffffffff1681526020019081526020015f205f6101000a81548160ff0219169083151502179055508173ffffffffffffffffffffffffffffffffffffffff168373ffffffffffffffffffffffffffffffffffffffff167f17307eab39ab6107e8899845ad3d59bd9653f200f220920489ca2b5937696c318360405161188b919061306e565b60405180910390a3505050565b5f8373ffffffffffffffffffffffffffffffffffffffff163b1115611a3d578273ffffffffffffffffffffffffffffffffffffffff1663150b7a02868685856040518563ffffffff1660e01b81526004016118f694939291906143b6565b6020604051808303815f875af192505050801561193157506040513d601f19601f8201168201806040525081019061192e9190614414565b60015b6119b2573d805f811461195f576040519150601f19603f3d011682016040523d82523d5f602084013e611964565b606091505b505f8151036119aa57836040517f64a0ae920000000000000000000000000000000000000000000000000000000081526004016119a191906131b4565b60405180910390fd5b805181602001fd5b63150b7a0260e01b7bffffffffffffffffffffffffffffffffffffffffffffffffffffffff1916817bffffffffffffffffffffffffffffffffffffffffffffffffffffffff191614611a3b57836040517f64a0ae92000000000000000000000000000000000000000000000000000000008152600401611a3291906131b4565b60405180910390fd5b505b5050505050565b5f808214158015611a565750600a5482105b8015611a9657505f73ffffffffffffffffffffffffffffffffffffffff16611a7d8361215a565b73ffffffffffffffffffffffffffffffffffffffff1614155b9050919050565b6060611ac382604051806060016040528060408152602001614645604091396001612438565b9050919050565b5f805f5b6020811015611b1457611af9848260208110611aed57611aec61443f565b5b1a60f81b60f81c6125c7565b60ff1682611b07919061376d565b9150806001019050611ace565b5060808114915050919050565b5f80611b2c836125f8565b9050611b36612eff565b5f805f90505b60408160ff161015611ca2575f845f60048110611b5c57611b5b61443f565b5b60200201518260ff1660408110611b7657611b7561443f565b5b602002015160ff16141580611bb95750825f60048110611b9957611b9861443f565b5b60200201518160ff1660408110611bb357611bb261443f565b5b60200201515b611c9757611bc5612eff565b611bd18585838561274e565b15611c95578280611be190614478565b9350505f5b60048160ff161015611c93575f5b60408160ff161015611c8757828260ff1660048110611c1657611c1561443f565b5b60200201518160ff1660408110611c3057611c2f61443f565b5b602002015115611c7c576001868360ff1660048110611c5257611c5161443f565b5b60200201518260ff1660408110611c6c57611c6b61443f565b5b6020020190151590811515815250505b806001019050611bf4565b50806001019050611be6565b505b505b806001019050611b3c565b50809350505050919050565b60605f6001611cbc84612a39565b0190505f8167ffffffffffffffff811115611cda57611cd9613501565b5b6040519080825280601f01601f191660200182016040528015611d0c5781602001600182028036833780820191505090505b5090505f82602001820190505b600115611d6d578080600190039150507f3031323334353637383961626364656600000000000000000000000000000000600a86061a8153600a8581611d6257611d61613849565b5b0494505f8503611d19575b819350505050919050565b60605f8390505f6002846002611d8e9190613808565b611d98919061376d565b67ffffffffffffffff811115611db157611db0613501565b5b6040519080825280601f01601f191660200182016040528015611de35781602001600182028036833780820191505090505b5090507f3000000000000000000000000000000000000000000000000000000000000000815f81518110611e1a57611e1961443f565b5b60200101907effffffffffffffffffffffffffffffffffffffffffffffffffffffffffffff191690815f1a9053507f780000000000000000000000000000000000000000000000000000000000000081600181518110611e7d57611e7c61443f565b5b60200101907effffffffffffffffffffffffffffffffffffffffffffffffffffffffffffff191690815f1a9053505f6001856002611ebb9190613808565b611ec5919061376d565b90505b6001811115611f64577f3031323334353637383961626364656600000000000000000000000000000000600f841660108110611f0757611f0661443f565b5b1a60f81b828281518110611f1e57611f1d61443f565b5b60200101907effffffffffffffffffffffffffffffffffffffffffffffffffffffffffffff191690815f1a905350600483901c925080611f5d906144a0565b9050611ec8565b505f8214611fab5784846040517fe22e27eb000000000000000000000000000000000000000000000000000000008152600401611fa29291906144c7565b60405180910390fd5b809250505092915050565b5f60085f9054906101000a900473ffffffffffffffffffffffffffffffffffffffff1690508160085f6101000a81548173ffffffffffffffffffffffffffffffffffffffff021916908373ffffffffffffffffffffffffffffffffffffffff1602179055508173ffffffffffffffffffffffffffffffffffffffff168173ffffffffffffffffffffffffffffffffffffffff167f8be0079c531659141344cd1fd0a4f28419497f9722a3daafe3b4186f6b6457e060405160405180910390a35050565b5f7f80ac58cd000000000000000000000000000000000000000000000000000000007bffffffffffffffffffffffffffffffffffffffffffffffffffffffff1916827bffffffffffffffffffffffffffffffffffffffffffffffffffffffff1916148061214357507f5b5e139f000000000000000000000000000000000000000000000000000000007bffffffffffffffffffffffffffffffffffffffffffffffffffffffff1916827bffffffffffffffffffffffffffffffffffffffffffffffffffffffff1916145b80612153575061215282612b8a565b5b9050919050565b5f60025f8381526020019081526020015f205f9054906101000a900473ffffffffffffffffffffffffffffffffffffffff169050919050565b80806121cb57505f73ffffffffffffffffffffffffffffffffffffffff168273ffffffffffffffffffffffffffffffffffffffff1614155b156122fd575f6121da846111c0565b90505f73ffffffffffffffffffffffffffffffffffffffff168373ffffffffffffffffffffffffffffffffffffffff161415801561224457508273ffffffffffffffffffffffffffffffffffffffff168173ffffffffffffffffffffffffffffffffffffffff1614155b801561225757506122558184611035565b155b1561229957826040517fa9fbf51f00000000000000000000000000000000000000000000000000000000815260040161229091906131b4565b60405180910390fd5b81156122fb57838573ffffffffffffffffffffffffffffffffffffffff168273ffffffffffffffffffffffffffffffffffffffff167f8c5be1e5ebec7d5bd14f71427d1e84f3dd0314c0f7b2291e5b200ac8c7c3b92560405160405180910390a45b505b8360045f8581526020019081526020015f205f6101000a81548173ffffffffffffffffffffffffffffffffffffffff021916908373ffffffffffffffffffffffffffffffffffffffff16021790555050505050565b61235c8383612bf3565b61237061236761127f565b5f858585611898565b505050565b612380838383612ce6565b612433575f73ffffffffffffffffffffffffffffffffffffffff168373ffffffffffffffffffffffffffffffffffffffff16036123f457806040517f7e2732890000000000000000000000000000000000000000000000000000000081526004016123eb9190613244565b60405180910390fd5b81816040517f177e802f00000000000000000000000000000000000000000000000000000000815260040161242a9291906132eb565b60405180910390fd5b505050565b60605f8451036124585760405180602001604052805f81525090506125c0565b5f826124895760036002865160046124709190613808565b61247a919061376d565b6124849190613876565b6124b0565b600360028651612499919061376d565b6124a39190613876565b60046124af9190613808565b5b90505f8167ffffffffffffffff8111156124cd576124cc613501565b5b6040519080825280601f01601f1916602001820160405280156124ff5781602001600182028036833780820191505090505b509050600185016020820187885189016020810180515f82525b82841015612574576003840193508351603f8160121c168701518653600186019550603f81600c1c168701518653600186019550603f8160061c168701518653600186019550603f8116870151865360018601955050612519565b80825289156125b45760038c51066001811461259757600281146125aa576125b2565b603d6001870353603d60028703536125b2565b603d60018703535b505b50505050505080925050505b9392505050565b5f5b5f8260ff16146125f35760018216816125e291906144ee565b905060018260ff16901c91506125c9565b919050565b612600612f2c565b5f5b6020811015612748575f60048483602081106126215761262061443f565b5b1a60f81b60f81c60ff16901c90505f600f8584602081106126455761264461443f565b5b1a60f81b60f81c1690505f5b60048160ff16101561273a57600181600361266c9190614522565b60ff168460ff16901c16858260ff166004811061268c5761268b61443f565b5b602002015160028661269e9190613808565b604081106126af576126ae61443f565b5b602002019060ff16908160ff168152505060018160036126cf9190614522565b60ff168360ff16901c16858260ff16600481106126ef576126ee61443f565b5b602002015160016002876127039190613808565b61270d919061376d565b6040811061271e5761271d61443f565b5b602002019060ff16908160ff1681525050806001019050612651565b505050806001019050612602565b50919050565b5f612757612f59565b61275f612f59565b5f805f845f61010081106127765761277561443f565b5b602002019061ffff16908161ffff16815250508560ff16835f61010081106127a1576127a061443f565b5b602002019061ffff16908161ffff1681525050600190505b80821015612a2d575f848361010081106127d6576127d561443f565b5b602002015190505f848461010081106127f2576127f161443f565b5b60200201519050838061280490614556565b945050888261ffff166004811061281e5761281d61443f565b5b60200201518161ffff16604081106128395761283861443f565b5b60200201518061288257505f8b8361ffff166004811061285c5761285b61443f565b5b60200201518261ffff16604081106128775761287661443f565b5b602002015160ff1614155b1561288e5750506127b9565b6001898361ffff16600481106128a7576128a661443f565b5b60200201518261ffff16604081106128c2576128c161443f565b5b60200201901515908115158152505060038261ffff16036128e257600196505b5f60405180608001604052806001856128fb91906145aa565b61ffff1661ffff1681526020015f8561ffff16146129255760018561292091906145df565b612927565b5f5b61ffff1661ffff1681526020018461ffff1661ffff1681526020018461ffff1661ffff1681525090505f60405180608001604052808461ffff1661ffff1681526020018461ffff1661ffff168152602001604060018661298791906145aa565b6129919190614614565b61ffff1661ffff1681526020016040603f866129ad91906145aa565b6129b79190614614565b61ffff1661ffff1681525090505f5b60048160ff161015612a2357612a168e8e8e8c8c888760ff16600481106129f0576129ef61443f565b5b6020020151888860ff1660048110612a0b57612a0a61443f565b5b60200201518d612da6565b95508060010190506129c6565b50505050506127b9565b50505050949350505050565b5f805f90507a184f03e93ff9f4daa797ed6e38ed64bf6a1f0100000000000000008310612a95577a184f03e93ff9f4daa797ed6e38ed64bf6a1f0100000000000000008381612a8b57612a8a613849565b5b0492506040810190505b6d04ee2d6d415b85acef81000000008310612ad2576d04ee2d6d415b85acef81000000008381612ac857612ac7613849565b5b0492506020810190505b662386f26fc100008310612b0157662386f26fc100008381612af757612af6613849565b5b0492506010810190505b6305f5e1008310612b2a576305f5e1008381612b2057612b1f613849565b5b0492506008810190505b6127108310612b4f576127108381612b4557612b44613849565b5b0492506004810190505b60648310612b725760648381612b6857612b67613849565b5b0492506002810190505b600a8310612b81576001810190505b80915050919050565b5f7f01ffc9a7000000000000000000000000000000000000000000000000000000007bffffffffffffffffffffffffffffffffffffffffffffffffffffffff1916827bffffffffffffffffffffffffffffffffffffffffffffffffffffffff1916149050919050565b5f73ffffffffffffffffffffffffffffffffffffffff168273ffffffffffffffffffffffffffffffffffffffff1603612c63575f6040517f64a0ae92000000000000000000000000000000000000000000000000000000008152600401612c5a91906131b4565b60405180910390fd5b5f612c6f83835f6112f9565b90505f73ffffffffffffffffffffffffffffffffffffffff168173ffffffffffffffffffffffffffffffffffffffff1614612ce1575f6040517f73c6ac6e000000000000000000000000000000000000000000000000000000008152600401612cd891906131b4565b60405180910390fd5b505050565b5f8073ffffffffffffffffffffffffffffffffffffffff168373ffffffffffffffffffffffffffffffffffffffff1614158015612d9d57508273ffffffffffffffffffffffffffffffffffffffff168473ffffffffffffffffffffffffffffffffffffffff161480612d5e5750612d5d8484611035565b5b80612d9c57508273ffffffffffffffffffffffffffffffffffffffff16612d8483611246565b73ffffffffffffffffffffffffffffffffffffffff16145b5b90509392505050565b5f60048461ffff16101580612dc0575060408361ffff1610155b15612dcd57819050612ef3565b868461ffff1660048110612de457612de361443f565b5b60200201518361ffff1660408110612dff57612dfe61443f565b5b602002015180612e425750878461ffff1660048110612e2157612e2061443f565b5b60200201518361ffff1660408110612e3c57612e3b61443f565b5b60200201515b80612e8657505f898561ffff1660048110612e6057612e5f61443f565b5b60200201518461ffff1660408110612e7b57612e7a61443f565b5b602002015160ff1614155b15612e9357819050612ef3565b8386836101008110612ea857612ea761443f565b5b602002019061ffff16908161ffff16815250508285836101008110612ed057612ecf61443f565b5b602002019061ffff16908161ffff1681525050600182612ef0919061376d565b90505b98975050505050505050565b60405180608001604052806004905b612f16612f7d565b815260200190600190039081612f0e5790505090565b60405180608001604052806004905b612f43612fa0565b815260200190600190039081612f3b5790505090565b60405180612000016040528061010090602082028036833780820191505090505090565b604051806108000160405280604090602082028036833780820191505090505090565b604051806108000160405280604090602082028036833780820191505090505090565b5f604051905090565b5f80fd5b5f80fd5b5f7fffffffff0000000000000000000000000000000000000000000000000000000082169050919050565b61300881612fd4565b8114613012575f80fd5b50565b5f8135905061302381612fff565b92915050565b5f6020828403121561303e5761303d612fcc565b5b5f61304b84828501613015565b91505092915050565b5f8115159050919050565b61306881613054565b82525050565b5f6020820190506130815f83018461305f565b92915050565b5f81519050919050565b5f82825260208201905092915050565b8281835e5f83830152505050565b5f601f19601f8301169050919050565b5f6130c982613087565b6130d38185613091565b93506130e38185602086016130a1565b6130ec816130af565b840191505092915050565b5f6020820190508181035f83015261310f81846130bf565b905092915050565b5f819050919050565b61312981613117565b8114613133575f80fd5b50565b5f8135905061314481613120565b92915050565b5f6020828403121561315f5761315e612fcc565b5b5f61316c84828501613136565b91505092915050565b5f73ffffffffffffffffffffffffffffffffffffffff82169050919050565b5f61319e82613175565b9050919050565b6131ae81613194565b82525050565b5f6020820190506131c75f8301846131a5565b92915050565b6131d681613194565b81146131e0575f80fd5b50565b5f813590506131f1816131cd565b92915050565b5f806040838503121561320d5761320c612fcc565b5b5f61321a858286016131e3565b925050602061322b85828601613136565b9150509250929050565b61323e81613117565b82525050565b5f6020820190506132575f830184613235565b92915050565b5f805f6060848603121561327457613273612fcc565b5b5f613281868287016131e3565b9350506020613292868287016131e3565b92505060406132a386828701613136565b9150509250925092565b5f80604083850312156132c3576132c2612fcc565b5b5f6132d085828601613136565b92505060206132e185828601613136565b9150509250929050565b5f6040820190506132fe5f8301856131a5565b61330b6020830184613235565b9392505050565b5f6bffffffffffffffffffffffff82169050919050565b61333281613312565b82525050565b5f60208201905061334b5f830184613329565b92915050565b5f61335b82613175565b9050919050565b61336b81613351565b82525050565b5f6020820190506133845f830184613362565b92915050565b5f6020828403121561339f5761339e612fcc565b5b5f6133ac848285016131e3565b91505092915050565b5f819050919050565b5f6133d86133d36133ce84613175565b6133b5565b613175565b9050919050565b5f6133e9826133be565b9050919050565b5f6133fa826133df565b9050919050565b61340a816133f0565b82525050565b5f6020820190506134235f830184613401565b92915050565b61343281613312565b811461343c575f80fd5b50565b5f8135905061344d81613429565b92915050565b5f806040838503121561346957613468612fcc565b5b5f613476858286016131e3565b92505060206134878582860161343f565b9150509250929050565b61349a81613054565b81146134a4575f80fd5b50565b5f813590506134b581613491565b92915050565b5f80604083850312156134d1576134d0612fcc565b5b5f6134de858286016131e3565b92505060206134ef858286016134a7565b9150509250929050565b5f80fd5b5f80fd5b7f4e487b71000000000000000000000000000000000000000000000000000000005f52604160045260245ffd5b613537826130af565b810181811067ffffffffffffffff8211171561355657613555613501565b5b80604052505050565b5f613568612fc3565b9050613574828261352e565b919050565b5f67ffffffffffffffff82111561359357613592613501565b5b61359c826130af565b9050602081019050919050565b828183375f83830152505050565b5f6135c96135c484613579565b61355f565b9050828152602081018484840111156135e5576135e46134fd565b5b6135f08482856135a9565b509392505050565b5f82601f83011261360c5761360b6134f9565b5b813561361c8482602086016135b7565b91505092915050565b5f805f806080858703121561363d5761363c612fcc565b5b5f61364a878288016131e3565b945050602061365b878288016131e3565b935050604061366c87828801613136565b925050606085013567ffffffffffffffff81111561368d5761368c612fd0565b5b613699878288016135f8565b91505092959194509250565b5f80604083850312156136bb576136ba612fcc565b5b5f6136c8858286016131e3565b92505060206136d9858286016131e3565b9150509250929050565b7f4e487b71000000000000000000000000000000000000000000000000000000005f52602260045260245ffd5b5f600282049050600182168061372757607f821691505b60208210810361373a576137396136e3565b5b50919050565b7f4e487b71000000000000000000000000000000000000000000000000000000005f52601160045260245ffd5b5f61377782613117565b915061378283613117565b925082820190508082111561379a57613799613740565b5b92915050565b5f6137aa82613117565b91506137b583613117565b92508282039050818111156137cd576137cc613740565b5b92915050565b5f6060820190506137e65f8301866131a5565b6137f36020830185613235565b61380060408301846131a5565b949350505050565b5f61381282613117565b915061381d83613117565b925082820261382b81613117565b9150828204841483151761384257613841613740565b5b5092915050565b7f4e487b71000000000000000000000000000000000000000000000000000000005f52601260045260245ffd5b5f61388082613117565b915061388b83613117565b92508261389b5761389a613849565b5b828204905092915050565b5f81905092915050565b50565b5f6138be5f836138a6565b91506138c9826138b0565b5f82019050919050565b5f6138dd826138b3565b9150819050919050565b7f5769746864726177206661696c656400000000000000000000000000000000005f82015250565b5f61391b600f83613091565b9150613926826138e7565b602082019050919050565b5f6020820190508181035f8301526139488161390f565b9050919050565b7f72656e6f756e63654f776e6572736869702069732064697361626c65640000005f82015250565b5f613983601d83613091565b915061398e8261394f565b602082019050919050565b5f6020820190508181035f8301526139b081613977565b9050919050565b7f4d617820313025000000000000000000000000000000000000000000000000005f82015250565b5f6139eb600783613091565b91506139f6826139b7565b602082019050919050565b5f6020820190508181035f830152613a18816139df565b9050919050565b7f486173684a696e674e46543a206e6f6e6578697374656e7420746f6b656e00005f82015250565b5f613a53601e83613091565b9150613a5e82613a1f565b602082019050919050565b5f6020820190508181035f830152613a8081613a47565b9050919050565b5f819050919050565b613a9981613a87565b82525050565b5f602082019050613ab25f830184613a90565b92915050565b5f67ffffffffffffffff821115613ad257613ad1613501565b5b613adb826130af565b9050602081019050919050565b5f613afa613af584613ab8565b61355f565b905082815260208101848484011115613b1657613b156134fd565b5b613b218482856130a1565b509392505050565b5f82601f830112613b3d57613b3c6134f9565b5b8151613b4d848260208601613ae8565b91505092915050565b5f60208284031215613b6b57613b6a612fcc565b5b5f82015167ffffffffffffffff811115613b8857613b87612fd0565b5b613b9484828501613b29565b91505092915050565b5f81905092915050565b7f7b202274726169745f74797065223a2242616c616e636564222c202276616c755f8201527f65223a2200000000000000000000000000000000000000000000000000000000602082015250565b5f613c01602483613b9d565b9150613c0c82613ba7565b602482019050919050565b5f613c2182613087565b613c2b8185613b9d565b9350613c3b8185602086016130a1565b80840191505092915050565b7f22207d2c00000000000000000000000000000000000000000000000000000000815250565b7f7b202274726169745f74797065223a225061737361676573222c202276616c755f8201527f65223a2200000000000000000000000000000000000000000000000000000000602082015250565b5f613cc7602483613b9d565b9150613cd282613c6d565b602482019050919050565b7f7b202274726169745f74797065223a2253656564222c202276616c7565223a22815250565b7f22207d0000000000000000000000000000000000000000000000000000000000815250565b5f613d3382613bf5565b9150613d3f8286613c17565b9150613d4a82613c47565b600482019150613d5982613cbb565b9150613d658285613c17565b9150613d7082613c47565b600482019150613d7f82613cdd565b602082019150613d8f8284613c17565b9150613d9a82613d03565b600382019150819050949350505050565b7f7b226e616d65223a22486173684a696e672023000000000000000000000000005f82015250565b5f613ddf601383613b9d565b9150613dea82613dab565b601382019050919050565b7f222c0000000000000000000000000000000000000000000000000000000000005f82015250565b5f613e29600283613b9d565b9150613e3482613df5565b600282019050919050565b7f226465736372697074696f6e223a2246756c6c79206f6e2d636861696e2048615f8201527f73684a696e67206d616e64616c61202d20612064657465726d696e697374696360208201527f2067656e6572617469766520666f726d20646572697665642066726f6d20637260408201527f7970746f6772617068696320656e74726f70792e20536f75726365206861736860608201527f3a20000000000000000000000000000000000000000000000000000000000000608082015250565b5f613f0b608283613b9d565b9150613f1682613e3f565b608282019050919050565b7f2263726561746f72223a2244617461536174747661222c0000000000000000005f82015250565b5f613f55601783613b9d565b9150613f6082613f21565b601782019050919050565b7f2265787465726e616c5f75726c223a2268747470733a2f2f6769746875622e635f8201527f6f6d2f446174615361747476612f686173686a696e67222c0000000000000000602082015250565b5f613fc5603883613b9d565b9150613fd082613f6b565b603882019050919050565b7f226c6963656e7365223a2243432042592d4e4320342e30222c000000000000005f82015250565b5f61400f601983613b9d565b915061401a82613fdb565b601982019050919050565b7f22696d616765223a22646174613a696d6167652f7376672b786d6c3b626173655f8201527f36342c0000000000000000000000000000000000000000000000000000000000602082015250565b5f61407f602383613b9d565b915061408a82614025565b602382019050919050565b7f2261747472696275746573223a5b0000000000000000000000000000000000005f82015250565b5f6140c9600e83613b9d565b91506140d482614095565b600e82019050919050565b7f5d7d0000000000000000000000000000000000000000000000000000000000005f82015250565b5f614113600283613b9d565b915061411e826140df565b600282019050919050565b5f61413382613dd3565b915061413f8287613c17565b915061414a82613e1d565b915061415582613eff565b91506141618286613c17565b915061416c82613e1d565b915061417782613f49565b915061418282613fb9565b915061418d82614003565b915061419882614073565b91506141a48285613c17565b91506141af82613e1d565b91506141ba826140bd565b91506141c68284613c17565b91506141d182614107565b915081905095945050505050565b7f646174613a6170706c69636174696f6e2f6a736f6e3b6261736536342c000000815250565b5f61420f826141df565b601d8201915061421f8284613c17565b915081905092915050565b5f819050919050565b61424461423f82613a87565b61422a565b82525050565b5f819050919050565b61426461425f82613117565b61424a565b82525050565b5f8160601b9050919050565b5f6142808261426a565b9050919050565b5f61429182614276565b9050919050565b6142a96142a482613194565b614287565b82525050565b5f6142ba8288614233565b6020820191506142ca8287614253565b6020820191506142da8286614253565b6020820191506142ea8285614253565b6020820191506142fa8284614298565b6014820191508190509695505050505050565b5f61432761432261431d84613312565b6133b5565b613117565b9050919050565b6143378161430d565b82525050565b5f6040820190506143505f83018561432e565b61435d6020830184613235565b9392505050565b5f81519050919050565b5f82825260208201905092915050565b5f61438882614364565b614392818561436e565b93506143a28185602086016130a1565b6143ab816130af565b840191505092915050565b5f6080820190506143c95f8301876131a5565b6143d660208301866131a5565b6143e36040830185613235565b81810360608301526143f5818461437e565b905095945050505050565b5f8151905061440e81612fff565b92915050565b5f6020828403121561442957614428612fcc565b5b5f61443684828501614400565b91505092915050565b7f4e487b71000000000000000000000000000000000000000000000000000000005f52603260045260245ffd5b5f60ff82169050919050565b5f6144828261446c565b915060ff820361449557614494613740565b5b600182019050919050565b5f6144aa82613117565b91505f82036144bc576144bb613740565b5b600182039050919050565b5f6040820190506144da5f830185613235565b6144e76020830184613235565b9392505050565b5f6144f88261446c565b91506145038361446c565b9250828201905060ff81111561451c5761451b613740565b5b92915050565b5f61452c8261446c565b91506145378361446c565b9250828203905060ff8111156145505761454f613740565b5b92915050565b5f61456082613117565b91507fffffffffffffffffffffffffffffffffffffffffffffffffffffffffffffffff820361459257614591613740565b5b600182019050919050565b5f61ffff82169050919050565b5f6145b48261459d565b91506145bf8361459d565b9250828201905061ffff8111156145d9576145d8613740565b5b92915050565b5f6145e98261459d565b91506145f48361459d565b9250828203905061ffff81111561460e5761460d613740565b5b92915050565b5f61461e8261459d565b91506146298361459d565b92508261463957614638613849565b5b82820690509291505056fe4142434445464748494a4b4c4d4e4f505152535455565758595a6162636465666768696a6b6c6d6e6f707172737475767778797a303132333435363738392b2fa264697066735822122047eef3e23d7835b43c46d8d99cf9f25c862419d40c1ccfd4563e9096c44b87a864736f6c634300081a0033",
			"opcodes": "PUSH1 0xC0 PUSH1 0x40 MSTORE PUSH1 0x1 PUSH1 0xA SSTORE CALLVALUE DUP1 ISZERO PUSH2 0x14 JUMPI PUSH0 DUP1 REVERT JUMPDEST POP PUSH1 0x40 MLOAD PUSH2 0x4F5A CODESIZE SUB DUP1 PUSH2 0x4F5A DUP4 CODECOPY DUP2 DUP2 ADD PUSH1 0x40 MSTORE DUP2 ADD SWAP1 PUSH2 0x36 SWAP2 SWAP1 PUSH2 0x491 JUMP JUMPDEST CALLER PUSH1 0x40 MLOAD DUP1 PUSH1 0x40 ADD PUSH1 0x40 MSTORE DUP1 PUSH1 0x8 DUP2 MSTORE PUSH1 0x20 ADD PUSH32 0x486173684A696E67000000000000000000000000000000000000000000000000 DUP2 MSTORE POP PUSH1 0x40 MLOAD DUP1 PUSH1 0x40 ADD PUSH1 0x40 MSTORE DUP1 PUSH1 0x2 DUP2 MSTORE PUSH1 0x20 ADD PUSH32 0x484A000000000000000000000000000000000000000000000000000000000000 DUP2 MSTORE POP DUP2 PUSH0 SWAP1 DUP2 PUSH2 0xB1 SWAP2 SWAP1 PUSH2 0x6F6 JUMP JUMPDEST POP DUP1 PUSH1 0x1 SWAP1 DUP2 PUSH2 0xC1 SWAP2 SWAP1 PUSH2 0x6F6 JUMP JUMPDEST POP POP POP PUSH0 PUSH20 0xFFFFFFFFFFFFFFFFFFFFFFFFFFFFFFFFFFFFFFFF AND DUP2 PUSH20 0xFFFFFFFFFFFFFFFFFFFFFFFFFFFFFFFFFFFFFFFF AND SUB PUSH2 0x134 JUMPI PUSH0 PUSH1 0x40 MLOAD PUSH32 0x1E4FBDF700000000000000000000000000000000000000000000000000000000 DUP2 MSTORE PUSH1 0x4 ADD PUSH2 0x12B SWAP2 SWAP1 PUSH2 0x7D4 JUMP JUMPDEST PUSH1 0x40 MLOAD DUP1 SWAP2 SUB SWAP1 REVERT JUMPDEST PUSH2 0x143 DUP2 PUSH2 0x1C6 PUSH1 0x20 SHL PUSH1 0x20 SHR JUMP JUMPDEST POP DUP1 PUSH20 0xFFFFFFFFFFFFFFFFFFFFFFFFFFFFFFFFFFFFFFFF AND PUSH1 0x80 DUP2 PUSH20 0xFFFFFFFFFFFFFFFFFFFFFFFFFFFFFFFFFFFFFFFF AND DUP2 MSTORE POP POP CALLER PUSH20 0xFFFFFFFFFFFFFFFFFFFFFFFFFFFFFFFFFFFFFFFF AND PUSH1 0xA0 DUP2 PUSH20 0xFFFFFFFFFFFFFFFFFFFFFFFFFFFFFFFFFFFFFFFF AND DUP2 MSTORE POP POP PUSH2 0x1C0 PUSH1 0xA0 MLOAD PUSH2 0x2EE PUSH2 0x289 PUSH1 0x20 SHL PUSH1 0x20 SHR JUMP JUMPDEST POP PUSH2 0x86A JUMP JUMPDEST PUSH0 PUSH1 0x8 PUSH0 SWAP1 SLOAD SWAP1 PUSH2 0x100 EXP SWAP1 DIV PUSH20 0xFFFFFFFFFFFFFFFFFFFFFFFFFFFFFFFFFFFFFFFF AND SWAP1 POP DUP2 PUSH1 0x8 PUSH0 PUSH2 0x100 EXP DUP2 SLOAD DUP2 PUSH20 0xFFFFFFFFFFFFFFFFFFFFFFFFFFFFFFFFFFFFFFFF MUL NOT AND SWAP1 DUP4 PUSH20 0xFFFFFFFFFFFFFFFFFFFFFFFFFFFFFFFFFFFFFFFF AND MUL OR SWAP1 SSTORE POP DUP2 PUSH20 0xFFFFFFFFFFFFFFFFFFFFFFFFFFFFFFFFFFFFFFFF AND DUP2 PUSH20 0xFFFFFFFFFFFFFFFFFFFFFFFFFFFFFFFFFFFFFFFF AND PUSH32 0x8BE0079C531659141344CD1FD0A4F28419497F9722A3DAAFE3B4186F6B6457E0 PUSH1 0x40 MLOAD PUSH1 0x40 MLOAD DUP1 SWAP2 SUB SWAP1 LOG3 POP POP JUMP JUMPDEST PUSH0 PUSH2 0x298 PUSH2 0x42A PUSH1 0x20 SHL PUSH1 0x20 SHR JUMP JUMPDEST PUSH12 0xFFFFFFFFFFFFFFFFFFFFFFFF AND SWAP1 POP DUP1 DUP3 PUSH12 0xFFFFFFFFFFFFFFFFFFFFFFFF AND GT ISZERO PUSH2 0x2FD JUMPI DUP2 DUP2 PUSH1 0x40 MLOAD PUSH32 0x6F483D0900000000000000000000000000000000000000000000000000000000 DUP2 MSTORE PUSH1 0x4 ADD PUSH2 0x2F4 SWAP3 SWAP2 SWAP1 PUSH2 0x843 JUMP JUMPDEST PUSH1 0x40 MLOAD DUP1 SWAP2 SUB SWAP1 REVERT JUMPDEST PUSH0 PUSH20 0xFFFFFFFFFFFFFFFFFFFFFFFFFFFFFFFFFFFFFFFF AND DUP4 PUSH20 0xFFFFFFFFFFFFFFFFFFFFFFFFFFFFFFFFFFFFFFFF AND SUB PUSH2 0x36D JUMPI PUSH0 PUSH1 0x40 MLOAD PUSH32 0xB6D9900A00000000000000000000000000000000000000000000000000000000 DUP2 MSTORE PUSH1 0x4 ADD PUSH2 0x364 SWAP2 SWAP1 PUSH2 0x7D4 JUMP JUMPDEST PUSH1 0x40 MLOAD DUP1 SWAP2 SUB SWAP1 REVERT JUMPDEST PUSH1 0x40 MLOAD DUP1 PUSH1 0x40 ADD PUSH1 0x40 MSTORE DUP1 DUP5 PUSH20 0xFFFFFFFFFFFFFFFFFFFFFFFFFFFFFFFFFFFFFFFF AND DUP2 MSTORE PUSH1 0x20 ADD DUP4 PUSH12 0xFFFFFFFFFFFFFFFFFFFFFFFF AND DUP2 MSTORE POP PUSH1 0x6 PUSH0 DUP3 ADD MLOAD DUP2 PUSH0 ADD PUSH0 PUSH2 0x100 EXP DUP2 SLOAD DUP2 PUSH20 0xFFFFFFFFFFFFFFFFFFFFFFFFFFFFFFFFFFFFFFFF MUL NOT AND SWAP1 DUP4 PUSH20 0xFFFFFFFFFFFFFFFFFFFFFFFFFFFFFFFFFFFFFFFF AND MUL OR SWAP1 SSTORE POP PUSH1 0x20 DUP3 ADD MLOAD DUP2 PUSH0 ADD PUSH1 0x14 PUSH2 0x100 EXP DUP2 SLOAD DUP2 PUSH12 0xFFFFFFFFFFFFFFFFFFFFFFFF MUL NOT AND SWAP1 DUP4 PUSH12 0xFFFFFFFFFFFFFFFFFFFFFFFF AND MUL OR SWAP1 SSTORE POP SWAP1 POP POP POP POP POP JUMP JUMPDEST PUSH0 PUSH2 0x2710 SWAP1 POP SWAP1 JUMP JUMPDEST PUSH0 DUP1 REVERT JUMPDEST PUSH0 PUSH20 0xFFFFFFFFFFFFFFFFFFFFFFFFFFFFFFFFFFFFFFFF DUP3 AND SWAP1 POP SWAP2 SWAP1 POP JUMP JUMPDEST PUSH0 PUSH2 0x460 DUP3 PUSH2 0x437 JUMP JUMPDEST SWAP1 POP SWAP2 SWAP1 POP JUMP JUMPDEST PUSH2 0x470 DUP2 PUSH2 0x456 JUMP JUMPDEST DUP2 EQ PUSH2 0x47A JUMPI PUSH0 DUP1 REVERT JUMPDEST POP JUMP JUMPDEST PUSH0 DUP2 MLOAD SWAP1 POP PUSH2 0x48B DUP2 PUSH2 0x467 JUMP JUMPDEST SWAP3 SWAP2 POP POP JUMP JUMPDEST PUSH0 PUSH1 0x20 DUP3 DUP5 SUB SLT ISZERO PUSH2 0x4A6 JUMPI PUSH2 0x4A5 PUSH2 0x433 JUMP JUMPDEST JUMPDEST PUSH0 PUSH2 0x4B3 DUP5 DUP3 DUP6 ADD PUSH2 0x47D JUMP JUMPDEST SWAP2 POP POP SWAP3 SWAP2 POP POP JUMP JUMPDEST PUSH0 DUP2 MLOAD SWAP1 POP SWAP2 SWAP1 POP JUMP JUMPDEST PUSH32 0x4E487B7100000000000000000000000000000000000000000000000000000000 PUSH0 MSTORE PUSH1 0x41 PUSH1 0x4 MSTORE PUSH1 0x24 PUSH0 REVERT JUMPDEST PUSH32 0x4E487B7100000000000000000000000000000000000000000000000000000000 PUSH0 MSTORE PUSH1 0x22 PUSH1 0x4 MSTORE PUSH1 0x24 PUSH0 REVERT JUMPDEST PUSH0 PUSH1 0x2 DUP3 DIV SWAP1 POP PUSH1 0x1 DUP3 AND DUP1 PUSH2 0x537 JUMPI PUSH1 0x7F DUP3 AND SWAP2 POP JUMPDEST PUSH1 0x20 DUP3 LT DUP2 SUB PUSH2 0x54A JUMPI PUSH2 0x549 PUSH2 0x4F3 JUMP JUMPDEST JUMPDEST POP SWAP2 SWAP1 POP JUMP JUMPDEST PUSH0 DUP2 SWAP1 POP DUP2 PUSH0 MSTORE PUSH1 0x20 PUSH0 KECCAK256 SWAP1 POP SWAP2 SWAP1 POP JUMP JUMPDEST PUSH0 PUSH1 0x20 PUSH1 0x1F DUP4 ADD DIV SWAP1 POP SWAP2 SWAP1 POP JUMP JUMPDEST PUSH0 DUP3 DUP3 SHL SWAP1 POP SWAP3 SWAP2 POP POP JUMP JUMPDEST PUSH0 PUSH1 0x8 DUP4 MUL PUSH2 0x5AC PUSH32 0xFFFFFFFFFFFFFFFFFFFFFFFFFFFFFFFFFFFFFFFFFFFFFFFFFFFFFFFFFFFFFFFF DUP3 PUSH2 0x571 JUMP JUMPDEST PUSH2 0x5B6 DUP7 DUP4 PUSH2 0x571 JUMP JUMPDEST SWAP6 POP DUP1 NOT DUP5 AND SWAP4 POP DUP1 DUP7 AND DUP5 OR SWAP3 POP POP POP SWAP4 SWAP3 POP POP POP JUMP JUMPDEST PUSH0 DUP2 SWAP1 POP SWAP2 SWAP1 POP JUMP JUMPDEST PUSH0 DUP2 SWAP1 POP SWAP2 SWAP1 POP JUMP JUMPDEST PUSH0 PUSH2 0x5FA PUSH2 0x5F5 PUSH2 0x5F0 DUP5 PUSH2 0x5CE JUMP JUMPDEST PUSH2 0x5D7 JUMP JUMPDEST PUSH2 0x5CE JUMP JUMPDEST SWAP1 POP SWAP2 SWAP1 POP JUMP JUMPDEST PUSH0 DUP2 SWAP1 POP SWAP2 SWAP1 POP JUMP JUMPDEST PUSH2 0x613 DUP4 PUSH2 0x5E0 JUMP JUMPDEST PUSH2 0x627 PUSH2 0x61F DUP3 PUSH2 0x601 JUMP JUMPDEST DUP5 DUP5 SLOAD PUSH2 0x57D JUMP JUMPDEST DUP3 SSTORE POP POP POP POP JUMP JUMPDEST PUSH0 SWAP1 JUMP JUMPDEST PUSH2 0x63B PUSH2 0x62F JUMP JUMPDEST PUSH2 0x646 DUP2 DUP5 DUP5 PUSH2 0x60A JUMP JUMPDEST POP POP POP JUMP JUMPDEST JUMPDEST DUP2 DUP2 LT ISZERO PUSH2 0x669 JUMPI PUSH2 0x65E PUSH0 DUP3 PUSH2 0x633 JUMP JUMPDEST PUSH1 0x1 DUP2 ADD SWAP1 POP PUSH2 0x64C JUMP JUMPDEST POP POP JUMP JUMPDEST PUSH1 0x1F DUP3 GT ISZERO PUSH2 0x6AE JUMPI PUSH2 0x67F DUP2 PUSH2 0x550 JUMP JUMPDEST PUSH2 0x688 DUP5 PUSH2 0x562 JUMP JUMPDEST DUP2 ADD PUSH1 0x20 DUP6 LT ISZERO PUSH2 0x697 JUMPI DUP2 SWAP1 POP JUMPDEST PUSH2 0x6AB PUSH2 0x6A3 DUP6 PUSH2 0x562 JUMP JUMPDEST DUP4 ADD DUP3 PUSH2 0x64B JUMP JUMPDEST POP POP JUMPDEST POP POP POP JUMP JUMPDEST PUSH0 DUP3 DUP3 SHR SWAP1 POP SWAP3 SWAP2 POP POP JUMP JUMPDEST PUSH0 PUSH2 0x6CE PUSH0 NOT DUP5 PUSH1 0x8 MUL PUSH2 0x6B3 JUMP JUMPDEST NOT DUP1 DUP4 AND SWAP2 POP POP SWAP3 SWAP2 POP POP JUMP JUMPDEST PUSH0 PUSH2 0x6E6 DUP4 DUP4 PUSH2 0x6BF JUMP JUMPDEST SWAP2 POP DUP3 PUSH1 0x2 MUL DUP3 OR SWAP1 POP SWAP3 SWAP2 POP POP JUMP JUMPDEST PUSH2 0x6FF DUP3 PUSH2 0x4BC JUMP JUMPDEST PUSH8 0xFFFFFFFFFFFFFFFF DUP2 GT ISZERO PUSH2 0x718 JUMPI PUSH2 0x717 PUSH2 0x4C6 JUMP JUMPDEST JUMPDEST PUSH2 0x722 DUP3 SLOAD PUSH2 0x520 JUMP JUMPDEST PUSH2 0x72D DUP3 DUP3 DUP6 PUSH2 0x66D JUMP JUMPDEST PUSH0 PUSH1 0x20 SWAP1 POP PUSH1 0x1F DUP4 GT PUSH1 0x1 DUP2 EQ PUSH2 0x75E JUMPI PUSH0 DUP5 ISZERO PUSH2 0x74C JUMPI DUP3 DUP8 ADD MLOAD SWAP1 POP JUMPDEST PUSH2 0x756 DUP6 DUP3 PUSH2 0x6DB JUMP JUMPDEST DUP7 SSTORE POP PUSH2 0x7BD JUMP JUMPDEST PUSH1 0x1F NOT DUP5 AND PUSH2 0x76C DUP7 PUSH2 0x550 JUMP JUMPDEST PUSH0 JUMPDEST DUP3 DUP2 LT ISZERO PUSH2 0x793 JUMPI DUP5 DUP10 ADD MLOAD DUP3 SSTORE PUSH1 0x1 DUP3 ADD SWAP2 POP PUSH1 0x20 DUP6 ADD SWAP5 POP PUSH1 0x20 DUP2 ADD SWAP1 POP PUSH2 0x76E JUMP JUMPDEST DUP7 DUP4 LT ISZERO PUSH2 0x7B0 JUMPI DUP5 DUP10 ADD MLOAD PUSH2 0x7AC PUSH1 0x1F DUP10 AND DUP3 PUSH2 0x6BF JUMP JUMPDEST DUP4 SSTORE POP JUMPDEST PUSH1 0x1 PUSH1 0x2 DUP9 MUL ADD DUP9 SSTORE POP POP POP JUMPDEST POP POP POP POP POP POP JUMP JUMPDEST PUSH2 0x7CE DUP2 PUSH2 0x456 JUMP JUMPDEST DUP3 MSTORE POP POP JUMP JUMPDEST PUSH0 PUSH1 0x20 DUP3 ADD SWAP1 POP PUSH2 0x7E7 PUSH0 DUP4 ADD DUP5 PUSH2 0x7C5 JUMP JUMPDEST SWAP3 SWAP2 POP POP JUMP JUMPDEST PUSH0 PUSH12 0xFFFFFFFFFFFFFFFFFFFFFFFF DUP3 AND SWAP1 POP SWAP2 SWAP1 POP JUMP JUMPDEST PUSH0 PUSH2 0x81E PUSH2 0x819 PUSH2 0x814 DUP5 PUSH2 0x7ED JUMP JUMPDEST PUSH2 0x5D7 JUMP JUMPDEST PUSH2 0x5CE JUMP JUMPDEST SWAP1 POP SWAP2 SWAP1 POP JUMP JUMPDEST PUSH2 0x82E DUP2 PUSH2 0x804 JUMP JUMPDEST DUP3 MSTORE POP POP JUMP JUMPDEST PUSH2 0x83D DUP2 PUSH2 0x5CE JUMP JUMPDEST DUP3 MSTORE POP POP JUMP JUMPDEST PUSH0 PUSH1 0x40 DUP3 ADD SWAP1 POP PUSH2 0x856 PUSH0 DUP4 ADD DUP6 PUSH2 0x825 JUMP JUMPDEST PUSH2 0x863 PUSH1 0x20 DUP4 ADD DUP5 PUSH2 0x834 JUMP JUMPDEST SWAP4 SWAP3 POP POP POP JUMP JUMPDEST PUSH1 0x80 MLOAD PUSH1 0xA0 MLOAD PUSH2 0x46BA PUSH2 0x8A0 PUSH0 CODECOPY PUSH0 DUP2 DUP2 PUSH2 0x9BA ADD MSTORE DUP2 DUP2 PUSH2 0xA40 ADD MSTORE PUSH2 0xB2F ADD MSTORE PUSH0 DUP2 DUP2 PUSH2 0xC55 ADD MSTORE PUSH2 0xE57 ADD MSTORE PUSH2 0x46BA PUSH0 RETURN INVALID PUSH1 0x80 PUSH1 0x40 MSTORE PUSH1 0x4 CALLDATASIZE LT PUSH2 0x180 JUMPI PUSH0 CALLDATALOAD PUSH1 0xE0 SHR DUP1 PUSH4 0x70A08231 GT PUSH2 0xD0 JUMPI DUP1 PUSH4 0x99EC6765 GT PUSH2 0x89 JUMPI DUP1 PUSH4 0xB88D4FDE GT PUSH2 0x63 JUMPI DUP1 PUSH4 0xB88D4FDE EQ PUSH2 0x529 JUMPI DUP1 PUSH4 0xC87B56DD EQ PUSH2 0x551 JUMPI DUP1 PUSH4 0xE985E9C5 EQ PUSH2 0x58D JUMPI DUP1 PUSH4 0xF2FDE38B EQ PUSH2 0x5C9 JUMPI PUSH2 0x180 JUMP JUMPDEST DUP1 PUSH4 0x99EC6765 EQ PUSH2 0x4AD JUMPI DUP1 PUSH4 0xA22CB465 EQ PUSH2 0x4D7 JUMPI DUP1 PUSH4 0xB85F3FB8 EQ PUSH2 0x4FF JUMPI PUSH2 0x180 JUMP JUMPDEST DUP1 PUSH4 0x70A08231 EQ PUSH2 0x3B5 JUMPI DUP1 PUSH4 0x715018A6 EQ PUSH2 0x3F1 JUMPI DUP1 PUSH4 0x8ADA6B0F EQ PUSH2 0x407 JUMPI DUP1 PUSH4 0x8DA5CB5B EQ PUSH2 0x431 JUMPI DUP1 PUSH4 0x8F2FC60B EQ PUSH2 0x45B JUMPI DUP1 PUSH4 0x95D89B41 EQ PUSH2 0x483 JUMPI PUSH2 0x180 JUMP JUMPDEST DUP1 PUSH4 0x23B872DD GT PUSH2 0x13D JUMPI DUP1 PUSH4 0x3DCA40E6 GT PUSH2 0x117 JUMPI DUP1 PUSH4 0x3DCA40E6 EQ PUSH2 0x2FD JUMPI DUP1 PUSH4 0x42842E0E EQ PUSH2 0x327 JUMPI DUP1 PUSH4 0x61D027B3 EQ PUSH2 0x34F JUMPI DUP1 PUSH4 0x6352211E EQ PUSH2 0x379 JUMPI PUSH2 0x180 JUMP JUMPDEST DUP1 PUSH4 0x23B872DD EQ PUSH2 0x282 JUMPI DUP1 PUSH4 0x2A55205A EQ PUSH2 0x2AA JUMPI DUP1 PUSH4 0x3CCFD60B EQ PUSH2 0x2E7 JUMPI PUSH2 0x180 JUMP JUMPDEST DUP1 PUSH4 0x1FFC9A7 EQ PUSH2 0x184 JUMPI DUP1 PUSH4 0x6FDDE03 EQ PUSH2 0x1C0 JUMPI DUP1 PUSH4 0x81812FC EQ PUSH2 0x1EA JUMPI DUP1 PUSH4 0x95EA7B3 EQ PUSH2 0x226 JUMPI DUP1 PUSH4 0x1249C58B EQ PUSH2 0x24E JUMPI DUP1 PUSH4 0x18160DDD EQ PUSH2 0x258 JUMPI JUMPDEST PUSH0 DUP1 REVERT JUMPDEST CALLVALUE DUP1 ISZERO PUSH2 0x18F JUMPI PUSH0 DUP1 REVERT JUMPDEST POP PUSH2 0x1AA PUSH1 0x4 DUP1 CALLDATASIZE SUB DUP2 ADD SWAP1 PUSH2 0x1A5 SWAP2 SWAP1 PUSH2 0x3029 JUMP JUMPDEST PUSH2 0x5F1 JUMP JUMPDEST PUSH1 0x40 MLOAD PUSH2 0x1B7 SWAP2 SWAP1 PUSH2 0x306E JUMP JUMPDEST PUSH1 0x40 MLOAD DUP1 SWAP2 SUB SWAP1 RETURN JUMPDEST CALLVALUE DUP1 ISZERO PUSH2 0x1CB JUMPI PUSH0 DUP1 REVERT JUMPDEST POP PUSH2 0x1D4 PUSH2 0x602 JUMP JUMPDEST PUSH1 0x40 MLOAD PUSH2 0x1E1 SWAP2 SWAP1 PUSH2 0x30F7 JUMP JUMPDEST PUSH1 0x40 MLOAD DUP1 SWAP2 SUB SWAP1 RETURN JUMPDEST CALLVALUE DUP1 ISZERO PUSH2 0x1F5 JUMPI PUSH0 DUP1 REVERT JUMPDEST POP PUSH2 0x210 PUSH1 0x4 DUP1 CALLDATASIZE SUB DUP2 ADD SWAP1 PUSH2 0x20B SWAP2 SWAP1 PUSH2 0x314A JUMP JUMPDEST PUSH2 0x691 JUMP JUMPDEST PUSH1 0x40 MLOAD PUSH2 0x21D SWAP2 SWAP1 PUSH2 0x31B4 JUMP JUMPDEST PUSH1 0x40 MLOAD DUP1 SWAP2 SUB SWAP1 RETURN JUMPDEST CALLVALUE DUP1 ISZERO PUSH2 0x231 JUMPI PUSH0 DUP1 REVERT JUMPDEST POP PUSH2 0x24C PUSH1 0x4 DUP1 CALLDATASIZE SUB DUP2 ADD SWAP1 PUSH2 0x247 SWAP2 SWAP1 PUSH2 0x31F7 JUMP JUMPDEST PUSH2 0x6AC JUMP JUMPDEST STOP JUMPDEST PUSH2 0x256 PUSH2 0x6C2 JUMP JUMPDEST STOP JUMPDEST CALLVALUE DUP1 ISZERO PUSH2 0x263 JUMPI PUSH0 DUP1 REVERT JUMPDEST POP PUSH2 0x26C PUSH2 0x782 JUMP JUMPDEST PUSH1 0x40 MLOAD PUSH2 0x279 SWAP2 SWAP1 PUSH2 0x3244 JUMP JUMPDEST PUSH1 0x40 MLOAD DUP1 SWAP2 SUB SWAP1 RETURN JUMPDEST CALLVALUE DUP1 ISZERO PUSH2 0x28D JUMPI PUSH0 DUP1 REVERT JUMPDEST POP PUSH2 0x2A8 PUSH1 0x4 DUP1 CALLDATASIZE SUB DUP2 ADD SWAP1 PUSH2 0x2A3 SWAP2 SWAP1 PUSH2 0x325D JUMP JUMPDEST PUSH2 0x797 JUMP JUMPDEST STOP JUMPDEST CALLVALUE DUP1 ISZERO PUSH2 0x2B5 JUMPI PUSH0 DUP1 REVERT JUMPDEST POP PUSH2 0x2D0 PUSH1 0x4 DUP1 CALLDATASIZE SUB DUP2 ADD SWAP1 PUSH2 0x2CB SWAP2 SWAP1 PUSH2 0x32AD JUMP JUMPDEST PUSH2 0x896 JUMP JUMPDEST PUSH1 0x40 MLOAD PUSH2 0x2DE SWAP3 SWAP2 SWAP1 PUSH2 0x32EB JUMP JUMPDEST PUSH1 0x40 MLOAD DUP1 SWAP2 SUB SWAP1 RETURN JUMPDEST CALLVALUE DUP1 ISZERO PUSH2 0x2F2 JUMPI PUSH0 DUP1 REVERT JUMPDEST POP PUSH2 0x2FB PUSH2 0x9B8 JUMP JUMPDEST STOP JUMPDEST CALLVALUE DUP1 ISZERO PUSH2 0x308 JUMPI PUSH0 DUP1 REVERT JUMPDEST POP PUSH2 0x311 PUSH2 0xB08 JUMP JUMPDEST PUSH1 0x40 MLOAD PUSH2 0x31E SWAP2 SWAP1 PUSH2 0x3338 JUMP JUMPDEST PUSH1 0x40 MLOAD DUP1 SWAP2 SUB SWAP1 RETURN JUMPDEST CALLVALUE DUP1 ISZERO PUSH2 0x332 JUMPI PUSH0 DUP1 REVERT JUMPDEST POP PUSH2 0x34D PUSH1 0x4 DUP1 CALLDATASIZE SUB DUP2 ADD SWAP1 PUSH2 0x348 SWAP2 SWAP1 PUSH2 0x325D JUMP JUMPDEST PUSH2 0xB0E JUMP JUMPDEST STOP JUMPDEST CALLVALUE DUP1 ISZERO PUSH2 0x35A JUMPI PUSH0 DUP1 REVERT JUMPDEST POP PUSH2 0x363 PUSH2 0xB2D JUMP JUMPDEST PUSH1 0x40 MLOAD PUSH2 0x370 SWAP2 SWAP1 PUSH2 0x3371 JUMP JUMPDEST PUSH1 0x40 MLOAD DUP1 SWAP2 SUB SWAP1 RETURN JUMPDEST CALLVALUE DUP1 ISZERO PUSH2 0x384 JUMPI PUSH0 DUP1 REVERT JUMPDEST POP PUSH2 0x39F PUSH1 0x4 DUP1 CALLDATASIZE SUB DUP2 ADD SWAP1 PUSH2 0x39A SWAP2 SWAP1 PUSH2 0x314A JUMP JUMPDEST PUSH2 0xB51 JUMP JUMPDEST PUSH1 0x40 MLOAD PUSH2 0x3AC SWAP2 SWAP1 PUSH2 0x31B4 JUMP JUMPDEST PUSH1 0x40 MLOAD DUP1 SWAP2 SUB SWAP1 RETURN JUMPDEST CALLVALUE DUP1 ISZERO PUSH2 0x3C0 JUMPI PUSH0 DUP1 REVERT JUMPDEST POP PUSH2 0x3DB PUSH1 0x4 DUP1 CALLDATASIZE SUB DUP2 ADD SWAP1 PUSH2 0x3D6 SWAP2 SWAP1 PUSH2 0x338A JUMP JUMPDEST PUSH2 0xB62 JUMP JUMPDEST PUSH1 0x40 MLOAD PUSH2 0x3E8 SWAP2 SWAP1 PUSH2 0x3244 JUMP JUMPDEST PUSH1 0x40 MLOAD DUP1 SWAP2 SUB SWAP1 RETURN JUMPDEST CALLVALUE DUP1 ISZERO PUSH2 0x3FC JUMPI PUSH0 DUP1 REVERT JUMPDEST POP PUSH2 0x405 PUSH2 0xC18 JUMP JUMPDEST STOP JUMPDEST CALLVALUE DUP1 ISZERO PUSH2 0x412 JUMPI PUSH0 DUP1 REVERT JUMPDEST POP PUSH2 0x41B PUSH2 0xC53 JUMP JUMPDEST PUSH1 0x40 MLOAD PUSH2 0x428 SWAP2 SWAP1 PUSH2 0x3410 JUMP JUMPDEST PUSH1 0x40 MLOAD DUP1 SWAP2 SUB SWAP1 RETURN JUMPDEST CALLVALUE DUP1 ISZERO PUSH2 0x43C JUMPI PUSH0 DUP1 REVERT JUMPDEST POP PUSH2 0x445 PUSH2 0xC77 JUMP JUMPDEST PUSH1 0x40 MLOAD PUSH2 0x452 SWAP2 SWAP1 PUSH2 0x31B4 JUMP JUMPDEST PUSH1 0x40 MLOAD DUP1 SWAP2 SUB SWAP1 RETURN JUMPDEST CALLVALUE DUP1 ISZERO PUSH2 0x466 JUMPI PUSH0 DUP1 REVERT JUMPDEST POP PUSH2 0x481 PUSH1 0x4 DUP1 CALLDATASIZE SUB DUP2 ADD SWAP1 PUSH2 0x47C SWAP2 SWAP1 PUSH2 0x3453 JUMP JUMPDEST PUSH2 0xC9F JUMP JUMPDEST STOP JUMPDEST CALLVALUE DUP1 ISZERO PUSH2 0x48E JUMPI PUSH0 DUP1 REVERT JUMPDEST POP PUSH2 0x497 PUSH2 0xD16 JUMP JUMPDEST PUSH1 0x40 MLOAD PUSH2 0x4A4 SWAP2 SWAP1 PUSH2 0x30F7 JUMP JUMPDEST PUSH1 0x40 MLOAD DUP1 SWAP2 SUB SWAP1 RETURN JUMPDEST CALLVALUE DUP1 ISZERO PUSH2 0x4B8 JUMPI PUSH0 DUP1 REVERT JUMPDEST POP PUSH2 0x4C1 PUSH2 0xDA6 JUMP JUMPDEST PUSH1 0x40 MLOAD PUSH2 0x4CE SWAP2 SWAP1 PUSH2 0x3244 JUMP JUMPDEST PUSH1 0x40 MLOAD DUP1 SWAP2 SUB SWAP1 RETURN JUMPDEST CALLVALUE DUP1 ISZERO PUSH2 0x4E2 JUMPI PUSH0 DUP1 REVERT JUMPDEST POP PUSH2 0x4FD PUSH1 0x4 DUP1 CALLDATASIZE SUB DUP2 ADD SWAP1 PUSH2 0x4F8 SWAP2 SWAP1 PUSH2 0x34BB JUMP JUMPDEST PUSH2 0xDAC JUMP JUMPDEST STOP JUMPDEST CALLVALUE DUP1 ISZERO PUSH2 0x50A JUMPI PUSH0 DUP1 REVERT JUMPDEST POP PUSH2 0x513 PUSH2 0xDC2 JUMP JUMPDEST PUSH1 0x40 MLOAD PUSH2 0x520 SWAP2 SWAP1 PUSH2 0x3244 JUMP JUMPDEST PUSH1 0x40 MLOAD DUP1 SWAP2 SUB SWAP1 RETURN JUMPDEST CALLVALUE DUP1 ISZERO PUSH2 0x534 JUMPI PUSH0 DUP1 REVERT JUMPDEST POP PUSH2 0x54F PUSH1 0x4 DUP1 CALLDATASIZE SUB DUP2 ADD SWAP1 PUSH2 0x54A SWAP2 SWAP1 PUSH2 0x3625 JUMP JUMPDEST PUSH2 0xDCD JUMP JUMPDEST STOP JUMPDEST CALLVALUE DUP1 ISZERO PUSH2 0x55C JUMPI PUSH0 DUP1 REVERT JUMPDEST POP PUSH2 0x577 PUSH1 0x4 DUP1 CALLDATASIZE SUB DUP2 ADD SWAP1 PUSH2 0x572 SWAP2 SWAP1 PUSH2 0x314A JUMP JUMPDEST PUSH2 0xDF2 JUMP JUMPDEST PUSH1 0x40 MLOAD PUSH2 0x584 SWAP2 SWAP1 PUSH2 0x30F7 JUMP JUMPDEST PUSH1 0x40 MLOAD DUP1 SWAP2 SUB SWAP1 RETURN JUMPDEST CALLVALUE DUP1 ISZERO PUSH2 0x598 JUMPI PUSH0 DUP1 REVERT JUMPDEST POP PUSH2 0x5B3 PUSH1 0x4 DUP1 CALLDATASIZE SUB DUP2 ADD SWAP1 PUSH2 0x5AE SWAP2 SWAP1 PUSH2 0x36A5 JUMP JUMPDEST PUSH2 0x1035 JUMP JUMPDEST PUSH1 0x40 MLOAD PUSH2 0x5C0 SWAP2 SWAP1 PUSH2 0x306E JUMP JUMPDEST PUSH1 0x40 MLOAD DUP1 SWAP2 SUB SWAP1 RETURN JUMPDEST CALLVALUE DUP1 ISZERO PUSH2 0x5D4 JUMPI PUSH0 DUP1 REVERT JUMPDEST POP PUSH2 0x5EF PUSH1 0x4 DUP1 CALLDATASIZE SUB DUP2 ADD SWAP1 PUSH2 0x5EA SWAP2 SWAP1 PUSH2 0x338A JUMP JUMPDEST PUSH2 0x10C3 JUMP JUMPDEST STOP JUMPDEST PUSH0 PUSH2 0x5FB DUP3 PUSH2 0x1147 JUMP JUMPDEST SWAP1 POP SWAP2 SWAP1 POP JUMP JUMPDEST PUSH1 0x60 PUSH0 DUP1 SLOAD PUSH2 0x610 SWAP1 PUSH2 0x3710 JUMP JUMPDEST DUP1 PUSH1 0x1F ADD PUSH1 0x20 DUP1 SWAP2 DIV MUL PUSH1 0x20 ADD PUSH1 0x40 MLOAD SWAP1 DUP2 ADD PUSH1 0x40 MSTORE DUP1 SWAP3 SWAP2 SWAP1 DUP2 DUP2 MSTORE PUSH1 0x20 ADD DUP3 DUP1 SLOAD PUSH2 0x63C SWAP1 PUSH2 0x3710 JUMP JUMPDEST DUP1 ISZERO PUSH2 0x687 JUMPI DUP1 PUSH1 0x1F LT PUSH2 0x65E JUMPI PUSH2 0x100 DUP1 DUP4 SLOAD DIV MUL DUP4 MSTORE SWAP2 PUSH1 0x20 ADD SWAP2 PUSH2 0x687 JUMP JUMPDEST DUP3 ADD SWAP2 SWAP1 PUSH0 MSTORE PUSH1 0x20 PUSH0 KECCAK256 SWAP1 JUMPDEST DUP2 SLOAD DUP2 MSTORE SWAP1 PUSH1 0x1 ADD SWAP1 PUSH1 0x20 ADD DUP1 DUP4 GT PUSH2 0x66A JUMPI DUP3 SWAP1 SUB PUSH1 0x1F AND DUP3 ADD SWAP2 JUMPDEST POP POP POP POP POP SWAP1 POP SWAP1 JUMP JUMPDEST PUSH0 PUSH2 0x69B DUP3 PUSH2 0x11C0 JUMP JUMPDEST POP PUSH2 0x6A5 DUP3 PUSH2 0x1246 JUMP JUMPDEST SWAP1 POP SWAP2 SWAP1 POP JUMP JUMPDEST PUSH2 0x6BE DUP3 DUP3 PUSH2 0x6B9 PUSH2 0x127F JUMP JUMPDEST PUSH2 0x1286 JUMP JUMPDEST POP POP JUMP JUMPDEST PUSH0 PUSH1 0xA SLOAD SWAP1 POP PUSH2 0x2000 DUP2 GT ISZERO PUSH2 0x704 JUMPI PUSH1 0x40 MLOAD PUSH32 0x52DF9FE500000000000000000000000000000000000000000000000000000000 DUP2 MSTORE PUSH1 0x4 ADD PUSH1 0x40 MLOAD DUP1 SWAP2 SUB SWAP1 REVERT JUMPDEST PUSH7 0x71AFD498D0000 CALLVALUE EQ PUSH2 0x744 JUMPI PUSH1 0x40 MLOAD PUSH32 0x39C5F2DF00000000000000000000000000000000000000000000000000000000 DUP2 MSTORE PUSH1 0x4 ADD PUSH1 0x40 MLOAD DUP1 SWAP2 SUB SWAP1 REVERT JUMPDEST PUSH1 0x1 DUP2 PUSH2 0x751 SWAP2 SWAP1 PUSH2 0x376D JUMP JUMPDEST PUSH1 0xA DUP2 SWAP1 SSTORE POP PUSH2 0x760 DUP2 PUSH2 0x1298 JUMP JUMPDEST PUSH1 0x9 PUSH0 DUP4 DUP2 MSTORE PUSH1 0x20 ADD SWAP1 DUP2 MSTORE PUSH1 0x20 ADD PUSH0 KECCAK256 DUP2 SWAP1 SSTORE POP PUSH2 0x77F CALLER DUP3 PUSH2 0x12DC JUMP JUMPDEST POP JUMP JUMPDEST PUSH0 PUSH1 0x1 PUSH1 0xA SLOAD PUSH2 0x792 SWAP2 SWAP1 PUSH2 0x37A0 JUMP JUMPDEST SWAP1 POP SWAP1 JUMP JUMPDEST PUSH0 PUSH20 0xFFFFFFFFFFFFFFFFFFFFFFFFFFFFFFFFFFFFFFFF AND DUP3 PUSH20 0xFFFFFFFFFFFFFFFFFFFFFFFFFFFFFFFFFFFFFFFF AND SUB PUSH2 0x807 JUMPI PUSH0 PUSH1 0x40 MLOAD PUSH32 0x64A0AE9200000000000000000000000000000000000000000000000000000000 DUP2 MSTORE PUSH1 0x4 ADD PUSH2 0x7FE SWAP2 SWAP1 PUSH2 0x31B4 JUMP JUMPDEST PUSH1 0x40 MLOAD DUP1 SWAP2 SUB SWAP1 REVERT JUMPDEST PUSH0 PUSH2 0x81A DUP4 DUP4 PUSH2 0x815 PUSH2 0x127F JUMP JUMPDEST PUSH2 0x12F9 JUMP JUMPDEST SWAP1 POP DUP4 PUSH20 0xFFFFFFFFFFFFFFFFFFFFFFFFFFFFFFFFFFFFFFFF AND DUP2 PUSH20 0xFFFFFFFFFFFFFFFFFFFFFFFFFFFFFFFFFFFFFFFF AND EQ PUSH2 0x890 JUMPI DUP4 DUP3 DUP3 PUSH1 0x40 MLOAD PUSH32 0x64283D7B00000000000000000000000000000000000000000000000000000000 DUP2 MSTORE PUSH1 0x4 ADD PUSH2 0x887 SWAP4 SWAP3 SWAP2 SWAP1 PUSH2 0x37D3 JUMP JUMPDEST PUSH1 0x40 MLOAD DUP1 SWAP2 SUB SWAP1 REVERT JUMPDEST POP POP POP POP JUMP JUMPDEST PUSH0 DUP1 PUSH0 PUSH1 0x7 PUSH0 DUP7 DUP2 MSTORE PUSH1 0x20 ADD SWAP1 DUP2 MSTORE PUSH1 0x20 ADD PUSH0 KECCAK256 SWAP1 POP PUSH0 DUP2 PUSH0 ADD PUSH0 SWAP1 SLOAD SWAP1 PUSH2 0x100 EXP SWAP1 DIV PUSH20 0xFFFFFFFFFFFFFFFFFFFFFFFFFFFFFFFFFFFFFFFF AND SWAP1 POP PUSH0 DUP3 PUSH0 ADD PUSH1 0x14 SWAP1 SLOAD SWAP1 PUSH2 0x100 EXP SWAP1 DIV PUSH12 0xFFFFFFFFFFFFFFFFFFFFFFFF AND SWAP1 POP PUSH0 PUSH20 0xFFFFFFFFFFFFFFFFFFFFFFFFFFFFFFFFFFFFFFFF AND DUP3 PUSH20 0xFFFFFFFFFFFFFFFFFFFFFFFFFFFFFFFFFFFFFFFF AND SUB PUSH2 0x96A JUMPI PUSH1 0x6 PUSH0 ADD PUSH0 SWAP1 SLOAD SWAP1 PUSH2 0x100 EXP SWAP1 DIV PUSH20 0xFFFFFFFFFFFFFFFFFFFFFFFFFFFFFFFFFFFFFFFF AND SWAP2 POP PUSH1 0x6 PUSH0 ADD PUSH1 0x14 SWAP1 SLOAD SWAP1 PUSH2 0x100 EXP SWAP1 DIV PUSH12 0xFFFFFFFFFFFFFFFFFFFFFFFF AND SWAP1 POP JUMPDEST PUSH0 PUSH2 0x973 PUSH2 0x1504 JUMP JUMPDEST PUSH12 0xFFFFFFFFFFFFFFFFFFFFFFFF AND DUP3 PUSH12 0xFFFFFFFFFFFFFFFFFFFFFFFF AND DUP9 PUSH2 0x99B SWAP2 SWAP1 PUSH2 0x3808 JUMP JUMPDEST PUSH2 0x9A5 SWAP2 SWAP1 PUSH2 0x3876 JUMP JUMPDEST SWAP1 POP DUP3 DUP2 SWAP6 POP SWAP6 POP POP POP POP POP SWAP3 POP SWAP3 SWAP1 POP JUMP JUMPDEST PUSH32 0x0 PUSH20 0xFFFFFFFFFFFFFFFFFFFFFFFFFFFFFFFFFFFFFFFF AND CALLER PUSH20 0xFFFFFFFFFFFFFFFFFFFFFFFFFFFFFFFFFFFFFFFF AND EQ PUSH2 0xA3D JUMPI PUSH1 0x40 MLOAD PUSH32 0xB90CDBB100000000000000000000000000000000000000000000000000000000 DUP2 MSTORE PUSH1 0x4 ADD PUSH1 0x40 MLOAD DUP1 SWAP2 SUB SWAP1 REVERT JUMPDEST PUSH0 PUSH32 0x0 PUSH20 0xFFFFFFFFFFFFFFFFFFFFFFFFFFFFFFFFFFFFFFFF AND SELFBALANCE PUSH1 0x40 MLOAD PUSH2 0xA82 SWAP1 PUSH2 0x38D3 JUMP JUMPDEST PUSH0 PUSH1 0x40 MLOAD DUP1 DUP4 SUB DUP2 DUP6 DUP8 GAS CALL SWAP3 POP POP POP RETURNDATASIZE DUP1 PUSH0 DUP2 EQ PUSH2 0xABC JUMPI PUSH1 0x40 MLOAD SWAP2 POP PUSH1 0x1F NOT PUSH1 0x3F RETURNDATASIZE ADD AND DUP3 ADD PUSH1 0x40 MSTORE RETURNDATASIZE DUP3 MSTORE RETURNDATASIZE PUSH0 PUSH1 0x20 DUP5 ADD RETURNDATACOPY PUSH2 0xAC1 JUMP JUMPDEST PUSH1 0x60 SWAP2 POP JUMPDEST POP POP SWAP1 POP DUP1 PUSH2 0xB05 JUMPI PUSH1 0x40 MLOAD PUSH32 0x8C379A000000000000000000000000000000000000000000000000000000000 DUP2 MSTORE PUSH1 0x4 ADD PUSH2 0xAFC SWAP1 PUSH2 0x3931 JUMP JUMPDEST PUSH1 0x40 MLOAD DUP1 SWAP2 SUB SWAP1 REVERT JUMPDEST POP JUMP JUMPDEST PUSH2 0x3E8 DUP2 JUMP JUMPDEST PUSH2 0xB28 DUP4 DUP4 DUP4 PUSH1 0x40 MLOAD DUP1 PUSH1 0x20 ADD PUSH1 0x40 MSTORE DUP1 PUSH0 DUP2 MSTORE POP PUSH2 0xDCD JUMP JUMPDEST POP POP POP JUMP JUMPDEST PUSH32 0x0 DUP2 JUMP JUMPDEST PUSH0 PUSH2 0xB5B DUP3 PUSH2 0x11C0 JUMP JUMPDEST SWAP1 POP SWAP2 SWAP1 POP JUMP JUMPDEST PUSH0 DUP1 PUSH20 0xFFFFFFFFFFFFFFFFFFFFFFFFFFFFFFFFFFFFFFFF AND DUP3 PUSH20 0xFFFFFFFFFFFFFFFFFFFFFFFFFFFFFFFFFFFFFFFF AND SUB PUSH2 0xBD3 JUMPI PUSH0 PUSH1 0x40 MLOAD PUSH32 0x89C62B6400000000000000000000000000000000000000000000000000000000 DUP2 MSTORE PUSH1 0x4 ADD PUSH2 0xBCA SWAP2 SWAP1 PUSH2 0x31B4 JUMP JUMPDEST PUSH1 0x40 MLOAD DUP1 SWAP2 SUB SWAP1 REVERT JUMPDEST PUSH1 0x3 PUSH0 DUP4 PUSH20 0xFFFFFFFFFFFFFFFFFFFFFFFFFFFFFFFFFFFFFFFF AND PUSH20 0xFFFFFFFFFFFFFFFFFFFFFFFFFFFFFFFFFFFFFFFF AND DUP2 MSTORE PUSH1 0x20 ADD SWAP1 DUP2 MSTORE PUSH1 0x20 ADD PUSH0 KECCAK256 SLOAD SWAP1 POP SWAP2 SWAP1 POP JUMP JUMPDEST PUSH1 0x40 MLOAD PUSH32 0x8C379A000000000000000000000000000000000000000000000000000000000 DUP2 MSTORE PUSH1 0x4 ADD PUSH2 0xC4A SWAP1 PUSH2 0x3999 JUMP JUMPDEST PUSH1 0x40 MLOAD DUP1 SWAP2 SUB SWAP1 REVERT JUMPDEST PUSH32 0x0 DUP2 JUMP JUMPDEST PUSH0 PUSH1 0x8 PUSH0 SWAP1 SLOAD SWAP1 PUSH2 0x100 EXP SWAP1 DIV PUSH20 0xFFFFFFFFFFFFFFFFFFFFFFFFFFFFFFFFFFFFFFFF AND SWAP1 POP SWAP1 JUMP JUMPDEST PUSH2 0xCA7 PUSH2 0x150D JUMP JUMPDEST PUSH2 0x3E8 PUSH12 0xFFFFFFFFFFFFFFFFFFFFFFFF AND DUP2 PUSH12 0xFFFFFFFFFFFFFFFFFFFFFFFF AND GT ISZERO PUSH2 0xD08 JUMPI PUSH1 0x40 MLOAD PUSH32 0x8C379A000000000000000000000000000000000000000000000000000000000 DUP2 MSTORE PUSH1 0x4 ADD PUSH2 0xCFF SWAP1 PUSH2 0x3A01 JUMP JUMPDEST PUSH1 0x40 MLOAD DUP1 SWAP2 SUB SWAP1 REVERT JUMPDEST PUSH2 0xD12 DUP3 DUP3 PUSH2 0x1594 JUMP JUMPDEST POP POP JUMP JUMPDEST PUSH1 0x60 PUSH1 0x1 DUP1 SLOAD PUSH2 0xD25 SWAP1 PUSH2 0x3710 JUMP JUMPDEST DUP1 PUSH1 0x1F ADD PUSH1 0x20 DUP1 SWAP2 DIV MUL PUSH1 0x20 ADD PUSH1 0x40 MLOAD SWAP1 DUP2 ADD PUSH1 0x40 MSTORE DUP1 SWAP3 SWAP2 SWAP1 DUP2 DUP2 MSTORE PUSH1 0x20 ADD DUP3 DUP1 SLOAD PUSH2 0xD51 SWAP1 PUSH2 0x3710 JUMP JUMPDEST DUP1 ISZERO PUSH2 0xD9C JUMPI DUP1 PUSH1 0x1F LT PUSH2 0xD73 JUMPI PUSH2 0x100 DUP1 DUP4 SLOAD DIV MUL DUP4 MSTORE SWAP2 PUSH1 0x20 ADD SWAP2 PUSH2 0xD9C JUMP JUMPDEST DUP3 ADD SWAP2 SWAP1 PUSH0 MSTORE PUSH1 0x20 PUSH0 KECCAK256 SWAP1 JUMPDEST DUP2 SLOAD DUP2 MSTORE SWAP1 PUSH1 0x1 ADD SWAP1 PUSH1 0x20 ADD DUP1 DUP4 GT PUSH2 0xD7F JUMPI DUP3 SWAP1 SUB PUSH1 0x1F AND DUP3 ADD SWAP2 JUMPDEST POP POP POP POP POP SWAP1 POP SWAP1 JUMP JUMPDEST PUSH2 0x2000 DUP2 JUMP JUMPDEST PUSH2 0xDBE PUSH2 0xDB7 PUSH2 0x127F JUMP JUMPDEST DUP4 DUP4 PUSH2 0x172F JUMP JUMPDEST POP POP JUMP JUMPDEST PUSH7 0x71AFD498D0000 DUP2 JUMP JUMPDEST PUSH2 0xDD8 DUP5 DUP5 DUP5 PUSH2 0x797 JUMP JUMPDEST PUSH2 0xDEC PUSH2 0xDE3 PUSH2 0x127F JUMP JUMPDEST DUP6 DUP6 DUP6 DUP6 PUSH2 0x1898 JUMP JUMPDEST POP POP POP POP JUMP JUMPDEST PUSH1 0x60 PUSH2 0xDFD DUP3 PUSH2 0x1A44 JUMP JUMPDEST PUSH2 0xE3C JUMPI PUSH1 0x40 MLOAD PUSH32 0x8C379A000000000000000000000000000000000000000000000000000000000 DUP2 MSTORE PUSH1 0x4 ADD PUSH2 0xE33 SWAP1 PUSH2 0x3A69 JUMP JUMPDEST PUSH1 0x40 MLOAD DUP1 SWAP2 SUB SWAP1 REVERT JUMPDEST PUSH0 PUSH1 0x9 PUSH0 DUP5 DUP2 MSTORE PUSH1 0x20 ADD SWAP1 DUP2 MSTORE PUSH1 0x20 ADD PUSH0 KECCAK256 SLOAD SWAP1 POP PUSH0 PUSH2 0xEF5 PUSH32 0x0 PUSH20 0xFFFFFFFFFFFFFFFFFFFFFFFFFFFFFFFFFFFFFFFF AND PUSH4 0x42B154A DUP5 PUSH1 0x40 MLOAD DUP3 PUSH4 0xFFFFFFFF AND PUSH1 0xE0 SHL DUP2 MSTORE PUSH1 0x4 ADD PUSH2 0xEAE SWAP2 SWAP1 PUSH2 0x3A9F JUMP JUMPDEST PUSH0 PUSH1 0x40 MLOAD DUP1 DUP4 SUB DUP2 DUP7 GAS STATICCALL ISZERO DUP1 ISZERO PUSH2 0xEC8 JUMPI RETURNDATASIZE PUSH0 DUP1 RETURNDATACOPY RETURNDATASIZE PUSH0 REVERT JUMPDEST POP POP POP POP PUSH1 0x40 MLOAD RETURNDATASIZE PUSH0 DUP3 RETURNDATACOPY RETURNDATASIZE PUSH1 0x1F NOT PUSH1 0x1F DUP3 ADD AND DUP3 ADD DUP1 PUSH1 0x40 MSTORE POP DUP2 ADD SWAP1 PUSH2 0xEF0 SWAP2 SWAP1 PUSH2 0x3B56 JUMP JUMPDEST PUSH2 0x1A9D JUMP JUMPDEST SWAP1 POP PUSH0 PUSH2 0xF01 DUP4 PUSH2 0x1ACA JUMP JUMPDEST SWAP1 POP PUSH0 PUSH2 0xF0D DUP5 PUSH2 0x1B21 JUMP JUMPDEST SWAP1 POP PUSH0 DUP3 PUSH2 0xF50 JUMPI PUSH1 0x40 MLOAD DUP1 PUSH1 0x40 ADD PUSH1 0x40 MSTORE DUP1 PUSH1 0x5 DUP2 MSTORE PUSH1 0x20 ADD PUSH32 0x66616C7365000000000000000000000000000000000000000000000000000000 DUP2 MSTORE POP PUSH2 0xF87 JUMP JUMPDEST PUSH1 0x40 MLOAD DUP1 PUSH1 0x40 ADD PUSH1 0x40 MSTORE DUP1 PUSH1 0x4 DUP2 MSTORE PUSH1 0x20 ADD PUSH32 0x7472756500000000000000000000000000000000000000000000000000000000 DUP2 MSTORE POP JUMPDEST PUSH2 0xF93 DUP4 PUSH1 0xFF AND PUSH2 0x1CAE JUMP JUMPDEST PUSH2 0xFA0 DUP8 PUSH0 SHR PUSH1 0x20 PUSH2 0x1D78 JUMP JUMPDEST PUSH1 0x40 MLOAD PUSH1 0x20 ADD PUSH2 0xFB2 SWAP4 SWAP3 SWAP2 SWAP1 PUSH2 0x3D29 JUMP JUMPDEST PUSH1 0x40 MLOAD PUSH1 0x20 DUP2 DUP4 SUB SUB DUP2 MSTORE SWAP1 PUSH1 0x40 MSTORE SWAP1 POP PUSH0 PUSH2 0x1006 PUSH2 0xFD0 DUP10 PUSH2 0x1CAE JUMP JUMPDEST PUSH2 0xFDD DUP9 PUSH0 SHR PUSH1 0x20 PUSH2 0x1D78 JUMP JUMPDEST DUP8 DUP6 PUSH1 0x40 MLOAD PUSH1 0x20 ADD PUSH2 0xFF2 SWAP5 SWAP4 SWAP3 SWAP2 SWAP1 PUSH2 0x4129 JUMP JUMPDEST PUSH1 0x40 MLOAD PUSH1 0x20 DUP2 DUP4 SUB SUB DUP2 MSTORE SWAP1 PUSH1 0x40 MSTORE PUSH2 0x1A9D JUMP JUMPDEST SWAP1 POP DUP1 PUSH1 0x40 MLOAD PUSH1 0x20 ADD PUSH2 0x1019 SWAP2 SWAP1 PUSH2 0x4205 JUMP JUMPDEST PUSH1 0x40 MLOAD PUSH1 0x20 DUP2 DUP4 SUB SUB DUP2 MSTORE SWAP1 PUSH1 0x40 MSTORE SWAP7 POP POP POP POP POP POP POP SWAP2 SWAP1 POP JUMP JUMPDEST PUSH0 PUSH1 0x5 PUSH0 DUP5 PUSH20 0xFFFFFFFFFFFFFFFFFFFFFFFFFFFFFFFFFFFFFFFF AND PUSH20 0xFFFFFFFFFFFFFFFFFFFFFFFFFFFFFFFFFFFFFFFF AND DUP2 MSTORE PUSH1 0x20 ADD SWAP1 DUP2 MSTORE PUSH1 0x20 ADD PUSH0 KECCAK256 PUSH0 DUP4 PUSH20 0xFFFFFFFFFFFFFFFFFFFFFFFFFFFFFFFFFFFFFFFF AND PUSH20 0xFFFFFFFFFFFFFFFFFFFFFFFFFFFFFFFFFFFFFFFF AND DUP2 MSTORE PUSH1 0x20 ADD SWAP1 DUP2 MSTORE PUSH1 0x20 ADD PUSH0 KECCAK256 PUSH0 SWAP1 SLOAD SWAP1 PUSH2 0x100 EXP SWAP1 DIV PUSH1 0xFF AND SWAP1 POP SWAP3 SWAP2 POP POP JUMP JUMPDEST PUSH2 0x10CB PUSH2 0x150D JUMP JUMPDEST PUSH0 PUSH20 0xFFFFFFFFFFFFFFFFFFFFFFFFFFFFFFFFFFFFFFFF AND DUP2 PUSH20 0xFFFFFFFFFFFFFFFFFFFFFFFFFFFFFFFFFFFFFFFF AND SUB PUSH2 0x113B JUMPI PUSH0 PUSH1 0x40 MLOAD PUSH32 0x1E4FBDF700000000000000000000000000000000000000000000000000000000 DUP2 MSTORE PUSH1 0x4 ADD PUSH2 0x1132 SWAP2 SWAP1 PUSH2 0x31B4 JUMP JUMPDEST PUSH1 0x40 MLOAD DUP1 SWAP2 SUB SWAP1 REVERT JUMPDEST PUSH2 0x1144 DUP2 PUSH2 0x1FB6 JUMP JUMPDEST POP JUMP JUMPDEST PUSH0 PUSH32 0x2A55205A00000000000000000000000000000000000000000000000000000000 PUSH28 0xFFFFFFFFFFFFFFFFFFFFFFFFFFFFFFFFFFFFFFFFFFFFFFFFFFFFFFFF NOT AND DUP3 PUSH28 0xFFFFFFFFFFFFFFFFFFFFFFFFFFFFFFFFFFFFFFFFFFFFFFFFFFFFFFFF NOT AND EQ DUP1 PUSH2 0x11B9 JUMPI POP PUSH2 0x11B8 DUP3 PUSH2 0x2079 JUMP JUMPDEST JUMPDEST SWAP1 POP SWAP2 SWAP1 POP JUMP JUMPDEST PUSH0 DUP1 PUSH2 0x11CB DUP4 PUSH2 0x215A JUMP JUMPDEST SWAP1 POP PUSH0 PUSH20 0xFFFFFFFFFFFFFFFFFFFFFFFFFFFFFFFFFFFFFFFF AND DUP2 PUSH20 0xFFFFFFFFFFFFFFFFFFFFFFFFFFFFFFFFFFFFFFFF AND SUB PUSH2 0x123D JUMPI DUP3 PUSH1 0x40 MLOAD PUSH32 0x7E27328900000000000000000000000000000000000000000000000000000000 DUP2 MSTORE PUSH1 0x4 ADD PUSH2 0x1234 SWAP2 SWAP1 PUSH2 0x3244 JUMP JUMPDEST PUSH1 0x40 MLOAD DUP1 SWAP2 SUB SWAP1 REVERT JUMPDEST DUP1 SWAP2 POP POP SWAP2 SWAP1 POP JUMP JUMPDEST PUSH0 PUSH1 0x4 PUSH0 DUP4 DUP2 MSTORE PUSH1 0x20 ADD SWAP1 DUP2 MSTORE PUSH1 0x20 ADD PUSH0 KECCAK256 PUSH0 SWAP1 SLOAD SWAP1 PUSH2 0x100 EXP SWAP1 DIV PUSH20 0xFFFFFFFFFFFFFFFFFFFFFFFFFFFFFFFFFFFFFFFF AND SWAP1 POP SWAP2 SWAP1 POP JUMP JUMPDEST PUSH0 CALLER SWAP1 POP SWAP1 JUMP JUMPDEST PUSH2 0x1293 DUP4 DUP4 DUP4 PUSH1 0x1 PUSH2 0x2193 JUMP JUMPDEST POP POP POP JUMP JUMPDEST PUSH0 PUSH1 0x1 NUMBER PUSH2 0x12A6 SWAP2 SWAP1 PUSH2 0x37A0 JUMP JUMPDEST BLOCKHASH TIMESTAMP PREVRANDAO DUP5 CALLER PUSH1 0x40 MLOAD PUSH1 0x20 ADD PUSH2 0x12BF SWAP6 SWAP5 SWAP4 SWAP3 SWAP2 SWAP1 PUSH2 0x42AF JUMP JUMPDEST PUSH1 0x40 MLOAD PUSH1 0x20 DUP2 DUP4 SUB SUB DUP2 MSTORE SWAP1 PUSH1 0x40 MSTORE DUP1 MLOAD SWAP1 PUSH1 0x20 ADD KECCAK256 SWAP1 POP SWAP2 SWAP1 POP JUMP JUMPDEST PUSH2 0x12F5 DUP3 DUP3 PUSH1 0x40 MLOAD DUP1 PUSH1 0x20 ADD PUSH1 0x40 MSTORE DUP1 PUSH0 DUP2 MSTORE POP PUSH2 0x2352 JUMP JUMPDEST POP POP JUMP JUMPDEST PUSH0 DUP1 PUSH2 0x1304 DUP5 PUSH2 0x215A JUMP JUMPDEST SWAP1 POP PUSH0 PUSH20 0xFFFFFFFFFFFFFFFFFFFFFFFFFFFFFFFFFFFFFFFF AND DUP4 PUSH20 0xFFFFFFFFFFFFFFFFFFFFFFFFFFFFFFFFFFFFFFFF AND EQ PUSH2 0x1345 JUMPI PUSH2 0x1344 DUP2 DUP5 DUP7 PUSH2 0x2375 JUMP JUMPDEST JUMPDEST PUSH0 PUSH20 0xFFFFFFFFFFFFFFFFFFFFFFFFFFFFFFFFFFFFFFFF AND DUP2 PUSH20 0xFFFFFFFFFFFFFFFFFFFFFFFFFFFFFFFFFFFFFFFF AND EQ PUSH2 0x13D0 JUMPI PUSH2 0x1384 PUSH0 DUP6 PUSH0 DUP1 PUSH2 0x2193 JUMP JUMPDEST PUSH1 0x1 PUSH1 0x3 PUSH0 DUP4 PUSH20 0xFFFFFFFFFFFFFFFFFFFFFFFFFFFFFFFFFFFFFFFF AND PUSH20 0xFFFFFFFFFFFFFFFFFFFFFFFFFFFFFFFFFFFFFFFF AND DUP2 MSTORE PUSH1 0x20 ADD SWAP1 DUP2 MSTORE PUSH1 0x20 ADD PUSH0 KECCAK256 PUSH0 DUP3 DUP3 SLOAD SUB SWAP3 POP POP DUP2 SWAP1 SSTORE POP JUMPDEST PUSH0 PUSH20 0xFFFFFFFFFFFFFFFFFFFFFFFFFFFFFFFFFFFFFFFF AND DUP6 PUSH20 0xFFFFFFFFFFFFFFFFFFFFFFFFFFFFFFFFFFFFFFFF AND EQ PUSH2 0x144F JUMPI PUSH1 0x1 PUSH1 0x3 PUSH0 DUP8 PUSH20 0xFFFFFFFFFFFFFFFFFFFFFFFFFFFFFFFFFFFFFFFF AND PUSH20 0xFFFFFFFFFFFFFFFFFFFFFFFFFFFFFFFFFFFFFFFF AND DUP2 MSTORE PUSH1 0x20 ADD SWAP1 DUP2 MSTORE PUSH1 0x20 ADD PUSH0 KECCAK256 PUSH0 DUP3 DUP3 SLOAD ADD SWAP3 POP POP DUP2 SWAP1 SSTORE POP JUMPDEST DUP5 PUSH1 0x2 PUSH0 DUP7 DUP2 MSTORE PUSH1 0x20 ADD SWAP1 DUP2 MSTORE PUSH1 0x20 ADD PUSH0 KECCAK256 PUSH0 PUSH2 0x100 EXP DUP2 SLOAD DUP2 PUSH20 0xFFFFFFFFFFFFFFFFFFFFFFFFFFFFFFFFFFFFFFFF MUL NOT AND SWAP1 DUP4 PUSH20 0xFFFFFFFFFFFFFFFFFFFFFFFFFFFFFFFFFFFFFFFF AND MUL OR SWAP1 SSTORE POP DUP4 DUP6 PUSH20 0xFFFFFFFFFFFFFFFFFFFFFFFFFFFFFFFFFFFFFFFF AND DUP3 PUSH20 0xFFFFFFFFFFFFFFFFFFFFFFFFFFFFFFFFFFFFFFFF AND PUSH32 0xDDF252AD1BE2C89B69C2B068FC378DAA952BA7F163C4A11628F55A4DF523B3EF PUSH1 0x40 MLOAD PUSH1 0x40 MLOAD DUP1 SWAP2 SUB SWAP1 LOG4 DUP1 SWAP2 POP POP SWAP4 SWAP3 POP POP POP JUMP JUMPDEST PUSH0 PUSH2 0x2710 SWAP1 POP SWAP1 JUMP JUMPDEST PUSH2 0x1515 PUSH2 0x127F JUMP JUMPDEST PUSH20 0xFFFFFFFFFFFFFFFFFFFFFFFFFFFFFFFFFFFFFFFF AND PUSH2 0x1533 PUSH2 0xC77 JUMP JUMPDEST PUSH20 0xFFFFFFFFFFFFFFFFFFFFFFFFFFFFFFFFFFFFFFFF AND EQ PUSH2 0x1592 JUMPI PUSH2 0x1556 PUSH2 0x127F JUMP JUMPDEST PUSH1 0x40 MLOAD PUSH32 0x118CDAA700000000000000000000000000000000000000000000000000000000 DUP2 MSTORE PUSH1 0x4 ADD PUSH2 0x1589 SWAP2 SWAP1 PUSH2 0x31B4 JUMP JUMPDEST PUSH1 0x40 MLOAD DUP1 SWAP2 SUB SWAP1 REVERT JUMPDEST JUMP JUMPDEST PUSH0 PUSH2 0x159D PUSH2 0x1504 JUMP JUMPDEST PUSH12 0xFFFFFFFFFFFFFFFFFFFFFFFF AND SWAP1 POP DUP1 DUP3 PUSH12 0xFFFFFFFFFFFFFFFFFFFFFFFF AND GT ISZERO PUSH2 0x1602 JUMPI DUP2 DUP2 PUSH1 0x40 MLOAD PUSH32 0x6F483D0900000000000000000000000000000000000000000000000000000000 DUP2 MSTORE PUSH1 0x4 ADD PUSH2 0x15F9 SWAP3 SWAP2 SWAP1 PUSH2 0x433D JUMP JUMPDEST PUSH1 0x40 MLOAD DUP1 SWAP2 SUB SWAP1 REVERT JUMPDEST PUSH0 PUSH20 0xFFFFFFFFFFFFFFFFFFFFFFFFFFFFFFFFFFFFFFFF AND DUP4 PUSH20 0xFFFFFFFFFFFFFFFFFFFFFFFFFFFFFFFFFFFFFFFF AND SUB PUSH2 0x1672 JUMPI PUSH0 PUSH1 0x40 MLOAD PUSH32 0xB6D9900A00000000000000000000000000000000000000000000000000000000 DUP2 MSTORE PUSH1 0x4 ADD PUSH2 0x1669 SWAP2 SWAP1 PUSH2 0x31B4 JUMP JUMPDEST PUSH1 0x40 MLOAD DUP1 SWAP2 SUB SWAP1 REVERT JUMPDEST PUSH1 0x40 MLOAD DUP1 PUSH1 0x40 ADD PUSH1 0x40 MSTORE DUP1 DUP5 PUSH20 0xFFFFFFFFFFFFFFFFFFFFFFFFFFFFFFFFFFFFFFFF AND DUP2 MSTORE PUSH1 0x20 ADD DUP4 PUSH12 0xFFFFFFFFFFFFFFFFFFFFFFFF AND DUP2 MSTORE POP PUSH1 0x6 PUSH0 DUP3 ADD MLOAD DUP2 PUSH0 ADD PUSH0 PUSH2 0x100 EXP DUP2 SLOAD DUP2 PUSH20 0xFFFFFFFFFFFFFFFFFFFFFFFFFFFFFFFFFFFFFFFF MUL NOT AND SWAP1 DUP4 PUSH20 0xFFFFFFFFFFFFFFFFFFFFFFFFFFFFFFFFFFFFFFFF AND MUL OR SWAP1 SSTORE POP PUSH1 0x20 DUP3 ADD MLOAD DUP2 PUSH0 ADD PUSH1 0x14 PUSH2 0x100 EXP DUP2 SLOAD DUP2 PUSH12 0xFFFFFFFFFFFFFFFFFFFFFFFF MUL NOT AND SWAP1 DUP4 PUSH12 0xFFFFFFFFFFFFFFFFFFFFFFFF AND MUL OR SWAP1 SSTORE POP SWAP1 POP POP POP POP POP JUMP JUMPDEST PUSH0 PUSH20 0xFFFFFFFFFFFFFFFFFFFFFFFFFFFFFFFFFFFFFFFF AND DUP3 PUSH20 0xFFFFFFFFFFFFFFFFFFFFFFFFFFFFFFFFFFFFFFFF AND SUB PUSH2 0x179F JUMPI DUP2 PUSH1 0x40 MLOAD PUSH32 0x5B08BA1800000000000000000000000000000000000000000000000000000000 DUP2 MSTORE PUSH1 0x4 ADD PUSH2 0x1796 SWAP2 SWAP1 PUSH2 0x31B4 JUMP JUMPDEST PUSH1 0x40 MLOAD DUP1 SWAP2 SUB SWAP1 REVERT JUMPDEST DUP1 PUSH1 0x5 PUSH0 DUP6 PUSH20 0xFFFFFFFFFFFFFFFFFFFFFFFFFFFFFFFFFFFFFFFF AND PUSH20 0xFFFFFFFFFFFFFFFFFFFFFFFFFFFFFFFFFFFFFFFF AND DUP2 MSTORE PUSH1 0x20 ADD SWAP1 DUP2 MSTORE PUSH1 0x20 ADD PUSH0 KECCAK256 PUSH0 DUP5 PUSH20 0xFFFFFFFFFFFFFFFFFFFFFFFFFFFFFFFFFFFFFFFF AND PUSH20 0xFFFFFFFFFFFFFFFFFFFFFFFFFFFFFFFFFFFFFFFF AND DUP2 MSTORE PUSH1 0x20 ADD SWAP1 DUP2 MSTORE PUSH1 0x20 ADD PUSH0 KECCAK256 PUSH0 PUSH2 0x100 EXP DUP2 SLOAD DUP2 PUSH1 0xFF MUL NOT AND SWAP1 DUP4 ISZERO ISZERO MUL OR SWAP1 SSTORE POP DUP2 PUSH20 0xFFFFFFFFFFFFFFFFFFFFFFFFFFFFFFFFFFFFFFFF AND DUP4 PUSH20 0xFFFFFFFFFFFFFFFFFFFFFFFFFFFFFFFFFFFFFFFF AND PUSH32 0x17307EAB39AB6107E8899845AD3D59BD9653F200F220920489CA2B5937696C31 DUP4 PUSH1 0x40 MLOAD PUSH2 0x188B SWAP2 SWAP1 PUSH2 0x306E JUMP JUMPDEST PUSH1 0x40 MLOAD DUP1 SWAP2 SUB SWAP1 LOG3 POP POP POP JUMP JUMPDEST PUSH0 DUP4 PUSH20 0xFFFFFFFFFFFFFFFFFFFFFFFFFFFFFFFFFFFFFFFF AND EXTCODESIZE GT ISZERO PUSH2 0x1A3D JUMPI DUP3 PUSH20 0xFFFFFFFFFFFFFFFFFFFFFFFFFFFFFFFFFFFFFFFF AND PUSH4 0x150B7A02 DUP7 DUP7 DUP6 DUP6 PUSH1 0x40 MLOAD DUP6 PUSH4 0xFFFFFFFF AND PUSH1 0xE0 SHL DUP2 MSTORE PUSH1 0x4 ADD PUSH2 0x18F6 SWAP5 SWAP4 SWAP3 SWAP2 SWAP1 PUSH2 0x43B6 JUMP JUMPDEST PUSH1 0x20 PUSH1 0x40 MLOAD DUP1 DUP4 SUB DUP2 PUSH0 DUP8 GAS CALL SWAP3 POP POP POP DUP1 ISZERO PUSH2 0x1931 JUMPI POP PUSH1 0x40 MLOAD RETURNDATASIZE PUSH1 0x1F NOT PUSH1 0x1F DUP3 ADD AND DUP3 ADD DUP1 PUSH1 0x40 MSTORE POP DUP2 ADD SWAP1 PUSH2 0x192E SWAP2 SWAP1 PUSH2 0x4414 JUMP JUMPDEST PUSH1 0x1 JUMPDEST PUSH2 0x19B2 JUMPI RETURNDATASIZE DUP1 PUSH0 DUP2 EQ PUSH2 0x195F JUMPI PUSH1 0x40 MLOAD SWAP2 POP PUSH1 0x1F NOT PUSH1 0x3F RETURNDATASIZE ADD AND DUP3 ADD PUSH1 0x40 MSTORE RETURNDATASIZE DUP3 MSTORE RETURNDATASIZE PUSH0 PUSH1 0x20 DUP5 ADD RETURNDATACOPY PUSH2 0x1964 JUMP JUMPDEST PUSH1 0x60 SWAP2 POP JUMPDEST POP PUSH0 DUP2 MLOAD SUB PUSH2 0x19AA JUMPI DUP4 PUSH1 0x40 MLOAD PUSH32 0x64A0AE9200000000000000000000000000000000000000000000000000000000 DUP2 MSTORE PUSH1 0x4 ADD PUSH2 0x19A1 SWAP2 SWAP1 PUSH2 0x31B4 JUMP JUMPDEST PUSH1 0x40 MLOAD DUP1 SWAP2 SUB SWAP1 REVERT JUMPDEST DUP1 MLOAD DUP2 PUSH1 0x20 ADD REVERT JUMPDEST PUSH4 0x150B7A02 PUSH1 0xE0 SHL PUSH28 0xFFFFFFFFFFFFFFFFFFFFFFFFFFFFFFFFFFFFFFFFFFFFFFFFFFFFFFFF NOT AND DUP2 PUSH28 0xFFFFFFFFFFFFFFFFFFFFFFFFFFFFFFFFFFFFFFFFFFFFFFFFFFFFFFFF NOT AND EQ PUSH2 0x1A3B JUMPI DUP4 PUSH1 0x40 MLOAD PUSH32 0x64A0AE9200000000000000000000000000000000000000000000000000000000 DUP2 MSTORE PUSH1 0x4 ADD PUSH2 0x1A32 SWAP2 SWAP1 PUSH2 0x31B4 JUMP JUMPDEST PUSH1 0x40 MLOAD DUP1 SWAP2 SUB SWAP1 REVERT JUMPDEST POP JUMPDEST POP POP POP POP POP JUMP JUMPDEST PUSH0 DUP1 DUP3 EQ ISZERO DUP1 ISZERO PUSH2 0x1A56 JUMPI POP PUSH1 0xA SLOAD DUP3 LT JUMPDEST DUP1 ISZERO PUSH2 0x1A96 JUMPI POP PUSH0 PUSH20 0xFFFFFFFFFFFFFFFFFFFFFFFFFFFFFFFFFFFFFFFF AND PUSH2 0x1A7D DUP4 PUSH2 0x215A JUMP JUMPDEST PUSH20 0xFFFFFFFFFFFFFFFFFFFFFFFFFFFFFFFFFFFFFFFF AND EQ ISZERO JUMPDEST SWAP1 POP SWAP2 SWAP1 POP JUMP JUMPDEST PUSH1 0x60 PUSH2 0x1AC3 DUP3 PUSH1 0x40 MLOAD DUP1 PUSH1 0x60 ADD PUSH1 0x40 MSTORE DUP1 PUSH1 0x40 DUP2 MSTORE PUSH1 0x20 ADD PUSH2 0x4645 PUSH1 0x40 SWAP2 CODECOPY PUSH1 0x1 PUSH2 0x2438 JUMP JUMPDEST SWAP1 POP SWAP2 SWAP1 POP JUMP JUMPDEST PUSH0 DUP1 PUSH0 JUMPDEST PUSH1 0x20 DUP2 LT ISZERO PUSH2 0x1B14 JUMPI PUSH2 0x1AF9 DUP5 DUP3 PUSH1 0x20 DUP2 LT PUSH2 0x1AED JUMPI PUSH2 0x1AEC PUSH2 0x443F JUMP JUMPDEST JUMPDEST BYTE PUSH1 0xF8 SHL PUSH1 0xF8 SHR PUSH2 0x25C7 JUMP JUMPDEST PUSH1 0xFF AND DUP3 PUSH2 0x1B07 SWAP2 SWAP1 PUSH2 0x376D JUMP JUMPDEST SWAP2 POP DUP1 PUSH1 0x1 ADD SWAP1 POP PUSH2 0x1ACE JUMP JUMPDEST POP PUSH1 0x80 DUP2 EQ SWAP2 POP POP SWAP2 SWAP1 POP JUMP JUMPDEST PUSH0 DUP1 PUSH2 0x1B2C DUP4 PUSH2 0x25F8 JUMP JUMPDEST SWAP1 POP PUSH2 0x1B36 PUSH2 0x2EFF JUMP JUMPDEST PUSH0 DUP1 PUSH0 SWAP1 POP JUMPDEST PUSH1 0x40 DUP2 PUSH1 0xFF AND LT ISZERO PUSH2 0x1CA2 JUMPI PUSH0 DUP5 PUSH0 PUSH1 0x4 DUP2 LT PUSH2 0x1B5C JUMPI PUSH2 0x1B5B PUSH2 0x443F JUMP JUMPDEST JUMPDEST PUSH1 0x20 MUL ADD MLOAD DUP3 PUSH1 0xFF AND PUSH1 0x40 DUP2 LT PUSH2 0x1B76 JUMPI PUSH2 0x1B75 PUSH2 0x443F JUMP JUMPDEST JUMPDEST PUSH1 0x20 MUL ADD MLOAD PUSH1 0xFF AND EQ ISZERO DUP1 PUSH2 0x1BB9 JUMPI POP DUP3 PUSH0 PUSH1 0x4 DUP2 LT PUSH2 0x1B99 JUMPI PUSH2 0x1B98 PUSH2 0x443F JUMP JUMPDEST JUMPDEST PUSH1 0x20 MUL ADD MLOAD DUP2 PUSH1 0xFF AND PUSH1 0x40 DUP2 LT PUSH2 0x1BB3 JUMPI PUSH2 0x1BB2 PUSH2 0x443F JUMP JUMPDEST JUMPDEST PUSH1 0x20 MUL ADD MLOAD JUMPDEST PUSH2 0x1C97 JUMPI PUSH2 0x1BC5 PUSH2 0x2EFF JUMP JUMPDEST PUSH2 0x1BD1 DUP6 DUP6 DUP4 DUP6 PUSH2 0x274E JUMP JUMPDEST ISZERO PUSH2 0x1C95 JUMPI DUP3 DUP1 PUSH2 0x1BE1 SWAP1 PUSH2 0x4478 JUMP JUMPDEST SWAP4 POP POP PUSH0 JUMPDEST PUSH1 0x4 DUP2 PUSH1 0xFF AND LT ISZERO PUSH2 0x1C93 JUMPI PUSH0 JUMPDEST PUSH1 0x40 DUP2 PUSH1 0xFF AND LT ISZERO PUSH2 0x1C87 JUMPI DUP3 DUP3 PUSH1 0xFF AND PUSH1 0x4 DUP2 LT PUSH2 0x1C16 JUMPI PUSH2 0x1C15 PUSH2 0x443F JUMP JUMPDEST JUMPDEST PUSH1 0x20 MUL ADD MLOAD DUP2 PUSH1 0xFF AND PUSH1 0x40 DUP2 LT PUSH2 0x1C30 JUMPI PUSH2 0x1C2F PUSH2 0x443F JUMP JUMPDEST JUMPDEST PUSH1 0x20 MUL ADD MLOAD ISZERO PUSH2 0x1C7C JUMPI PUSH1 0x1 DUP7 DUP4 PUSH1 0xFF AND PUSH1 0x4 DUP2 LT PUSH2 0x1C52 JUMPI PUSH2 0x1C51 PUSH2 0x443F JUMP JUMPDEST JUMPDEST PUSH1 0x20 MUL ADD MLOAD DUP3 PUSH1 0xFF AND PUSH1 0x40 DUP2 LT PUSH2 0x1C6C JUMPI PUSH2 0x1C6B PUSH2 0x443F JUMP JUMPDEST JUMPDEST PUSH1 0x20 MUL ADD SWAP1 ISZERO ISZERO SWAP1 DUP2 ISZERO ISZERO DUP2 MSTORE POP POP JUMPDEST DUP1 PUSH1 0x1 ADD SWAP1 POP PUSH2 0x1BF4 JUMP JUMPDEST POP DUP1 PUSH1 0x1 ADD SWAP1 POP PUSH2 0x1BE6 JUMP JUMPDEST POP JUMPDEST POP JUMPDEST DUP1 PUSH1 0x1 ADD SWAP1 POP PUSH2 0x1B3C JUMP JUMPDEST POP DUP1 SWAP4 POP POP POP POP SWAP2 SWAP1 POP JUMP JUMPDEST PUSH1 0x60 PUSH0 PUSH1 0x1 PUSH2 0x1CBC DUP5 PUSH2 0x2A39 JUMP JUMPDEST ADD SWAP1 POP PUSH0 DUP2 PUSH8 0xFFFFFFFFFFFFFFFF DUP2 GT ISZERO PUSH2 0x1CDA JUMPI PUSH2 0x1CD9 PUSH2 0x3501 JUMP JUMPDEST JUMPDEST PUSH1 0x40 MLOAD SWAP1 DUP1 DUP3 MSTORE DUP1 PUSH1 0x1F ADD PUSH1 0x1F NOT AND PUSH1 0x20 ADD DUP3 ADD PUSH1 0x40 MSTORE DUP1 ISZERO PUSH2 0x1D0C JUMPI DUP2 PUSH1 0x20 ADD PUSH1 0x1 DUP3 MUL DUP1 CALLDATASIZE DUP4 CALLDATACOPY DUP1 DUP3 ADD SWAP2 POP POP SWAP1 POP JUMPDEST POP SWAP1 POP PUSH0 DUP3 PUSH1 0x20 ADD DUP3 ADD SWAP1 POP JUMPDEST PUSH1 0x1 ISZERO PUSH2 0x1D6D JUMPI DUP1 DUP1 PUSH1 0x1 SWAP1 SUB SWAP2 POP POP PUSH32 0x3031323334353637383961626364656600000000000000000000000000000000 PUSH1 0xA DUP7 MOD BYTE DUP2 MSTORE8 PUSH1 0xA DUP6 DUP2 PUSH2 0x1D62 JUMPI PUSH2 0x1D61 PUSH2 0x3849 JUMP JUMPDEST JUMPDEST DIV SWAP5 POP PUSH0 DUP6 SUB PUSH2 0x1D19 JUMPI JUMPDEST DUP2 SWAP4 POP POP POP POP SWAP2 SWAP1 POP JUMP JUMPDEST PUSH1 0x60 PUSH0 DUP4 SWAP1 POP PUSH0 PUSH1 0x2 DUP5 PUSH1 0x2 PUSH2 0x1D8E SWAP2 SWAP1 PUSH2 0x3808 JUMP JUMPDEST PUSH2 0x1D98 SWAP2 SWAP1 PUSH2 0x376D JUMP JUMPDEST PUSH8 0xFFFFFFFFFFFFFFFF DUP2 GT ISZERO PUSH2 0x1DB1 JUMPI PUSH2 0x1DB0 PUSH2 0x3501 JUMP JUMPDEST JUMPDEST PUSH1 0x40 MLOAD SWAP1 DUP1 DUP3 MSTORE DUP1 PUSH1 0x1F ADD PUSH1 0x1F NOT AND PUSH1 0x20 ADD DUP3 ADD PUSH1 0x40 MSTORE DUP1 ISZERO PUSH2 0x1DE3 JUMPI DUP2 PUSH1 0x20 ADD PUSH1 0x1 DUP3 MUL DUP1 CALLDATASIZE DUP4 CALLDATACOPY DUP1 DUP3 ADD SWAP2 POP POP SWAP1 POP JUMPDEST POP SWAP1 POP PUSH32 0x3000000000000000000000000000000000000000000000000000000000000000 DUP2 PUSH0 DUP2 MLOAD DUP2 LT PUSH2 0x1E1A JUMPI PUSH2 0x1E19 PUSH2 0x443F JUMP JUMPDEST JUMPDEST PUSH1 0x20 ADD ADD SWAP1 PUSH31 0xFFFFFFFFFFFFFFFFFFFFFFFFFFFFFFFFFFFFFFFFFFFFFFFFFFFFFFFFFFFFFF NOT AND SWAP1 DUP2 PUSH0 BYTE SWAP1 MSTORE8 POP PUSH32 0x7800000000000000000000000000000000000000000000000000000000000000 DUP2 PUSH1 0x1 DUP2 MLOAD DUP2 LT PUSH2 0x1E7D JUMPI PUSH2 0x1E7C PUSH2 0x443F JUMP JUMPDEST JUMPDEST PUSH1 0x20 ADD ADD SWAP1 PUSH31 0xFFFFFFFFFFFFFFFFFFFFFFFFFFFFFFFFFFFFFFFFFFFFFFFFFFFFFFFFFFFFFF NOT AND SWAP1 DUP2 PUSH0 BYTE SWAP1 MSTORE8 POP PUSH0 PUSH1 0x1 DUP6 PUSH1 0x2 PUSH2 0x1EBB SWAP2 SWAP1 PUSH2 0x3808 JUMP JUMPDEST PUSH2 0x1EC5 SWAP2 SWAP1 PUSH2 0x376D JUMP JUMPDEST SWAP1 POP JUMPDEST PUSH1 0x1 DUP2 GT ISZERO PUSH2 0x1F64 JUMPI PUSH32 0x3031323334353637383961626364656600000000000000000000000000000000 PUSH1 0xF DUP5 AND PUSH1 0x10 DUP2 LT PUSH2 0x1F07 JUMPI PUSH2 0x1F06 PUSH2 0x443F JUMP JUMPDEST JUMPDEST BYTE PUSH1 0xF8 SHL DUP3 DUP3 DUP2 MLOAD DUP2 LT PUSH2 0x1F1E JUMPI PUSH2 0x1F1D PUSH2 0x443F JUMP JUMPDEST JUMPDEST PUSH1 0x20 ADD ADD SWAP1 PUSH31 0xFFFFFFFFFFFFFFFFFFFFFFFFFFFFFFFFFFFFFFFFFFFFFFFFFFFFFFFFFFFFFF NOT AND SWAP1 DUP2 PUSH0 BYTE SWAP1 MSTORE8 POP PUSH1 0x4 DUP4 SWAP1 SHR SWAP3 POP DUP1 PUSH2 0x1F5D SWAP1 PUSH2 0x44A0 JUMP JUMPDEST SWAP1 POP PUSH2 0x1EC8 JUMP JUMPDEST POP PUSH0 DUP3 EQ PUSH2 0x1FAB JUMPI DUP5 DUP5 PUSH1 0x40 MLOAD PUSH32 0xE22E27EB00000000000000000000000000000000000000000000000000000000 DUP2 MSTORE PUSH1 0x4 ADD PUSH2 0x1FA2 SWAP3 SWAP2 SWAP1 PUSH2 0x44C7 JUMP JUMPDEST PUSH1 0x40 MLOAD DUP1 SWAP2 SUB SWAP1 REVERT JUMPDEST DUP1 SWAP3 POP POP POP SWAP3 SWAP2 POP POP JUMP JUMPDEST PUSH0 PUSH1 0x8 PUSH0 SWAP1 SLOAD SWAP1 PUSH2 0x100 EXP SWAP1 DIV PUSH20 0xFFFFFFFFFFFFFFFFFFFFFFFFFFFFFFFFFFFFFFFF AND SWAP1 POP DUP2 PUSH1 0x8 PUSH0 PUSH2 0x100 EXP DUP2 SLOAD DUP2 PUSH20 0xFFFFFFFFFFFFFFFFFFFFFFFFFFFFFFFFFFFFFFFF MUL NOT AND SWAP1 DUP4 PUSH20 0xFFFFFFFFFFFFFFFFFFFFFFFFFFFFFFFFFFFFFFFF AND MUL OR SWAP1 SSTORE POP DUP2 PUSH20 0xFFFFFFFFFFFFFFFFFFFFFFFFFFFFFFFFFFFFFFFF AND DUP2 PUSH20 0xFFFFFFFFFFFFFFFFFFFFFFFFFFFFFFFFFFFFFFFF AND PUSH32 0x8BE0079C531659141344CD1FD0A4F28419497F9722A3DAAFE3B4186F6B6457E0 PUSH1 0x40 MLOAD PUSH1 0x40 MLOAD DUP1 SWAP2 SUB SWAP1 LOG3 POP POP JUMP JUMPDEST PUSH0 PUSH32 0x80AC58CD00000000000000000000000000000000000000000000000000000000 PUSH28 0xFFFFFFFFFFFFFFFFFFFFFFFFFFFFFFFFFFFFFFFFFFFFFFFFFFFFFFFF NOT AND DUP3 PUSH28 0xFFFFFFFFFFFFFFFFFFFFFFFFFFFFFFFFFFFFFFFFFFFFFFFFFFFFFFFF NOT AND EQ DUP1 PUSH2 0x2143 JUMPI POP PUSH32 0x5B5E139F00000000000000000000000000000000000000000000000000000000 PUSH28 0xFFFFFFFFFFFFFFFFFFFFFFFFFFFFFFFFFFFFFFFFFFFFFFFFFFFFFFFF NOT AND DUP3 PUSH28 0xFFFFFFFFFFFFFFFFFFFFFFFFFFFFFFFFFFFFFFFFFFFFFFFFFFFFFFFF NOT AND EQ JUMPDEST DUP1 PUSH2 0x2153 JUMPI POP PUSH2 0x2152 DUP3 PUSH2 0x2B8A JUMP JUMPDEST JUMPDEST SWAP1 POP SWAP2 SWAP1 POP JUMP JUMPDEST PUSH0 PUSH1 0x2 PUSH0 DUP4 DUP2 MSTORE PUSH1 0x20 ADD SWAP1 DUP2 MSTORE PUSH1 0x20 ADD PUSH0 KECCAK256 PUSH0 SWAP1 SLOAD SWAP1 PUSH2 0x100 EXP SWAP1 DIV PUSH20 0xFFFFFFFFFFFFFFFFFFFFFFFFFFFFFFFFFFFFFFFF AND SWAP1 POP SWAP2 SWAP1 POP JUMP JUMPDEST DUP1 DUP1 PUSH2 0x21CB JUMPI POP PUSH0 PUSH20 0xFFFFFFFFFFFFFFFFFFFFFFFFFFFFFFFFFFFFFFFF AND DUP3 PUSH20 0xFFFFFFFFFFFFFFFFFFFFFFFFFFFFFFFFFFFFFFFF AND EQ ISZERO JUMPDEST ISZERO PUSH2 0x22FD JUMPI PUSH0 PUSH2 0x21DA DUP5 PUSH2 0x11C0 JUMP JUMPDEST SWAP1 POP PUSH0 PUSH20 0xFFFFFFFFFFFFFFFFFFFFFFFFFFFFFFFFFFFFFFFF AND DUP4 PUSH20 0xFFFFFFFFFFFFFFFFFFFFFFFFFFFFFFFFFFFFFFFF AND EQ ISZERO DUP1 ISZERO PUSH2 0x2244 JUMPI POP DUP3 PUSH20 0xFFFFFFFFFFFFFFFFFFFFFFFFFFFFFFFFFFFFFFFF AND DUP2 PUSH20 0xFFFFFFFFFFFFFFFFFFFFFFFFFFFFFFFFFFFFFFFF AND EQ ISZERO JUMPDEST DUP1 ISZERO PUSH2 0x2257 JUMPI POP PUSH2 0x2255 DUP2 DUP5 PUSH2 0x1035 JUMP JUMPDEST ISZERO JUMPDEST ISZERO PUSH2 0x2299 JUMPI DUP3 PUSH1 0x40 MLOAD PUSH32 0xA9FBF51F00000000000000000000000000000000000000000000000000000000 DUP2 MSTORE PUSH1 0x4 ADD PUSH2 0x2290 SWAP2 SWAP1 PUSH2 0x31B4 JUMP JUMPDEST PUSH1 0x40 MLOAD DUP1 SWAP2 SUB SWAP1 REVERT JUMPDEST DUP2 ISZERO PUSH2 0x22FB JUMPI DUP4 DUP6 PUSH20 0xFFFFFFFFFFFFFFFFFFFFFFFFFFFFFFFFFFFFFFFF AND DUP3 PUSH20 0xFFFFFFFFFFFFFFFFFFFFFFFFFFFFFFFFFFFFFFFF AND PUSH32 0x8C5BE1E5EBEC7D5BD14F71427D1E84F3DD0314C0F7B2291E5B200AC8C7C3B925 PUSH1 0x40 MLOAD PUSH1 0x40 MLOAD DUP1 SWAP2 SUB SWAP1 LOG4 JUMPDEST POP JUMPDEST DUP4 PUSH1 0x4 PUSH0 DUP6 DUP2 MSTORE PUSH1 0x20 ADD SWAP1 DUP2 MSTORE PUSH1 0x20 ADD PUSH0 KECCAK256 PUSH0 PUSH2 0x100 EXP DUP2 SLOAD DUP2 PUSH20 0xFFFFFFFFFFFFFFFFFFFFFFFFFFFFFFFFFFFFFFFF MUL NOT AND SWAP1 DUP4 PUSH20 0xFFFFFFFFFFFFFFFFFFFFFFFFFFFFFFFFFFFFFFFF AND MUL OR SWAP1 SSTORE POP POP POP POP POP JUMP JUMPDEST PUSH2 0x235C DUP4 DUP4 PUSH2 0x2BF3 JUMP JUMPDEST PUSH2 0x2370 PUSH2 0x2367 PUSH2 0x127F JUMP JUMPDEST PUSH0 DUP6 DUP6 DUP6 PUSH2 0x1898 JUMP JUMPDEST POP POP POP JUMP JUMPDEST PUSH2 0x2380 DUP4 DUP4 DUP4 PUSH2 0x2CE6 JUMP JUMPDEST PUSH2 0x2433 JUMPI PUSH0 PUSH20 0xFFFFFFFFFFFFFFFFFFFFFFFFFFFFFFFFFFFFFFFF AND DUP4 PUSH20 0xFFFFFFFFFFFFFFFFFFFFFFFFFFFFFFFFFFFFFFFF AND SUB PUSH2 0x23F4 JUMPI DUP1 PUSH1 0x40 MLOAD PUSH32 0x7E27328900000000000000000000000000000000000000000000000000000000 DUP2 MSTORE PUSH1 0x4 ADD PUSH2 0x23EB SWAP2 SWAP1 PUSH2 0x3244 JUMP JUMPDEST PUSH1 0x40 MLOAD DUP1 SWAP2 SUB SWAP1 REVERT JUMPDEST DUP2 DUP2 PUSH1 0x40 MLOAD PUSH32 0x177E802F00000000000000000000000000000000000000000000000000000000 DUP2 MSTORE PUSH1 0x4 ADD PUSH2 0x242A SWAP3 SWAP2 SWAP1 PUSH2 0x32EB JUMP JUMPDEST PUSH1 0x40 MLOAD DUP1 SWAP2 SUB SWAP1 REVERT JUMPDEST POP POP POP JUMP JUMPDEST PUSH1 0x60 PUSH0 DUP5 MLOAD SUB PUSH2 0x2458 JUMPI PUSH1 0x40 MLOAD DUP1 PUSH1 0x20 ADD PUSH1 0x40 MSTORE DUP1 PUSH0 DUP2 MSTORE POP SWAP1 POP PUSH2 0x25C0 JUMP JUMPDEST PUSH0 DUP3 PUSH2 0x2489 JUMPI PUSH1 0x3 PUSH1 0x2 DUP7 MLOAD PUSH1 0x4 PUSH2 0x2470 SWAP2 SWAP1 PUSH2 0x3808 JUMP JUMPDEST PUSH2 0x247A SWAP2 SWAP1 PUSH2 0x376D JUMP JUMPDEST PUSH2 0x2484 SWAP2 SWAP1 PUSH2 0x3876 JUMP JUMPDEST PUSH2 0x24B0 JUMP JUMPDEST PUSH1 0x3 PUSH1 0x2 DUP7 MLOAD PUSH2 0x2499 SWAP2 SWAP1 PUSH2 0x376D JUMP JUMPDEST PUSH2 0x24A3 SWAP2 SWAP1 PUSH2 0x3876 JUMP JUMPDEST PUSH1 0x4 PUSH2 0x24AF SWAP2 SWAP1 PUSH2 0x3808 JUMP JUMPDEST JUMPDEST SWAP1 POP PUSH0 DUP2 PUSH8 0xFFFFFFFFFFFFFFFF DUP2 GT ISZERO PUSH2 0x24CD JUMPI PUSH2 0x24CC PUSH2 0x3501 JUMP JUMPDEST JUMPDEST PUSH1 0x40 MLOAD SWAP1 DUP1 DUP3 MSTORE DUP1 PUSH1 0x1F ADD PUSH1 0x1F NOT AND PUSH1 0x20 ADD DUP3 ADD PUSH1 0x40 MSTORE DUP1 ISZERO PUSH2 0x24FF JUMPI DUP2 PUSH1 0x20 ADD PUSH1 0x1 DUP3 MUL DUP1 CALLDATASIZE DUP4 CALLDATACOPY DUP1 DUP3 ADD SWAP2 POP POP SWAP1 POP JUMPDEST POP SWAP1 POP PUSH1 0x1 DUP6 ADD PUSH1 0x20 DUP3 ADD DUP8 DUP9 MLOAD DUP10 ADD PUSH1 0x20 DUP2 ADD DUP1 MLOAD PUSH0 DUP3 MSTORE JUMPDEST DUP3 DUP5 LT ISZERO PUSH2 0x2574 JUMPI PUSH1 0x3 DUP5 ADD SWAP4 POP DUP4 MLOAD PUSH1 0x3F DUP2 PUSH1 0x12 SHR AND DUP8 ADD MLOAD DUP7 MSTORE8 PUSH1 0x1 DUP7 ADD SWAP6 POP PUSH1 0x3F DUP2 PUSH1 0xC SHR AND DUP8 ADD MLOAD DUP7 MSTORE8 PUSH1 0x1 DUP7 ADD SWAP6 POP PUSH1 0x3F DUP2 PUSH1 0x6 SHR AND DUP8 ADD MLOAD DUP7 MSTORE8 PUSH1 0x1 DUP7 ADD SWAP6 POP PUSH1 0x3F DUP2 AND DUP8 ADD MLOAD DUP7 MSTORE8 PUSH1 0x1 DUP7 ADD SWAP6 POP POP PUSH2 0x2519 JUMP JUMPDEST DUP1 DUP3 MSTORE DUP10 ISZERO PUSH2 0x25B4 JUMPI PUSH1 0x3 DUP13 MLOAD MOD PUSH1 0x1 DUP2 EQ PUSH2 0x2597 JUMPI PUSH1 0x2 DUP2 EQ PUSH2 0x25AA JUMPI PUSH2 0x25B2 JUMP JUMPDEST PUSH1 0x3D PUSH1 0x1 DUP8 SUB MSTORE8 PUSH1 0x3D PUSH1 0x2 DUP8 SUB MSTORE8 PUSH2 0x25B2 JUMP JUMPDEST PUSH1 0x3D PUSH1 0x1 DUP8 SUB MSTORE8 JUMPDEST POP JUMPDEST POP POP POP POP POP POP DUP1 SWAP3 POP POP POP JUMPDEST SWAP4 SWAP3 POP POP POP JUMP JUMPDEST PUSH0 JUMPDEST PUSH0 DUP3 PUSH1 0xFF AND EQ PUSH2 0x25F3 JUMPI PUSH1 0x1 DUP3 AND DUP2 PUSH2 0x25E2 SWAP2 SWAP1 PUSH2 0x44EE JUMP JUMPDEST SWAP1 POP PUSH1 0x1 DUP3 PUSH1 0xFF AND SWAP1 SHR SWAP2 POP PUSH2 0x25C9 JUMP JUMPDEST SWAP2 SWAP1 POP JUMP JUMPDEST PUSH2 0x2600 PUSH2 0x2F2C JUMP JUMPDEST PUSH0 JUMPDEST PUSH1 0x20 DUP2 LT ISZERO PUSH2 0x2748 JUMPI PUSH0 PUSH1 0x4 DUP5 DUP4 PUSH1 0x20 DUP2 LT PUSH2 0x2621 JUMPI PUSH2 0x2620 PUSH2 0x443F JUMP JUMPDEST JUMPDEST BYTE PUSH1 0xF8 SHL PUSH1 0xF8 SHR PUSH1 0xFF AND SWAP1 SHR SWAP1 POP PUSH0 PUSH1 0xF DUP6 DUP5 PUSH1 0x20 DUP2 LT PUSH2 0x2645 JUMPI PUSH2 0x2644 PUSH2 0x443F JUMP JUMPDEST JUMPDEST BYTE PUSH1 0xF8 SHL PUSH1 0xF8 SHR AND SWAP1 POP PUSH0 JUMPDEST PUSH1 0x4 DUP2 PUSH1 0xFF AND LT ISZERO PUSH2 0x273A JUMPI PUSH1 0x1 DUP2 PUSH1 0x3 PUSH2 0x266C SWAP2 SWAP1 PUSH2 0x4522 JUMP JUMPDEST PUSH1 0xFF AND DUP5 PUSH1 0xFF AND SWAP1 SHR AND DUP6 DUP3 PUSH1 0xFF AND PUSH1 0x4 DUP2 LT PUSH2 0x268C JUMPI PUSH2 0x268B PUSH2 0x443F JUMP JUMPDEST JUMPDEST PUSH1 0x20 MUL ADD MLOAD PUSH1 0x2 DUP7 PUSH2 0x269E SWAP2 SWAP1 PUSH2 0x3808 JUMP JUMPDEST PUSH1 0x40 DUP2 LT PUSH2 0x26AF JUMPI PUSH2 0x26AE PUSH2 0x443F JUMP JUMPDEST JUMPDEST PUSH1 0x20 MUL ADD SWAP1 PUSH1 0xFF AND SWAP1 DUP2 PUSH1 0xFF AND DUP2 MSTORE POP POP PUSH1 0x1 DUP2 PUSH1 0x3 PUSH2 0x26CF SWAP2 SWAP1 PUSH2 0x4522 JUMP JUMPDEST PUSH1 0xFF AND DUP4 PUSH1 0xFF AND SWAP1 SHR AND DUP6 DUP3 PUSH1 0xFF AND PUSH1 0x4 DUP2 LT PUSH2 0x26EF JUMPI PUSH2 0x26EE PUSH2 0x443F JUMP JUMPDEST JUMPDEST PUSH1 0x20 MUL ADD MLOAD PUSH1 0x1 PUSH1 0x2 DUP8 PUSH2 0x2703 SWAP2 SWAP1 PUSH2 0x3808 JUMP JUMPDEST PUSH2 0x270D SWAP2 SWAP1 PUSH2 0x376D JUMP JUMPDEST PUSH1 0x40 DUP2 LT PUSH2 0x271E JUMPI PUSH2 0x271D PUSH2 0x443F JUMP JUMPDEST JUMPDEST PUSH1 0x20 MUL ADD SWAP1 PUSH1 0xFF AND SWAP1 DUP2 PUSH1 0xFF AND DUP2 MSTORE POP POP DUP1 PUSH1 0x1 ADD SWAP1 POP PUSH2 0x2651 JUMP JUMPDEST POP POP POP DUP1 PUSH1 0x1 ADD SWAP1 POP PUSH2 0x2602 JUMP JUMPDEST POP SWAP2 SWAP1 POP JUMP JUMPDEST PUSH0 PUSH2 0x2757 PUSH2 0x2F59 JUMP JUMPDEST PUSH2 0x275F PUSH2 0x2F59 JUMP JUMPDEST PUSH0 DUP1 PUSH0 DUP5 PUSH0 PUSH2 0x100 DUP2 LT PUSH2 0x2776 JUMPI PUSH2 0x2775 PUSH2 0x443F JUMP JUMPDEST JUMPDEST PUSH1 0x20 MUL ADD SWAP1 PUSH2 0xFFFF AND SWAP1 DUP2 PUSH2 0xFFFF AND DUP2 MSTORE POP POP DUP6 PUSH1 0xFF AND DUP4 PUSH0 PUSH2 0x100 DUP2 LT PUSH2 0x27A1 JUMPI PUSH2 0x27A0 PUSH2 0x443F JUMP JUMPDEST JUMPDEST PUSH1 0x20 MUL ADD SWAP1 PUSH2 0xFFFF AND SWAP1 DUP2 PUSH2 0xFFFF AND DUP2 MSTORE POP POP PUSH1 0x1 SWAP1 POP JUMPDEST DUP1 DUP3 LT ISZERO PUSH2 0x2A2D JUMPI PUSH0 DUP5 DUP4 PUSH2 0x100 DUP2 LT PUSH2 0x27D6 JUMPI PUSH2 0x27D5 PUSH2 0x443F JUMP JUMPDEST JUMPDEST PUSH1 0x20 MUL ADD MLOAD SWAP1 POP PUSH0 DUP5 DUP5 PUSH2 0x100 DUP2 LT PUSH2 0x27F2 JUMPI PUSH2 0x27F1 PUSH2 0x443F JUMP JUMPDEST JUMPDEST PUSH1 0x20 MUL ADD MLOAD SWAP1 POP DUP4 DUP1 PUSH2 0x2804 SWAP1 PUSH2 0x4556 JUMP JUMPDEST SWAP5 POP POP DUP9 DUP3 PUSH2 0xFFFF AND PUSH1 0x4 DUP2 LT PUSH2 0x281E JUMPI PUSH2 0x281D PUSH2 0x443F JUMP JUMPDEST JUMPDEST PUSH1 0x20 MUL ADD MLOAD DUP2 PUSH2 0xFFFF AND PUSH1 0x40 DUP2 LT PUSH2 0x2839 JUMPI PUSH2 0x2838 PUSH2 0x443F JUMP JUMPDEST JUMPDEST PUSH1 0x20 MUL ADD MLOAD DUP1 PUSH2 0x2882 JUMPI POP PUSH0 DUP12 DUP4 PUSH2 0xFFFF AND PUSH1 0x4 DUP2 LT PUSH2 0x285C JUMPI PUSH2 0x285B PUSH2 0x443F JUMP JUMPDEST JUMPDEST PUSH1 0x20 MUL ADD MLOAD DUP3 PUSH2 0xFFFF AND PUSH1 0x40 DUP2 LT PUSH2 0x2877 JUMPI PUSH2 0x2876 PUSH2 0x443F JUMP JUMPDEST JUMPDEST PUSH1 0x20 MUL ADD MLOAD PUSH1 0xFF AND EQ ISZERO JUMPDEST ISZERO PUSH2 0x288E JUMPI POP POP PUSH2 0x27B9 JUMP JUMPDEST PUSH1 0x1 DUP10 DUP4 PUSH2 0xFFFF AND PUSH1 0x4 DUP2 LT PUSH2 0x28A7 JUMPI PUSH2 0x28A6 PUSH2 0x443F JUMP JUMPDEST JUMPDEST PUSH1 0x20 MUL ADD MLOAD DUP3 PUSH2 0xFFFF AND PUSH1 0x40 DUP2 LT PUSH2 0x28C2 JUMPI PUSH2 0x28C1 PUSH2 0x443F JUMP JUMPDEST JUMPDEST PUSH1 0x20 MUL ADD SWAP1 ISZERO ISZERO SWAP1 DUP2 ISZERO ISZERO DUP2 MSTORE POP POP PUSH1 0x3 DUP3 PUSH2 0xFFFF AND SUB PUSH2 0x28E2 JUMPI PUSH1 0x1 SWAP7 POP JUMPDEST PUSH0 PUSH1 0x40 MLOAD DUP1 PUSH1 0x80 ADD PUSH1 0x40 MSTORE DUP1 PUSH1 0x1 DUP6 PUSH2 0x28FB SWAP2 SWAP1 PUSH2 0x45AA JUMP JUMPDEST PUSH2 0xFFFF AND PUSH2 0xFFFF AND DUP2 MSTORE PUSH1 0x20 ADD PUSH0 DUP6 PUSH2 0xFFFF AND EQ PUSH2 0x2925 JUMPI PUSH1 0x1 DUP6 PUSH2 0x2920 SWAP2 SWAP1 PUSH2 0x45DF JUMP JUMPDEST PUSH2 0x2927 JUMP JUMPDEST PUSH0 JUMPDEST PUSH2 0xFFFF AND PUSH2 0xFFFF AND DUP2 MSTORE PUSH1 0x20 ADD DUP5 PUSH2 0xFFFF AND PUSH2 0xFFFF AND DUP2 MSTORE PUSH1 0x20 ADD DUP5 PUSH2 0xFFFF AND PUSH2 0xFFFF AND DUP2 MSTORE POP SWAP1 POP PUSH0 PUSH1 0x40 MLOAD DUP1 PUSH1 0x80 ADD PUSH1 0x40 MSTORE DUP1 DUP5 PUSH2 0xFFFF AND PUSH2 0xFFFF AND DUP2 MSTORE PUSH1 0x20 ADD DUP5 PUSH2 0xFFFF AND PUSH2 0xFFFF AND DUP2 MSTORE PUSH1 0x20 ADD PUSH1 0x40 PUSH1 0x1 DUP7 PUSH2 0x2987 SWAP2 SWAP1 PUSH2 0x45AA JUMP JUMPDEST PUSH2 0x2991 SWAP2 SWAP1 PUSH2 0x4614 JUMP JUMPDEST PUSH2 0xFFFF AND PUSH2 0xFFFF AND DUP2 MSTORE PUSH1 0x20 ADD PUSH1 0x40 PUSH1 0x3F DUP7 PUSH2 0x29AD SWAP2 SWAP1 PUSH2 0x45AA JUMP JUMPDEST PUSH2 0x29B7 SWAP2 SWAP1 PUSH2 0x4614 JUMP JUMPDEST PUSH2 0xFFFF AND PUSH2 0xFFFF AND DUP2 MSTORE POP SWAP1 POP PUSH0 JUMPDEST PUSH1 0x4 DUP2 PUSH1 0xFF AND LT ISZERO PUSH2 0x2A23 JUMPI PUSH2 0x2A16 DUP15 DUP15 DUP15 DUP13 DUP13 DUP9 DUP8 PUSH1 0xFF AND PUSH1 0x4 DUP2 LT PUSH2 0x29F0 JUMPI PUSH2 0x29EF PUSH2 0x443F JUMP JUMPDEST JUMPDEST PUSH1 0x20 MUL ADD MLOAD DUP9 DUP9 PUSH1 0xFF AND PUSH1 0x4 DUP2 LT PUSH2 0x2A0B JUMPI PUSH2 0x2A0A PUSH2 0x443F JUMP JUMPDEST JUMPDEST PUSH1 0x20 MUL ADD MLOAD DUP14 PUSH2 0x2DA6 JUMP JUMPDEST SWAP6 POP DUP1 PUSH1 0x1 ADD SWAP1 POP PUSH2 0x29C6 JUMP JUMPDEST POP POP POP POP POP PUSH2 0x27B9 JUMP JUMPDEST POP POP POP POP SWAP5 SWAP4 POP POP POP POP JUMP JUMPDEST PUSH0 DUP1 PUSH0 SWAP1 POP PUSH27 0x184F03E93FF9F4DAA797ED6E38ED64BF6A1F010000000000000000 DUP4 LT PUSH2 0x2A95 JUMPI PUSH27 0x184F03E93FF9F4DAA797ED6E38ED64BF6A1F010000000000000000 DUP4 DUP2 PUSH2 0x2A8B JUMPI PUSH2 0x2A8A PUSH2 0x3849 JUMP JUMPDEST JUMPDEST DIV SWAP3 POP PUSH1 0x40 DUP2 ADD SWAP1 POP JUMPDEST PUSH14 0x4EE2D6D415B85ACEF8100000000 DUP4 LT PUSH2 0x2AD2 JUMPI PUSH14 0x4EE2D6D415B85ACEF8100000000 DUP4 DUP2 PUSH2 0x2AC8 JUMPI PUSH2 0x2AC7 PUSH2 0x3849 JUMP JUMPDEST JUMPDEST DIV SWAP3 POP PUSH1 0x20 DUP2 ADD SWAP1 POP JUMPDEST PUSH7 0x2386F26FC10000 DUP4 LT PUSH2 0x2B01 JUMPI PUSH7 0x2386F26FC10000 DUP4 DUP2 PUSH2 0x2AF7 JUMPI PUSH2 0x2AF6 PUSH2 0x3849 JUMP JUMPDEST JUMPDEST DIV SWAP3 POP PUSH1 0x10 DUP2 ADD SWAP1 POP JUMPDEST PUSH4 0x5F5E100 DUP4 LT PUSH2 0x2B2A JUMPI PUSH4 0x5F5E100 DUP4 DUP2 PUSH2 0x2B20 JUMPI PUSH2 0x2B1F PUSH2 0x3849 JUMP JUMPDEST JUMPDEST DIV SWAP3 POP PUSH1 0x8 DUP2 ADD SWAP1 POP JUMPDEST PUSH2 0x2710 DUP4 LT PUSH2 0x2B4F JUMPI PUSH2 0x2710 DUP4 DUP2 PUSH2 0x2B45 JUMPI PUSH2 0x2B44 PUSH2 0x3849 JUMP JUMPDEST JUMPDEST DIV SWAP3 POP PUSH1 0x4 DUP2 ADD SWAP1 POP JUMPDEST PUSH1 0x64 DUP4 LT PUSH2 0x2B72 JUMPI PUSH1 0x64 DUP4 DUP2 PUSH2 0x2B68 JUMPI PUSH2 0x2B67 PUSH2 0x3849 JUMP JUMPDEST JUMPDEST DIV SWAP3 POP PUSH1 0x2 DUP2 ADD SWAP1 POP JUMPDEST PUSH1 0xA DUP4 LT PUSH2 0x2B81 JUMPI PUSH1 0x1 DUP2 ADD SWAP1 POP JUMPDEST DUP1 SWAP2 POP POP SWAP2 SWAP1 POP JUMP JUMPDEST PUSH0 PUSH32 0x1FFC9A700000000000000000000000000000000000000000000000000000000 PUSH28 0xFFFFFFFFFFFFFFFFFFFFFFFFFFFFFFFFFFFFFFFFFFFFFFFFFFFFFFFF NOT AND DUP3 PUSH28 0xFFFFFFFFFFFFFFFFFFFFFFFFFFFFFFFFFFFFFFFFFFFFFFFFFFFFFFFF NOT AND EQ SWAP1 POP SWAP2 SWAP1 POP JUMP JUMPDEST PUSH0 PUSH20 0xFFFFFFFFFFFFFFFFFFFFFFFFFFFFFFFFFFFFFFFF AND DUP3 PUSH20 0xFFFFFFFFFFFFFFFFFFFFFFFFFFFFFFFFFFFFFFFF AND SUB PUSH2 0x2C63 JUMPI PUSH0 PUSH1 0x40 MLOAD PUSH32 0x64A0AE9200000000000000000000000000000000000000000000000000000000 DUP2 MSTORE PUSH1 0x4 ADD PUSH2 0x2C5A SWAP2 SWAP1 PUSH2 0x31B4 JUMP JUMPDEST PUSH1 0x40 MLOAD DUP1 SWAP2 SUB SWAP1 REVERT JUMPDEST PUSH0 PUSH2 0x2C6F DUP4 DUP4 PUSH0 PUSH2 0x12F9 JUMP JUMPDEST SWAP1 POP PUSH0 PUSH20 0xFFFFFFFFFFFFFFFFFFFFFFFFFFFFFFFFFFFFFFFF AND DUP2 PUSH20 0xFFFFFFFFFFFFFFFFFFFFFFFFFFFFFFFFFFFFFFFF AND EQ PUSH2 0x2CE1 JUMPI PUSH0 PUSH1 0x40 MLOAD PUSH32 0x73C6AC6E00000000000000000000000000000000000000000000000000000000 DUP2 MSTORE PUSH1 0x4 ADD PUSH2 0x2CD8 SWAP2 SWAP1 PUSH2 0x31B4 JUMP JUMPDEST PUSH1 0x40 MLOAD DUP1 SWAP2 SUB SWAP1 REVERT JUMPDEST POP POP POP JUMP JUMPDEST PUSH0 DUP1 PUSH20 0xFFFFFFFFFFFFFFFFFFFFFFFFFFFFFFFFFFFFFFFF AND DUP4 PUSH20 0xFFFFFFFFFFFFFFFFFFFFFFFFFFFFFFFFFFFFFFFF AND EQ ISZERO DUP1 ISZERO PUSH2 0x2D9D JUMPI POP DUP3 PUSH20 0xFFFFFFFFFFFFFFFFFFFFFFFFFFFFFFFFFFFFFFFF AND DUP5 PUSH20 0xFFFFFFFFFFFFFFFFFFFFFFFFFFFFFFFFFFFFFFFF AND EQ DUP1 PUSH2 0x2D5E JUMPI POP PUSH2 0x2D5D DUP5 DUP5 PUSH2 0x1035 JUMP JUMPDEST JUMPDEST DUP1 PUSH2 0x2D9C JUMPI POP DUP3 PUSH20 0xFFFFFFFFFFFFFFFFFFFFFFFFFFFFFFFFFFFFFFFF AND PUSH2 0x2D84 DUP4 PUSH2 0x1246 JUMP JUMPDEST PUSH20 0xFFFFFFFFFFFFFFFFFFFFFFFFFFFFFFFFFFFFFFFF AND EQ JUMPDEST JUMPDEST SWAP1 POP SWAP4 SWAP3 POP POP POP JUMP JUMPDEST PUSH0 PUSH1 0x4 DUP5 PUSH2 0xFFFF AND LT ISZERO DUP1 PUSH2 0x2DC0 JUMPI POP PUSH1 0x40 DUP4 PUSH2 0xFFFF AND LT ISZERO JUMPDEST ISZERO PUSH2 0x2DCD JUMPI DUP2 SWAP1 POP PUSH2 0x2EF3 JUMP JUMPDEST DUP7 DUP5 PUSH2 0xFFFF AND PUSH1 0x4 DUP2 LT PUSH2 0x2DE4 JUMPI PUSH2 0x2DE3 PUSH2 0x443F JUMP JUMPDEST JUMPDEST PUSH1 0x20 MUL ADD MLOAD DUP4 PUSH2 0xFFFF AND PUSH1 0x40 DUP2 LT PUSH2 0x2DFF JUMPI PUSH2 0x2DFE PUSH2 0x443F JUMP JUMPDEST JUMPDEST PUSH1 0x20 MUL ADD MLOAD DUP1 PUSH2 0x2E42 JUMPI POP DUP8 DUP5 PUSH2 0xFFFF AND PUSH1 0x4 DUP2 LT PUSH2 0x2E21 JUMPI PUSH2 0x2E20 PUSH2 0x443F JUMP JUMPDEST JUMPDEST PUSH1 0x20 MUL ADD MLOAD DUP4 PUSH2 0xFFFF AND PUSH1 0x40 DUP2 LT PUSH2 0x2E3C JUMPI PUSH2 0x2E3B PUSH2 0x443F JUMP JUMPDEST JUMPDEST PUSH1 0x20 MUL ADD MLOAD JUMPDEST DUP1 PUSH2 0x2E86 JUMPI POP PUSH0 DUP10 DUP6 PUSH2 0xFFFF AND PUSH1 0x4 DUP2 LT PUSH2 0x2E60 JUMPI PUSH2 0x2E5F PUSH2 0x443F JUMP JUMPDEST JUMPDEST PUSH1 0x20 MUL ADD MLOAD DUP5 PUSH2 0xFFFF AND PUSH1 0x40 DUP2 LT PUSH2 0x2E7B JUMPI PUSH2 0x2E7A PUSH2 0x443F JUMP JUMPDEST JUMPDEST PUSH1 0x20 MUL ADD MLOAD PUSH1 0xFF AND EQ ISZERO JUMPDEST ISZERO PUSH2 0x2E93 JUMPI DUP2 SWAP1 POP PUSH2 0x2EF3 JUMP JUMPDEST DUP4 DUP7 DUP4 PUSH2 0x100 DUP2 LT PUSH2 0x2EA8 JUMPI PUSH2 0x2EA7 PUSH2 0x443F JUMP JUMPDEST JUMPDEST PUSH1 0x20 MUL ADD SWAP1 PUSH2 0xFFFF AND SWAP1 DUP2 PUSH2 0xFFFF AND DUP2 MSTORE POP POP DUP3 DUP6 DUP4 PUSH2 0x100 DUP2 LT PUSH2 0x2ED0 JUMPI PUSH2 0x2ECF PUSH2 0x443F JUMP JUMPDEST JUMPDEST PUSH1 0x20 MUL ADD SWAP1 PUSH2 0xFFFF AND SWAP1 DUP2 PUSH2 0xFFFF AND DUP2 MSTORE POP POP PUSH1 0x1 DUP3 PUSH2 0x2EF0 SWAP2 SWAP1 PUSH2 0x376D JUMP JUMPDEST SWAP1 POP JUMPDEST SWAP9 SWAP8 POP POP POP POP POP POP POP POP JUMP JUMPDEST PUSH1 0x40 MLOAD DUP1 PUSH1 0x80 ADD PUSH1 0x40 MSTORE DUP1 PUSH1 0x4 SWAP1 JUMPDEST PUSH2 0x2F16 PUSH2 0x2F7D JUMP JUMPDEST DUP2 MSTORE PUSH1 0x20 ADD SWAP1 PUSH1 0x1 SWAP1 SUB SWAP1 DUP2 PUSH2 0x2F0E JUMPI SWAP1 POP POP SWAP1 JUMP JUMPDEST PUSH1 0x40 MLOAD DUP1 PUSH1 0x80 ADD PUSH1 0x40 MSTORE DUP1 PUSH1 0x4 SWAP1 JUMPDEST PUSH2 0x2F43 PUSH2 0x2FA0 JUMP JUMPDEST DUP2 MSTORE PUSH1 0x20 ADD SWAP1 PUSH1 0x1 SWAP1 SUB SWAP1 DUP2 PUSH2 0x2F3B JUMPI SWAP1 POP POP SWAP1 JUMP JUMPDEST PUSH1 0x40 MLOAD DUP1 PUSH2 0x2000 ADD PUSH1 0x40 MSTORE DUP1 PUSH2 0x100 SWAP1 PUSH1 0x20 DUP3 MUL DUP1 CALLDATASIZE DUP4 CALLDATACOPY DUP1 DUP3 ADD SWAP2 POP POP SWAP1 POP POP SWAP1 JUMP JUMPDEST PUSH1 0x40 MLOAD DUP1 PUSH2 0x800 ADD PUSH1 0x40 MSTORE DUP1 PUSH1 0x40 SWAP1 PUSH1 0x20 DUP3 MUL DUP1 CALLDATASIZE DUP4 CALLDATACOPY DUP1 DUP3 ADD SWAP2 POP POP SWAP1 POP POP SWAP1 JUMP JUMPDEST PUSH1 0x40 MLOAD DUP1 PUSH2 0x800 ADD PUSH1 0x40 MSTORE DUP1 PUSH1 0x40 SWAP1 PUSH1 0x20 DUP3 MUL DUP1 CALLDATASIZE DUP4 CALLDATACOPY DUP1 DUP3 ADD SWAP2 POP POP SWAP1 POP POP SWAP1 JUMP JUMPDEST PUSH0 PUSH1 0x40 MLOAD SWAP1 POP SWAP1 JUMP JUMPDEST PUSH0 DUP1 REVERT JUMPDEST PUSH0 DUP1 REVERT JUMPDEST PUSH0 PUSH32 0xFFFFFFFF00000000000000000000000000000000000000000000000000000000 DUP3 AND SWAP1 POP SWAP2 SWAP1 POP JUMP JUMPDEST PUSH2 0x3008 DUP2 PUSH2 0x2FD4 JUMP JUMPDEST DUP2 EQ PUSH2 0x3012 JUMPI PUSH0 DUP1 REVERT JUMPDEST POP JUMP JUMPDEST PUSH0 DUP2 CALLDATALOAD SWAP1 POP PUSH2 0x3023 DUP2 PUSH2 0x2FFF JUMP JUMPDEST SWAP3 SWAP2 POP POP JUMP JUMPDEST PUSH0 PUSH1 0x20 DUP3 DUP5 SUB SLT ISZERO PUSH2 0x303E JUMPI PUSH2 0x303D PUSH2 0x2FCC JUMP JUMPDEST JUMPDEST PUSH0 PUSH2 0x304B DUP5 DUP3 DUP6 ADD PUSH2 0x3015 JUMP JUMPDEST SWAP2 POP POP SWAP3 SWAP2 POP POP JUMP JUMPDEST PUSH0 DUP2 ISZERO ISZERO SWAP1 POP SWAP2 SWAP1 POP JUMP JUMPDEST PUSH2 0x3068 DUP2 PUSH2 0x3054 JUMP JUMPDEST DUP3 MSTORE POP POP JUMP JUMPDEST PUSH0 PUSH1 0x20 DUP3 ADD SWAP1 POP PUSH2 0x3081 PUSH0 DUP4 ADD DUP5 PUSH2 0x305F JUMP JUMPDEST SWAP3 SWAP2 POP POP JUMP JUMPDEST PUSH0 DUP2 MLOAD SWAP1 POP SWAP2 SWAP1 POP JUMP JUMPDEST PUSH0 DUP3 DUP3 MSTORE PUSH1 0x20 DUP3 ADD SWAP1 POP SWAP3 SWAP2 POP POP JUMP JUMPDEST DUP3 DUP2 DUP4 MCOPY PUSH0 DUP4 DUP4 ADD MSTORE POP POP POP JUMP JUMPDEST PUSH0 PUSH1 0x1F NOT PUSH1 0x1F DUP4 ADD AND SWAP1 POP SWAP2 SWAP1 POP JUMP JUMPDEST PUSH0 PUSH2 0x30C9 DUP3 PUSH2 0x3087 JUMP JUMPDEST PUSH2 0x30D3 DUP2 DUP6 PUSH2 0x3091 JUMP JUMPDEST SWAP4 POP PUSH2 0x30E3 DUP2 DUP6 PUSH1 0x20 DUP7 ADD PUSH2 0x30A1 JUMP JUMPDEST PUSH2 0x30EC DUP2 PUSH2 0x30AF JUMP JUMPDEST DUP5 ADD SWAP2 POP POP SWAP3 SWAP2 POP POP JUMP JUMPDEST PUSH0 PUSH1 0x20 DUP3 ADD SWAP1 POP DUP2 DUP2 SUB PUSH0 DUP4 ADD MSTORE PUSH2 0x310F DUP2 DUP5 PUSH2 0x30BF JUMP JUMPDEST SWAP1 POP SWAP3 SWAP2 POP POP JUMP JUMPDEST PUSH0 DUP2 SWAP1 POP SWAP2 SWAP1 POP JUMP JUMPDEST PUSH2 0x3129 DUP2 PUSH2 0x3117 JUMP JUMPDEST DUP2 EQ PUSH2 0x3133 JUMPI PUSH0 DUP1 REVERT JUMPDEST POP JUMP JUMPDEST PUSH0 DUP2 CALLDATALOAD SWAP1 POP PUSH2 0x3144 DUP2 PUSH2 0x3120 JUMP JUMPDEST SWAP3 SWAP2 POP POP JUMP JUMPDEST PUSH0 PUSH1 0x20 DUP3 DUP5 SUB SLT ISZERO PUSH2 0x315F JUMPI PUSH2 0x315E PUSH2 0x2FCC JUMP JUMPDEST JUMPDEST PUSH0 PUSH2 0x316C DUP5 DUP3 DUP6 ADD PUSH2 0x3136 JUMP JUMPDEST SWAP2 POP POP SWAP3 SWAP2 POP POP JUMP JUMPDEST PUSH0 PUSH20 0xFFFFFFFFFFFFFFFFFFFFFFFFFFFFFFFFFFFFFFFF DUP3 AND SWAP1 POP SWAP2 SWAP1 POP JUMP JUMPDEST PUSH0 PUSH2 0x319E DUP3 PUSH2 0x3175 JUMP JUMPDEST SWAP1 POP SWAP2 SWAP1 POP JUMP JUMPDEST PUSH2 0x31AE DUP2 PUSH2 0x3194 JUMP JUMPDEST DUP3 MSTORE POP POP JUMP JUMPDEST PUSH0 PUSH1 0x20 DUP3 ADD SWAP1 POP PUSH2 0x31C7 PUSH0 DUP4 ADD DUP5 PUSH2 0x31A5 JUMP JUMPDEST SWAP3 SWAP2 POP POP JUMP JUMPDEST PUSH2 0x31D6 DUP2 PUSH2 0x3194 JUMP JUMPDEST DUP2 EQ PUSH2 0x31E0 JUMPI PUSH0 DUP1 REVERT JUMPDEST POP JUMP JUMPDEST PUSH0 DUP2 CALLDATALOAD SWAP1 POP PUSH2 0x31F1 DUP2 PUSH2 0x31CD JUMP JUMPDEST SWAP3 SWAP2 POP POP JUMP JUMPDEST PUSH0 DUP1 PUSH1 0x40 DUP4 DUP6 SUB SLT ISZERO PUSH2 0x320D JUMPI PUSH2 0x320C PUSH2 0x2FCC JUMP JUMPDEST JUMPDEST PUSH0 PUSH2 0x321A DUP6 DUP3 DUP7 ADD PUSH2 0x31E3 JUMP JUMPDEST SWAP3 POP POP PUSH1 0x20 PUSH2 0x322B DUP6 DUP3 DUP7 ADD PUSH2 0x3136 JUMP JUMPDEST SWAP2 POP POP SWAP3 POP SWAP3 SWAP1 POP JUMP JUMPDEST PUSH2 0x323E DUP2 PUSH2 0x3117 JUMP JUMPDEST DUP3 MSTORE POP POP JUMP JUMPDEST PUSH0 PUSH1 0x20 DUP3 ADD SWAP1 POP PUSH2 0x3257 PUSH0 DUP4 ADD DUP5 PUSH2 0x3235 JUMP JUMPDEST SWAP3 SWAP2 POP POP JUMP JUMPDEST PUSH0 DUP1 PUSH0 PUSH1 0x60 DUP5 DUP7 SUB SLT ISZERO PUSH2 0x3274 JUMPI PUSH2 0x3273 PUSH2 0x2FCC JUMP JUMPDEST JUMPDEST PUSH0 PUSH2 0x3281 DUP7 DUP3 DUP8 ADD PUSH2 0x31E3 JUMP JUMPDEST SWAP4 POP POP PUSH1 0x20 PUSH2 0x3292 DUP7 DUP3 DUP8 ADD PUSH2 0x31E3 JUMP JUMPDEST SWAP3 POP POP PUSH1 0x40 PUSH2 0x32A3 DUP7 DUP3 DUP8 ADD PUSH2 0x3136 JUMP JUMPDEST SWAP2 POP POP SWAP3 POP SWAP3 POP SWAP3 JUMP JUMPDEST PUSH0 DUP1 PUSH1 0x40 DUP4 DUP6 SUB SLT ISZERO PUSH2 0x32C3 JUMPI PUSH2 0x32C2 PUSH2 0x2FCC JUMP JUMPDEST JUMPDEST PUSH0 PUSH2 0x32D0 DUP6 DUP3 DUP7 ADD PUSH2 0x3136 JUMP JUMPDEST SWAP3 POP POP PUSH1 0x20 PUSH2 0x32E1 DUP6 DUP3 DUP7 ADD PUSH2 0x3136 JUMP JUMPDEST SWAP2 POP POP SWAP3 POP SWAP3 SWAP1 POP JUMP JUMPDEST PUSH0 PUSH1 0x40 DUP3 ADD SWAP1 POP PUSH2 0x32FE PUSH0 DUP4 ADD DUP6 PUSH2 0x31A5 JUMP JUMPDEST PUSH2 0x330B PUSH1 0x20 DUP4 ADD DUP5 PUSH2 0x3235 JUMP JUMPDEST SWAP4 SWAP3 POP POP POP JUMP JUMPDEST PUSH0 PUSH12 0xFFFFFFFFFFFFFFFFFFFFFFFF DUP3 AND SWAP1 POP SWAP2 SWAP1 POP JUMP JUMPDEST PUSH2 0x3332 DUP2 PUSH2 0x3312 JUMP JUMPDEST DUP3 MSTORE POP POP JUMP JUMPDEST PUSH0 PUSH1 0x20 DUP3 ADD SWAP1 POP PUSH2 0x334B PUSH0 DUP4 ADD DUP5 PUSH2 0x3329 JUMP JUMPDEST SWAP3 SWAP2 POP POP JUMP JUMPDEST PUSH0 PUSH2 0x335B DUP3 PUSH2 0x3175 JUMP JUMPDEST SWAP1 POP SWAP2 SWAP1 POP JUMP JUMPDEST PUSH2 0x336B DUP2 PUSH2 0x3351 JUMP JUMPDEST DUP3 MSTORE POP POP JUMP JUMPDEST PUSH0 PUSH1 0x20 DUP3 ADD SWAP1 POP PUSH2 0x3384 PUSH0 DUP4 ADD DUP5 PUSH2 0x3362 JUMP JUMPDEST SWAP3 SWAP2 POP POP JUMP JUMPDEST PUSH0 PUSH1 0x20 DUP3 DUP5 SUB SLT ISZERO PUSH2 0x339F JUMPI PUSH2 0x339E PUSH2 0x2FCC JUMP JUMPDEST JUMPDEST PUSH0 PUSH2 0x33AC DUP5 DUP3 DUP6 ADD PUSH2 0x31E3 JUMP JUMPDEST SWAP2 POP POP SWAP3 SWAP2 POP POP JUMP JUMPDEST PUSH0 DUP2 SWAP1 POP SWAP2 SWAP1 POP JUMP JUMPDEST PUSH0 PUSH2 0x33D8 PUSH2 0x33D3 PUSH2 0x33CE DUP5 PUSH2 0x3175 JUMP JUMPDEST PUSH2 0x33B5 JUMP JUMPDEST PUSH2 0x3175 JUMP JUMPDEST SWAP1 POP SWAP2 SWAP1 POP JUMP JUMPDEST PUSH0 PUSH2 0x33E9 DUP3 PUSH2 0x33BE JUMP JUMPDEST SWAP1 POP SWAP2 SWAP1 POP JUMP JUMPDEST PUSH0 PUSH2 0x33FA DUP3 PUSH2 0x33DF JUMP JUMPDEST SWAP1 POP SWAP2 SWAP1 POP JUMP JUMPDEST PUSH2 0x340A DUP2 PUSH2 0x33F0 JUMP JUMPDEST DUP3 MSTORE POP POP JUMP JUMPDEST PUSH0 PUSH1 0x20 DUP3 ADD SWAP1 POP PUSH2 0x3423 PUSH0 DUP4 ADD DUP5 PUSH2 0x3401 JUMP JUMPDEST SWAP3 SWAP2 POP POP JUMP JUMPDEST PUSH2 0x3432 DUP2 PUSH2 0x3312 JUMP JUMPDEST DUP2 EQ PUSH2 0x343C JUMPI PUSH0 DUP1 REVERT JUMPDEST POP JUMP JUMPDEST PUSH0 DUP2 CALLDATALOAD SWAP1 POP PUSH2 0x344D DUP2 PUSH2 0x3429 JUMP JUMPDEST SWAP3 SWAP2 POP POP JUMP JUMPDEST PUSH0 DUP1 PUSH1 0x40 DUP4 DUP6 SUB SLT ISZERO PUSH2 0x3469 JUMPI PUSH2 0x3468 PUSH2 0x2FCC JUMP JUMPDEST JUMPDEST PUSH0 PUSH2 0x3476 DUP6 DUP3 DUP7 ADD PUSH2 0x31E3 JUMP JUMPDEST SWAP3 POP POP PUSH1 0x20 PUSH2 0x3487 DUP6 DUP3 DUP7 ADD PUSH2 0x343F JUMP JUMPDEST SWAP2 POP POP SWAP3 POP SWAP3 SWAP1 POP JUMP JUMPDEST PUSH2 0x349A DUP2 PUSH2 0x3054 JUMP JUMPDEST DUP2 EQ PUSH2 0x34A4 JUMPI PUSH0 DUP1 REVERT JUMPDEST POP JUMP JUMPDEST PUSH0 DUP2 CALLDATALOAD SWAP1 POP PUSH2 0x34B5 DUP2 PUSH2 0x3491 JUMP JUMPDEST SWAP3 SWAP2 POP POP JUMP JUMPDEST PUSH0 DUP1 PUSH1 0x40 DUP4 DUP6 SUB SLT ISZERO PUSH2 0x34D1 JUMPI PUSH2 0x34D0 PUSH2 0x2FCC JUMP JUMPDEST JUMPDEST PUSH0 PUSH2 0x34DE DUP6 DUP3 DUP7 ADD PUSH2 0x31E3 JUMP JUMPDEST SWAP3 POP POP PUSH1 0x20 PUSH2 0x34EF DUP6 DUP3 DUP7 ADD PUSH2 0x34A7 JUMP JUMPDEST SWAP2 POP POP SWAP3 POP SWAP3 SWAP1 POP JUMP JUMPDEST PUSH0 DUP1 REVERT JUMPDEST PUSH0 DUP1 REVERT JUMPDEST PUSH32 0x4E487B7100000000000000000000000000000000000000000000000000000000 PUSH0 MSTORE PUSH1 0x41 PUSH1 0x4 MSTORE PUSH1 0x24 PUSH0 REVERT JUMPDEST PUSH2 0x3537 DUP3 PUSH2 0x30AF JUMP JUMPDEST DUP2 ADD DUP2 DUP2 LT PUSH8 0xFFFFFFFFFFFFFFFF DUP3 GT OR ISZERO PUSH2 0x3556 JUMPI PUSH2 0x3555 PUSH2 0x3501 JUMP JUMPDEST JUMPDEST DUP1 PUSH1 0x40 MSTORE POP POP POP JUMP JUMPDEST PUSH0 PUSH2 0x3568 PUSH2 0x2FC3 JUMP JUMPDEST SWAP1 POP PUSH2 0x3574 DUP3 DUP3 PUSH2 0x352E JUMP JUMPDEST SWAP2 SWAP1 POP JUMP JUMPDEST PUSH0 PUSH8 0xFFFFFFFFFFFFFFFF DUP3 GT ISZERO PUSH2 0x3593 JUMPI PUSH2 0x3592 PUSH2 0x3501 JUMP JUMPDEST JUMPDEST PUSH2 0x359C DUP3 PUSH2 0x30AF JUMP JUMPDEST SWAP1 POP PUSH1 0x20 DUP2 ADD SWAP1 POP SWAP2 SWAP1 POP JUMP JUMPDEST DUP3 DUP2 DUP4 CALLDATACOPY PUSH0 DUP4 DUP4 ADD MSTORE POP POP POP JUMP JUMPDEST PUSH0 PUSH2 0x35C9 PUSH2 0x35C4 DUP5 PUSH2 0x3579 JUMP JUMPDEST PUSH2 0x355F JUMP JUMPDEST SWAP1 POP DUP3 DUP2 MSTORE PUSH1 0x20 DUP2 ADD DUP5 DUP5 DUP5 ADD GT ISZERO PUSH2 0x35E5 JUMPI PUSH2 0x35E4 PUSH2 0x34FD JUMP JUMPDEST JUMPDEST PUSH2 0x35F0 DUP5 DUP3 DUP6 PUSH2 0x35A9 JUMP JUMPDEST POP SWAP4 SWAP3 POP POP POP JUMP JUMPDEST PUSH0 DUP3 PUSH1 0x1F DUP4 ADD SLT PUSH2 0x360C JUMPI PUSH2 0x360B PUSH2 0x34F9 JUMP JUMPDEST JUMPDEST DUP2 CALLDATALOAD PUSH2 0x361C DUP5 DUP3 PUSH1 0x20 DUP7 ADD PUSH2 0x35B7 JUMP JUMPDEST SWAP2 POP POP SWAP3 SWAP2 POP POP JUMP JUMPDEST PUSH0 DUP1 PUSH0 DUP1 PUSH1 0x80 DUP6 DUP8 SUB SLT ISZERO PUSH2 0x363D JUMPI PUSH2 0x363C PUSH2 0x2FCC JUMP JUMPDEST JUMPDEST PUSH0 PUSH2 0x364A DUP8 DUP3 DUP9 ADD PUSH2 0x31E3 JUMP JUMPDEST SWAP5 POP POP PUSH1 0x20 PUSH2 0x365B DUP8 DUP3 DUP9 ADD PUSH2 0x31E3 JUMP JUMPDEST SWAP4 POP POP PUSH1 0x40 PUSH2 0x366C DUP8 DUP3 DUP9 ADD PUSH2 0x3136 JUMP JUMPDEST SWAP3 POP POP PUSH1 0x60 DUP6 ADD CALLDATALOAD PUSH8 0xFFFFFFFFFFFFFFFF DUP2 GT ISZERO PUSH2 0x368D JUMPI PUSH2 0x368C PUSH2 0x2FD0 JUMP JUMPDEST JUMPDEST PUSH2 0x3699 DUP8 DUP3 DUP9 ADD PUSH2 0x35F8 JUMP JUMPDEST SWAP2 POP POP SWAP3 SWAP6 SWAP2 SWAP5 POP SWAP3 POP JUMP JUMPDEST PUSH0 DUP1 PUSH1 0x40 DUP4 DUP6 SUB SLT ISZERO PUSH2 0x36BB JUMPI PUSH2 0x36BA PUSH2 0x2FCC JUMP JUMPDEST JUMPDEST PUSH0 PUSH2 0x36C8 DUP6 DUP3 DUP7 ADD PUSH2 0x31E3 JUMP JUMPDEST SWAP3 POP POP PUSH1 0x20 PUSH2 0x36D9 DUP6 DUP3 DUP7 ADD PUSH2 0x31E3 JUMP JUMPDEST SWAP2 POP POP SWAP3 POP SWAP3 SWAP1 POP JUMP JUMPDEST PUSH32 0x4E487B7100000000000000000000000000000000000000000000000000000000 PUSH0 MSTORE PUSH1 0x22 PUSH1 0x4 MSTORE PUSH1 0x24 PUSH0 REVERT JUMPDEST PUSH0 PUSH1 0x2 DUP3 DIV SWAP1 POP PUSH1 0x1 DUP3 AND DUP1 PUSH2 0x3727 JUMPI PUSH1 0x7F DUP3 AND SWAP2 POP JUMPDEST PUSH1 0x20 DUP3 LT DUP2 SUB PUSH2 0x373A JUMPI PUSH2 0x3739 PUSH2 0x36E3 JUMP JUMPDEST JUMPDEST POP SWAP2 SWAP1 POP JUMP JUMPDEST PUSH32 0x4E487B7100000000000000000000000000000000000000000000000000000000 PUSH0 MSTORE PUSH1 0x11 PUSH1 0x4 MSTORE PUSH1 0x24 PUSH0 REVERT JUMPDEST PUSH0 PUSH2 0x3777 DUP3 PUSH2 0x3117 JUMP JUMPDEST SWAP2 POP PUSH2 0x3782 DUP4 PUSH2 0x3117 JUMP JUMPDEST SWAP3 POP DUP3 DUP3 ADD SWAP1 POP DUP1 DUP3 GT ISZERO PUSH2 0x379A JUMPI PUSH2 0x3799 PUSH2 0x3740 JUMP JUMPDEST JUMPDEST SWAP3 SWAP2 POP POP JUMP JUMPDEST PUSH0 PUSH2 0x37AA DUP3 PUSH2 0x3117 JUMP JUMPDEST SWAP2 POP PUSH2 0x37B5 DUP4 PUSH2 0x3117 JUMP JUMPDEST SWAP3 POP DUP3 DUP3 SUB SWAP1 POP DUP2 DUP2 GT ISZERO PUSH2 0x37CD JUMPI PUSH2 0x37CC PUSH2 0x3740 JUMP JUMPDEST JUMPDEST SWAP3 SWAP2 POP POP JUMP JUMPDEST PUSH0 PUSH1 0x60 DUP3 ADD SWAP1 POP PUSH2 0x37E6 PUSH0 DUP4 ADD DUP7 PUSH2 0x31A5 JUMP JUMPDEST PUSH2 0x37F3 PUSH1 0x20 DUP4 ADD DUP6 PUSH2 0x3235 JUMP JUMPDEST PUSH2 0x3800 PUSH1 0x40 DUP4 ADD DUP5 PUSH2 0x31A5 JUMP JUMPDEST SWAP5 SWAP4 POP POP POP POP JUMP JUMPDEST PUSH0 PUSH2 0x3812 DUP3 PUSH2 0x3117 JUMP JUMPDEST SWAP2 POP PUSH2 0x381D DUP4 PUSH2 0x3117 JUMP JUMPDEST SWAP3 POP DUP3 DUP3 MUL PUSH2 0x382B DUP2 PUSH2 0x3117 JUMP JUMPDEST SWAP2 POP DUP3 DUP3 DIV DUP5 EQ DUP4 ISZERO OR PUSH2 0x3842 JUMPI PUSH2 0x3841 PUSH2 0x3740 JUMP JUMPDEST JUMPDEST POP SWAP3 SWAP2 POP POP JUMP JUMPDEST PUSH32 0x4E487B7100000000000000000000000000000000000000000000000000000000 PUSH0 MSTORE PUSH1 0x12 PUSH1 0x4 MSTORE PUSH1 0x24 PUSH0 REVERT JUMPDEST PUSH0 PUSH2 0x3880 DUP3 PUSH2 0x3117 JUMP JUMPDEST SWAP2 POP PUSH2 0x388B DUP4 PUSH2 0x3117 JUMP JUMPDEST SWAP3 POP DUP3 PUSH2 0x389B JUMPI PUSH2 0x389A PUSH2 0x3849 JUMP JUMPDEST JUMPDEST DUP3 DUP3 DIV SWAP1 POP SWAP3 SWAP2 POP POP JUMP JUMPDEST PUSH0 DUP2 SWAP1 POP SWAP3 SWAP2 POP POP JUMP JUMPDEST POP JUMP JUMPDEST PUSH0 PUSH2 0x38BE PUSH0 DUP4 PUSH2 0x38A6 JUMP JUMPDEST SWAP2 POP PUSH2 0x38C9 DUP3 PUSH2 0x38B0 JUMP JUMPDEST PUSH0 DUP3 ADD SWAP1 POP SWAP2 SWAP1 POP JUMP JUMPDEST PUSH0 PUSH2 0x38DD DUP3 PUSH2 0x38B3 JUMP JUMPDEST SWAP2 POP DUP2 SWAP1 POP SWAP2 SWAP1 POP JUMP JUMPDEST PUSH32 0x5769746864726177206661696C65640000000000000000000000000000000000 PUSH0 DUP3 ADD MSTORE POP JUMP JUMPDEST PUSH0 PUSH2 0x391B PUSH1 0xF DUP4 PUSH2 0x3091 JUMP JUMPDEST SWAP2 POP PUSH2 0x3926 DUP3 PUSH2 0x38E7 JUMP JUMPDEST PUSH1 0x20 DUP3 ADD SWAP1 POP SWAP2 SWAP1 POP JUMP JUMPDEST PUSH0 PUSH1 0x20 DUP3 ADD SWAP1 POP DUP2 DUP2 SUB PUSH0 DUP4 ADD MSTORE PUSH2 0x3948 DUP2 PUSH2 0x390F JUMP JUMPDEST SWAP1 POP SWAP2 SWAP1 POP JUMP JUMPDEST PUSH32 0x72656E6F756E63654F776E6572736869702069732064697361626C6564000000 PUSH0 DUP3 ADD MSTORE POP JUMP JUMPDEST PUSH0 PUSH2 0x3983 PUSH1 0x1D DUP4 PUSH2 0x3091 JUMP JUMPDEST SWAP2 POP PUSH2 0x398E DUP3 PUSH2 0x394F JUMP JUMPDEST PUSH1 0x20 DUP3 ADD SWAP1 POP SWAP2 SWAP1 POP JUMP JUMPDEST PUSH0 PUSH1 0x20 DUP3 ADD SWAP1 POP DUP2 DUP2 SUB PUSH0 DUP4 ADD MSTORE PUSH2 0x39B0 DUP2 PUSH2 0x3977 JUMP JUMPDEST SWAP1 POP SWAP2 SWAP1 POP JUMP JUMPDEST PUSH32 0x4D61782031302500000000000000000000000000000000000000000000000000 PUSH0 DUP3 ADD MSTORE POP JUMP JUMPDEST PUSH0 PUSH2 0x39EB PUSH1 0x7 DUP4 PUSH2 0x3091 JUMP JUMPDEST SWAP2 POP PUSH2 0x39F6 DUP3 PUSH2 0x39B7 JUMP JUMPDEST PUSH1 0x20 DUP3 ADD SWAP1 POP SWAP2 SWAP1 POP JUMP JUMPDEST PUSH0 PUSH1 0x20 DUP3 ADD SWAP1 POP DUP2 DUP2 SUB PUSH0 DUP4 ADD MSTORE PUSH2 0x3A18 DUP2 PUSH2 0x39DF JUMP JUMPDEST SWAP1 POP SWAP2 SWAP1 POP JUMP JUMPDEST PUSH32 0x486173684A696E674E46543A206E6F6E6578697374656E7420746F6B656E0000 PUSH0 DUP3 ADD MSTORE POP JUMP JUMPDEST PUSH0 PUSH2 0x3A53 PUSH1 0x1E DUP4 PUSH2 0x3091 JUMP JUMPDEST SWAP2 POP PUSH2 0x3A5E DUP3 PUSH2 0x3A1F JUMP JUMPDEST PUSH1 0x20 DUP3 ADD SWAP1 POP SWAP2 SWAP1 POP JUMP JUMPDEST PUSH0 PUSH1 0x20 DUP3 ADD SWAP1 POP DUP2 DUP2 SUB PUSH0 DUP4 ADD MSTORE PUSH2 0x3A80 DUP2 PUSH2 0x3A47 JUMP JUMPDEST SWAP1 POP SWAP2 SWAP1 POP JUMP JUMPDEST PUSH0 DUP2 SWAP1 POP SWAP2 SWAP1 POP JUMP JUMPDEST PUSH2 0x3A99 DUP2 PUSH2 0x3A87 JUMP JUMPDEST DUP3 MSTORE POP POP JUMP JUMPDEST PUSH0 PUSH1 0x20 DUP3 ADD SWAP1 POP PUSH2 0x3AB2 PUSH0 DUP4 ADD DUP5 PUSH2 0x3A90 JUMP JUMPDEST SWAP3 SWAP2 POP POP JUMP JUMPDEST PUSH0 PUSH8 0xFFFFFFFFFFFFFFFF DUP3 GT ISZERO PUSH2 0x3AD2 JUMPI PUSH2 0x3AD1 PUSH2 0x3501 JUMP JUMPDEST JUMPDEST PUSH2 0x3ADB DUP3 PUSH2 0x30AF JUMP JUMPDEST SWAP1 POP PUSH1 0x20 DUP2 ADD SWAP1 POP SWAP2 SWAP1 POP JUMP JUMPDEST PUSH0 PUSH2 0x3AFA PUSH2 0x3AF5 DUP5 PUSH2 0x3AB8 JUMP JUMPDEST PUSH2 0x355F JUMP JUMPDEST SWAP1 POP DUP3 DUP2 MSTORE PUSH1 0x20 DUP2 ADD DUP5 DUP5 DUP5 ADD GT ISZERO PUSH2 0x3B16 JUMPI PUSH2 0x3B15 PUSH2 0x34FD JUMP JUMPDEST JUMPDEST PUSH2 0x3B21 DUP5 DUP3 DUP6 PUSH2 0x30A1 JUMP JUMPDEST POP SWAP4 SWAP3 POP POP POP JUMP JUMPDEST PUSH0 DUP3 PUSH1 0x1F DUP4 ADD SLT PUSH2 0x3B3D JUMPI PUSH2 0x3B3C PUSH2 0x34F9 JUMP JUMPDEST JUMPDEST DUP2 MLOAD PUSH2 0x3B4D DUP5 DUP3 PUSH1 0x20 DUP7 ADD PUSH2 0x3AE8 JUMP JUMPDEST SWAP2 POP POP SWAP3 SWAP2 POP POP JUMP JUMPDEST PUSH0 PUSH1 0x20 DUP3 DUP5 SUB SLT ISZERO PUSH2 0x3B6B JUMPI PUSH2 0x3B6A PUSH2 0x2FCC JUMP JUMPDEST JUMPDEST PUSH0 DUP3 ADD MLOAD PUSH8 0xFFFFFFFFFFFFFFFF DUP2 GT ISZERO PUSH2 0x3B88 JUMPI PUSH2 0x3B87 PUSH2 0x2FD0 JUMP JUMPDEST JUMPDEST PUSH2 0x3B94 DUP5 DUP3 DUP6 ADD PUSH2 0x3B29 JUMP JUMPDEST SWAP2 POP POP SWAP3 SWAP2 POP POP JUMP JUMPDEST PUSH0 DUP2 SWAP1 POP SWAP3 SWAP2 POP POP JUMP JUMPDEST PUSH32 0x7B202274726169745F74797065223A2242616C616E636564222C202276616C75 PUSH0 DUP3 ADD MSTORE PUSH32 0x65223A2200000000000000000000000000000000000000000000000000000000 PUSH1 0x20 DUP3 ADD MSTORE POP JUMP JUMPDEST PUSH0 PUSH2 0x3C01 PUSH1 0x24 DUP4 PUSH2 0x3B9D JUMP JUMPDEST SWAP2 POP PUSH2 0x3C0C DUP3 PUSH2 0x3BA7 JUMP JUMPDEST PUSH1 0x24 DUP3 ADD SWAP1 POP SWAP2 SWAP1 POP JUMP JUMPDEST PUSH0 PUSH2 0x3C21 DUP3 PUSH2 0x3087 JUMP JUMPDEST PUSH2 0x3C2B DUP2 DUP6 PUSH2 0x3B9D JUMP JUMPDEST SWAP4 POP PUSH2 0x3C3B DUP2 DUP6 PUSH1 0x20 DUP7 ADD PUSH2 0x30A1 JUMP JUMPDEST DUP1 DUP5 ADD SWAP2 POP POP SWAP3 SWAP2 POP POP JUMP JUMPDEST PUSH32 0x22207D2C00000000000000000000000000000000000000000000000000000000 DUP2 MSTORE POP JUMP JUMPDEST PUSH32 0x7B202274726169745F74797065223A225061737361676573222C202276616C75 PUSH0 DUP3 ADD MSTORE PUSH32 0x65223A2200000000000000000000000000000000000000000000000000000000 PUSH1 0x20 DUP3 ADD MSTORE POP JUMP JUMPDEST PUSH0 PUSH2 0x3CC7 PUSH1 0x24 DUP4 PUSH2 0x3B9D JUMP JUMPDEST SWAP2 POP PUSH2 0x3CD2 DUP3 PUSH2 0x3C6D JUMP JUMPDEST PUSH1 0x24 DUP3 ADD SWAP1 POP SWAP2 SWAP1 POP JUMP JUMPDEST PUSH32 0x7B202274726169745F74797065223A2253656564222C202276616C7565223A22 DUP2 MSTORE POP JUMP JUMPDEST PUSH32 0x22207D0000000000000000000000000000000000000000000000000000000000 DUP2 MSTORE POP JUMP JUMPDEST PUSH0 PUSH2 0x3D33 DUP3 PUSH2 0x3BF5 JUMP JUMPDEST SWAP2 POP PUSH2 0x3D3F DUP3 DUP7 PUSH2 0x3C17 JUMP JUMPDEST SWAP2 POP PUSH2 0x3D4A DUP3 PUSH2 0x3C47 JUMP JUMPDEST PUSH1 0x4 DUP3 ADD SWAP2 POP PUSH2 0x3D59 DUP3 PUSH2 0x3CBB JUMP JUMPDEST SWAP2 POP PUSH2 0x3D65 DUP3 DUP6 PUSH2 0x3C17 JUMP JUMPDEST SWAP2 POP PUSH2 0x3D70 DUP3 PUSH2 0x3C47 JUMP JUMPDEST PUSH1 0x4 DUP3 ADD SWAP2 POP PUSH2 0x3D7F DUP3 PUSH2 0x3CDD JUMP JUMPDEST PUSH1 0x20 DUP3 ADD SWAP2 POP PUSH2 0x3D8F DUP3 DUP5 PUSH2 0x3C17 JUMP JUMPDEST SWAP2 POP PUSH2 0x3D9A DUP3 PUSH2 0x3D03 JUMP JUMPDEST PUSH1 0x3 DUP3 ADD SWAP2 POP DUP2 SWAP1 POP SWAP5 SWAP4 POP POP POP POP JUMP JUMPDEST PUSH32 0x7B226E616D65223A22486173684A696E67202300000000000000000000000000 PUSH0 DUP3 ADD MSTORE POP JUMP JUMPDEST PUSH0 PUSH2 0x3DDF PUSH1 0x13 DUP4 PUSH2 0x3B9D JUMP JUMPDEST SWAP2 POP PUSH2 0x3DEA DUP3 PUSH2 0x3DAB JUMP JUMPDEST PUSH1 0x13 DUP3 ADD SWAP1 POP SWAP2 SWAP1 POP JUMP JUMPDEST PUSH32 0x222C000000000000000000000000000000000000000000000000000000000000 PUSH0 DUP3 ADD MSTORE POP JUMP JUMPDEST PUSH0 PUSH2 0x3E29 PUSH1 0x2 DUP4 PUSH2 0x3B9D JUMP JUMPDEST SWAP2 POP PUSH2 0x3E34 DUP3 PUSH2 0x3DF5 JUMP JUMPDEST PUSH1 0x2 DUP3 ADD SWAP1 POP SWAP2 SWAP1 POP JUMP JUMPDEST PUSH32 0x226465736372697074696F6E223A2246756C6C79206F6E2D636861696E204861 PUSH0 DUP3 ADD MSTORE PUSH32 0x73684A696E67206D616E64616C61202D20612064657465726D696E6973746963 PUSH1 0x20 DUP3 ADD MSTORE PUSH32 0x2067656E6572617469766520666F726D20646572697665642066726F6D206372 PUSH1 0x40 DUP3 ADD MSTORE PUSH32 0x7970746F6772617068696320656E74726F70792E20536F757263652068617368 PUSH1 0x60 DUP3 ADD MSTORE PUSH32 0x3A20000000000000000000000000000000000000000000000000000000000000 PUSH1 0x80 DUP3 ADD MSTORE POP JUMP JUMPDEST PUSH0 PUSH2 0x3F0B PUSH1 0x82 DUP4 PUSH2 0x3B9D JUMP JUMPDEST SWAP2 POP PUSH2 0x3F16 DUP3 PUSH2 0x3E3F JUMP JUMPDEST PUSH1 0x82 DUP3 ADD SWAP1 POP SWAP2 SWAP1 POP JUMP JUMPDEST PUSH32 0x2263726561746F72223A2244617461536174747661222C000000000000000000 PUSH0 DUP3 ADD MSTORE POP JUMP JUMPDEST PUSH0 PUSH2 0x3F55 PUSH1 0x17 DUP4 PUSH2 0x3B9D JUMP JUMPDEST SWAP2 POP PUSH2 0x3F60 DUP3 PUSH2 0x3F21 JUMP JUMPDEST PUSH1 0x17 DUP3 ADD SWAP1 POP SWAP2 SWAP1 POP JUMP JUMPDEST PUSH32 0x2265787465726E616C5F75726C223A2268747470733A2F2F6769746875622E63 PUSH0 DUP3 ADD MSTORE PUSH32 0x6F6D2F446174615361747476612F686173686A696E67222C0000000000000000 PUSH1 0x20 DUP3 ADD MSTORE POP JUMP JUMPDEST PUSH0 PUSH2 0x3FC5 PUSH1 0x38 DUP4 PUSH2 0x3B9D JUMP JUMPDEST SWAP2 POP PUSH2 0x3FD0 DUP3 PUSH2 0x3F6B JUMP JUMPDEST PUSH1 0x38 DUP3 ADD SWAP1 POP SWAP2 SWAP1 POP JUMP JUMPDEST PUSH32 0x226C6963656E7365223A2243432042592D4E4320342E30222C00000000000000 PUSH0 DUP3 ADD MSTORE POP JUMP JUMPDEST PUSH0 PUSH2 0x400F PUSH1 0x19 DUP4 PUSH2 0x3B9D JUMP JUMPDEST SWAP2 POP PUSH2 0x401A DUP3 PUSH2 0x3FDB JUMP JUMPDEST PUSH1 0x19 DUP3 ADD SWAP1 POP SWAP2 SWAP1 POP JUMP JUMPDEST PUSH32 0x22696D616765223A22646174613A696D6167652F7376672B786D6C3B62617365 PUSH0 DUP3 ADD MSTORE PUSH32 0x36342C0000000000000000000000000000000000000000000000000000000000 PUSH1 0x20 DUP3 ADD MSTORE POP JUMP JUMPDEST PUSH0 PUSH2 0x407F PUSH1 0x23 DUP4 PUSH2 0x3B9D JUMP JUMPDEST SWAP2 POP PUSH2 0x408A DUP3 PUSH2 0x4025 JUMP JUMPDEST PUSH1 0x23 DUP3 ADD SWAP1 POP SWAP2 SWAP1 POP JUMP JUMPDEST PUSH32 0x2261747472696275746573223A5B000000000000000000000000000000000000 PUSH0 DUP3 ADD MSTORE POP JUMP JUMPDEST PUSH0 PUSH2 0x40C9 PUSH1 0xE DUP4 PUSH2 0x3B9D JUMP JUMPDEST SWAP2 POP PUSH2 0x40D4 DUP3 PUSH2 0x4095 JUMP JUMPDEST PUSH1 0xE DUP3 ADD SWAP1 POP SWAP2 SWAP1 POP JUMP JUMPDEST PUSH32 0x5D7D000000000000000000000000000000000000000000000000000000000000 PUSH0 DUP3 ADD MSTORE POP JUMP JUMPDEST PUSH0 PUSH2 0x4113 PUSH1 0x2 DUP4 PUSH2 0x3B9D JUMP JUMPDEST SWAP2 POP PUSH2 0x411E DUP3 PUSH2 0x40DF JUMP JUMPDEST PUSH1 0x2 DUP3 ADD SWAP1 POP SWAP2 SWAP1 POP JUMP JUMPDEST PUSH0 PUSH2 0x4133 DUP3 PUSH2 0x3DD3 JUMP JUMPDEST SWAP2 POP PUSH2 0x413F DUP3 DUP8 PUSH2 0x3C17 JUMP JUMPDEST SWAP2 POP PUSH2 0x414A DUP3 PUSH2 0x3E1D JUMP JUMPDEST SWAP2 POP PUSH2 0x4155 DUP3 PUSH2 0x3EFF JUMP JUMPDEST SWAP2 POP PUSH2 0x4161 DUP3 DUP7 PUSH2 0x3C17 JUMP JUMPDEST SWAP2 POP PUSH2 0x416C DUP3 PUSH2 0x3E1D JUMP JUMPDEST SWAP2 POP PUSH2 0x4177 DUP3 PUSH2 0x3F49 JUMP JUMPDEST SWAP2 POP PUSH2 0x4182 DUP3 PUSH2 0x3FB9 JUMP JUMPDEST SWAP2 POP PUSH2 0x418D DUP3 PUSH2 0x4003 JUMP JUMPDEST SWAP2 POP PUSH2 0x4198 DUP3 PUSH2 0x4073 JUMP JUMPDEST SWAP2 POP PUSH2 0x41A4 DUP3 DUP6 PUSH2 0x3C17 JUMP JUMPDEST SWAP2 POP PUSH2 0x41AF DUP3 PUSH2 0x3E1D JUMP JUMPDEST SWAP2 POP PUSH2 0x41BA DUP3 PUSH2 0x40BD JUMP JUMPDEST SWAP2 POP PUSH2 0x41C6 DUP3 DUP5 PUSH2 0x3C17 JUMP JUMPDEST SWAP2 POP PUSH2 0x41D1 DUP3 PUSH2 0x4107 JUMP JUMPDEST SWAP2 POP DUP2 SWAP1 POP SWAP6 SWAP5 POP POP POP POP POP JUMP JUMPDEST PUSH32 0x646174613A6170706C69636174696F6E2F6A736F6E3B6261736536342C000000 DUP2 MSTORE POP JUMP JUMPDEST PUSH0 PUSH2 0x420F DUP3 PUSH2 0x41DF JUMP JUMPDEST PUSH1 0x1D DUP3 ADD SWAP2 POP PUSH2 0x421F DUP3 DUP5 PUSH2 0x3C17 JUMP JUMPDEST SWAP2 POP DUP2 SWAP1 POP SWAP3 SWAP2 POP POP JUMP JUMPDEST PUSH0 DUP2 SWAP1 POP SWAP2 SWAP1 POP JUMP JUMPDEST PUSH2 0x4244 PUSH2 0x423F DUP3 PUSH2 0x3A87 JUMP JUMPDEST PUSH2 0x422A JUMP JUMPDEST DUP3 MSTORE POP POP JUMP JUMPDEST PUSH0 DUP2 SWAP1 POP SWAP2 SWAP1 POP JUMP JUMPDEST PUSH2 0x4264 PUSH2 0x425F DUP3 PUSH2 0x3117 JUMP JUMPDEST PUSH2 0x424A JUMP JUMPDEST DUP3 MSTORE POP POP JUMP JUMPDEST PUSH0 DUP2 PUSH1 0x60 SHL SWAP1 POP SWAP2 SWAP1 POP JUMP JUMPDEST PUSH0 PUSH2 0x4280 DUP3 PUSH2 0x426A JUMP JUMPDEST SWAP1 POP SWAP2 SWAP1 POP JUMP JUMPDEST PUSH0 PUSH2 0x4291 DUP3 PUSH2 0x4276 JUMP JUMPDEST SWAP1 POP SWAP2 SWAP1 POP JUMP JUMPDEST PUSH2 0x42A9 PUSH2 0x42A4 DUP3 PUSH2 0x3194 JUMP JUMPDEST PUSH2 0x4287 JUMP JUMPDEST DUP3 MSTORE POP POP JUMP JUMPDEST PUSH0 PUSH2 0x42BA DUP3 DUP9 PUSH2 0x4233 JUMP JUMPDEST PUSH1 0x20 DUP3 ADD SWAP2 POP PUSH2 0x42CA DUP3 DUP8 PUSH2 0x4253 JUMP JUMPDEST PUSH1 0x20 DUP3 ADD SWAP2 POP PUSH2 0x42DA DUP3 DUP7 PUSH2 0x4253 JUMP JUMPDEST PUSH1 0x20 DUP3 ADD SWAP2 POP PUSH2 0x42EA DUP3 DUP6 PUSH2 0x4253 JUMP JUMPDEST PUSH1 0x20 DUP3 ADD SWAP2 POP PUSH2 0x42FA DUP3 DUP5 PUSH2 0x4298 JUMP JUMPDEST PUSH1 0x14 DUP3 ADD SWAP2 POP DUP2 SWAP1 POP SWAP7 SWAP6 POP POP POP POP POP POP JUMP JUMPDEST PUSH0 PUSH2 0x4327 PUSH2 0x4322 PUSH2 0x431D DUP5 PUSH2 0x3312 JUMP JUMPDEST PUSH2 0x33B5 JUMP JUMPDEST PUSH2 0x3117 JUMP JUMPDEST SWAP1 POP SWAP2 SWAP1 POP JUMP JUMPDEST PUSH2 0x4337 DUP2 PUSH2 0x430D JUMP JUMPDEST DUP3 MSTORE POP POP JUMP JUMPDEST PUSH0 PUSH1 0x40 DUP3 ADD SWAP1 POP PUSH2 0x4350 PUSH0 DUP4 ADD DUP6 PUSH2 0x432E JUMP JUMPDEST PUSH2 0x435D PUSH1 0x20 DUP4 ADD DUP5 PUSH2 0x3235 JUMP JUMPDEST SWAP4 SWAP3 POP POP POP JUMP JUMPDEST PUSH0 DUP2 MLOAD SWAP1 POP SWAP2 SWAP1 POP JUMP JUMPDEST PUSH0 DUP3 DUP3 MSTORE PUSH1 0x20 DUP3 ADD SWAP1 POP SWAP3 SWAP2 POP POP JUMP JUMPDEST PUSH0 PUSH2 0x4388 DUP3 PUSH2 0x4364 JUMP JUMPDEST PUSH2 0x4392 DUP2 DUP6 PUSH2 0x436E JUMP JUMPDEST SWAP4 POP PUSH2 0x43A2 DUP2 DUP6 PUSH1 0x20 DUP7 ADD PUSH2 0x30A1 JUMP JUMPDEST PUSH2 0x43AB DUP2 PUSH2 0x30AF JUMP JUMPDEST DUP5 ADD SWAP2 POP POP SWAP3 SWAP2 POP POP JUMP JUMPDEST PUSH0 PUSH1 0x80 DUP3 ADD SWAP1 POP PUSH2 0x43C9 PUSH0 DUP4 ADD DUP8 PUSH2 0x31A5 JUMP JUMPDEST PUSH2 0x43D6 PUSH1 0x20 DUP4 ADD DUP7 PUSH2 0x31A5 JUMP JUMPDEST PUSH2 0x43E3 PUSH1 0x40 DUP4 ADD DUP6 PUSH2 0x3235 JUMP JUMPDEST DUP2 DUP2 SUB PUSH1 0x60 DUP4 ADD MSTORE PUSH2 0x43F5 DUP2 DUP5 PUSH2 0x437E JUMP JUMPDEST SWAP1 POP SWAP6 SWAP5 POP POP POP POP POP JUMP JUMPDEST PUSH0 DUP2 MLOAD SWAP1 POP PUSH2 0x440E DUP2 PUSH2 0x2FFF JUMP JUMPDEST SWAP3 SWAP2 POP POP JUMP JUMPDEST PUSH0 PUSH1 0x20 DUP3 DUP5 SUB SLT ISZERO PUSH2 0x4429 JUMPI PUSH2 0x4428 PUSH2 0x2FCC JUMP JUMPDEST JUMPDEST PUSH0 PUSH2 0x4436 DUP5 DUP3 DUP6 ADD PUSH2 0x4400 JUMP JUMPDEST SWAP2 POP POP SWAP3 SWAP2 POP POP JUMP JUMPDEST PUSH32 0x4E487B7100000000000000000000000000000000000000000000000000000000 PUSH0 MSTORE PUSH1 0x32 PUSH1 0x4 MSTORE PUSH1 0x24 PUSH0 REVERT JUMPDEST PUSH0 PUSH1 0xFF DUP3 AND SWAP1 POP SWAP2 SWAP1 POP JUMP JUMPDEST PUSH0 PUSH2 0x4482 DUP3 PUSH2 0x446C JUMP JUMPDEST SWAP2 POP PUSH1 0xFF DUP3 SUB PUSH2 0x4495 JUMPI PUSH2 0x4494 PUSH2 0x3740 JUMP JUMPDEST JUMPDEST PUSH1 0x1 DUP3 ADD SWAP1 POP SWAP2 SWAP1 POP JUMP JUMPDEST PUSH0 PUSH2 0x44AA DUP3 PUSH2 0x3117 JUMP JUMPDEST SWAP2 POP PUSH0 DUP3 SUB PUSH2 0x44BC JUMPI PUSH2 0x44BB PUSH2 0x3740 JUMP JUMPDEST JUMPDEST PUSH1 0x1 DUP3 SUB SWAP1 POP SWAP2 SWAP1 POP JUMP JUMPDEST PUSH0 PUSH1 0x40 DUP3 ADD SWAP1 POP PUSH2 0x44DA PUSH0 DUP4 ADD DUP6 PUSH2 0x3235 JUMP JUMPDEST PUSH2 0x44E7 PUSH1 0x20 DUP4 ADD DUP5 PUSH2 0x3235 JUMP JUMPDEST SWAP4 SWAP3 POP POP POP JUMP JUMPDEST PUSH0 PUSH2 0x44F8 DUP3 PUSH2 0x446C JUMP JUMPDEST SWAP2 POP PUSH2 0x4503 DUP4 PUSH2 0x446C JUMP JUMPDEST SWAP3 POP DUP3 DUP3 ADD SWAP1 POP PUSH1 0xFF DUP2 GT ISZERO PUSH2 0x451C JUMPI PUSH2 0x451B PUSH2 0x3740 JUMP JUMPDEST JUMPDEST SWAP3 SWAP2 POP POP JUMP JUMPDEST PUSH0 PUSH2 0x452C DUP3 PUSH2 0x446C JUMP JUMPDEST SWAP2 POP PUSH2 0x4537 DUP4 PUSH2 0x446C JUMP JUMPDEST SWAP3 POP DUP3 DUP3 SUB SWAP1 POP PUSH1 0xFF DUP2 GT ISZERO PUSH2 0x4550 JUMPI PUSH2 0x454F PUSH2 0x3740 JUMP JUMPDEST JUMPDEST SWAP3 SWAP2 POP POP JUMP JUMPDEST PUSH0 PUSH2 0x4560 DUP3 PUSH2 0x3117 JUMP JUMPDEST SWAP2 POP PUSH32 0xFFFFFFFFFFFFFFFFFFFFFFFFFFFFFFFFFFFFFFFFFFFFFFFFFFFFFFFFFFFFFFFF DUP3 SUB PUSH2 0x4592 JUMPI PUSH2 0x4591 PUSH2 0x3740 JUMP JUMPDEST JUMPDEST PUSH1 0x1 DUP3 ADD SWAP1 POP SWAP2 SWAP1 POP JUMP JUMPDEST PUSH0 PUSH2 0xFFFF DUP3 AND SWAP1 POP SWAP2 SWAP1 POP JUMP JUMPDEST PUSH0 PUSH2 0x45B4 DUP3 PUSH2 0x459D JUMP JUMPDEST SWAP2 POP PUSH2 0x45BF DUP4 PUSH2 0x459D JUMP JUMPDEST SWAP3 POP DUP3 DUP3 ADD SWAP1 POP PUSH2 0xFFFF DUP2 GT ISZERO PUSH2 0x45D9 JUMPI PUSH2 0x45D8 PUSH2 0x3740 JUMP JUMPDEST JUMPDEST SWAP3 SWAP2 POP POP JUMP JUMPDEST PUSH0 PUSH2 0x45E9 DUP3 PUSH2 0x459D JUMP JUMPDEST SWAP2 POP PUSH2 0x45F4 DUP4 PUSH2 0x459D JUMP JUMPDEST SWAP3 POP DUP3 DUP3 SUB SWAP1 POP PUSH2 0xFFFF DUP2 GT ISZERO PUSH2 0x460E JUMPI PUSH2 0x460D PUSH2 0x3740 JUMP JUMPDEST JUMPDEST SWAP3 SWAP2 POP POP JUMP JUMPDEST PUSH0 PUSH2 0x461E DUP3 PUSH2 0x459D JUMP JUMPDEST SWAP2 POP PUSH2 0x4629 DUP4 PUSH2 0x459D JUMP JUMPDEST SWAP3 POP DUP3 PUSH2 0x4639 JUMPI PUSH2 0x4638 PUSH2 0x3849 JUMP JUMPDEST JUMPDEST DUP3 DUP3 MOD SWAP1 POP SWAP3 SWAP2 POP POP JUMP INVALID COINBASE TIMESTAMP NUMBER PREVRANDAO GASLIMIT CHAINID SELFBALANCE BASEFEE BLOBHASH BLOBBASEFEE 0x4B 0x4C 0x4D 0x4E 0x4F POP MLOAD MSTORE MSTORE8 SLOAD SSTORE JUMP JUMPI PC MSIZE GAS PUSH2 0x6263 PUSH5 0x6566676869 PUSH11 0x6B6C6D6E6F707172737475 PUSH23 0x7778797A303132333435363738392B2FA2646970667358 0x22 SLT KECCAK256 SELFBALANCE 0xEE RETURN 0xE2 RETURNDATASIZE PUSH25 0x35B43C46D8D99CF9F25C862419D40C1CCFD4563E9096C44B87 0xA8 PUSH5 0x736F6C6343 STOP ADDMOD BYTE STOP CALLER "
		},
		"gasEstimates": {
			"creation": {
				"codeDepositCost": "3621200",
				"executionCost": "infinite",
				"totalCost": "infinite"
			},
			"external": {
				"GENESIS_PRICE()": "414",
				"GENESIS_SUPPLY()": "370",
				"MAX_ROYALTY_BPS()": "376",
				"approve(address,uint256)": "infinite",
				"balanceOf(address)": "infinite",
				"getApproved(uint256)": "infinite",
				"isApprovedForAll(address,address)": "infinite",
				"mint()": "infinite",
				"name()": "infinite",
				"owner()": "2604",
				"ownerOf(uint256)": "infinite",
				"renderer()": "infinite",
				"renounceOwnership()": "473",
				"royaltyInfo(uint256,uint256)": "infinite",
				"safeTransferFrom(address,address,uint256)": "infinite",
				"safeTransferFrom(address,address,uint256,bytes)": "infinite",
				"setApprovalForAll(address,bool)": "infinite",
				"setRoyalty(address,uint96)": "infinite",
				"supportsInterface(bytes4)": "917",
				"symbol()": "infinite",
				"tokenURI(uint256)": "infinite",
				"totalSupply()": "infinite",
				"transferFrom(address,address,uint256)": "infinite",
				"transferOwnership(address)": "infinite",
				"treasury()": "infinite",
				"withdraw()": "infinite"
			},
			"internal": {
				"_bfs(uint8[64] memory[4] memory,bool[64] memory[4] memory,bool[64] memory[4] memory,uint8)": "infinite",
				"_countOnes(uint8)": "infinite",
				"_countPassages(bytes32)": "infinite",
				"_existsLocal(uint256)": "4471",
				"_generateSeed(uint256)": "infinite",
				"_isBalanced(bytes32)": "infinite",
				"_maybeEnqueue(uint8[64] memory[4] memory,bool[64] memory[4] memory,bool[64] memory[4] memory,uint16[256] memory,uint16[256] memory,uint16,uint16,uint256)": "infinite",
				"_toBitGrid(bytes32)": "infinite"
			}
		},
		"methodIdentifiers": {
			"GENESIS_PRICE()": "b85f3fb8",
			"GENESIS_SUPPLY()": "99ec6765",
			"MAX_ROYALTY_BPS()": "3dca40e6",
			"approve(address,uint256)": "095ea7b3",
			"balanceOf(address)": "70a08231",
			"getApproved(uint256)": "081812fc",
			"isApprovedForAll(address,address)": "e985e9c5",
			"mint()": "1249c58b",
			"name()": "06fdde03",
			"owner()": "8da5cb5b",
			"ownerOf(uint256)": "6352211e",
			"renderer()": "8ada6b0f",
			"renounceOwnership()": "715018a6",
			"royaltyInfo(uint256,uint256)": "2a55205a",
			"safeTransferFrom(address,address,uint256)": "42842e0e",
			"safeTransferFrom(address,address,uint256,bytes)": "b88d4fde",
			"setApprovalForAll(address,bool)": "a22cb465",
			"setRoyalty(address,uint96)": "8f2fc60b",
			"supportsInterface(bytes4)": "01ffc9a7",
			"symbol()": "95d89b41",
			"tokenURI(uint256)": "c87b56dd",
			"totalSupply()": "18160ddd",
			"transferFrom(address,address,uint256)": "23b872dd",
			"transferOwnership(address)": "f2fde38b",
			"treasury()": "61d027b3",
			"withdraw()": "3ccfd60b"
		}
	},
	"abi": [
		{
			"inputs": [
				{
					"internalType": "address",
					"name": "rendererAddr",
					"type": "address"
				}
			],
			"stateMutability": "nonpayable",
			"type": "constructor"
		},
		{
			"inputs": [
				{
					"internalType": "uint256",
					"name": "numerator",
					"type": "uint256"
				},
				{
					"internalType": "uint256",
					"name": "denominator",
					"type": "uint256"
				}
			],
			"name": "ERC2981InvalidDefaultRoyalty",
			"type": "error"
		},
		{
			"inputs": [
				{
					"internalType": "address",
					"name": "receiver",
					"type": "address"
				}
			],
			"name": "ERC2981InvalidDefaultRoyaltyReceiver",
			"type": "error"
		},
		{
			"inputs": [
				{
					"internalType": "uint256",
					"name": "tokenId",
					"type": "uint256"
				},
				{
					"internalType": "uint256",
					"name": "numerator",
					"type": "uint256"
				},
				{
					"internalType": "uint256",
					"name": "denominator",
					"type": "uint256"
				}
			],
			"name": "ERC2981InvalidTokenRoyalty",
			"type": "error"
		},
		{
			"inputs": [
				{
					"internalType": "uint256",
					"name": "tokenId",
					"type": "uint256"
				},
				{
					"internalType": "address",
					"name": "receiver",
					"type": "address"
				}
			],
			"name": "ERC2981InvalidTokenRoyaltyReceiver",
			"type": "error"
		},
		{
			"inputs": [
				{
					"internalType": "address",
					"name": "sender",
					"type": "address"
				},
				{
					"internalType": "uint256",
					"name": "tokenId",
					"type": "uint256"
				},
				{
					"internalType": "address",
					"name": "owner",
					"type": "address"
				}
			],
			"name": "ERC721IncorrectOwner",
			"type": "error"
		},
		{
			"inputs": [
				{
					"internalType": "address",
					"name": "operator",
					"type": "address"
				},
				{
					"internalType": "uint256",
					"name": "tokenId",
					"type": "uint256"
				}
			],
			"name": "ERC721InsufficientApproval",
			"type": "error"
		},
		{
			"inputs": [
				{
					"internalType": "address",
					"name": "approver",
					"type": "address"
				}
			],
			"name": "ERC721InvalidApprover",
			"type": "error"
		},
		{
			"inputs": [
				{
					"internalType": "address",
					"name": "operator",
					"type": "address"
				}
			],
			"name": "ERC721InvalidOperator",
			"type": "error"
		},
		{
			"inputs": [
				{
					"internalType": "address",
					"name": "owner",
					"type": "address"
				}
			],
			"name": "ERC721InvalidOwner",
			"type": "error"
		},
		{
			"inputs": [
				{
					"internalType": "address",
					"name": "receiver",
					"type": "address"
				}
			],
			"name": "ERC721InvalidReceiver",
			"type": "error"
		},
		{
			"inputs": [
				{
					"internalType": "address",
					"name": "sender",
					"type": "address"
				}
			],
			"name": "ERC721InvalidSender",
			"type": "error"
		},
		{
			"inputs": [
				{
					"internalType": "uint256",
					"name": "tokenId",
					"type": "uint256"
				}
			],
			"name": "ERC721NonexistentToken",
			"type": "error"
		},
		{
			"inputs": [],
			"name": "NotTreasury",
			"type": "error"
		},
		{
			"inputs": [
				{
					"internalType": "address",
					"name": "owner",
					"type": "address"
				}
			],
			"name": "OwnableInvalidOwner",
			"type": "error"
		},
		{
			"inputs": [
				{
					"internalType": "address",
					"name": "account",
					"type": "address"
				}
			],
			"name": "OwnableUnauthorizedAccount",
			"type": "error"
		},
		{
			"inputs": [],
			"name": "SoldOut",
			"type": "error"
		},
		{
			"inputs": [
				{
					"internalType": "uint256",
					"name": "value",
					"type": "uint256"
				},
				{
					"internalType": "uint256",
					"name": "length",
					"type": "uint256"
				}
			],
			"name": "StringsInsufficientHexLength",
			"type": "error"
		},
		{
			"inputs": [],
			"name": "WrongMintFee",
			"type": "error"
		},
		{
			"anonymous": false,
			"inputs": [
				{
					"indexed": true,
					"internalType": "address",
					"name": "owner",
					"type": "address"
				},
				{
					"indexed": true,
					"internalType": "address",
					"name": "approved",
					"type": "address"
				},
				{
					"indexed": true,
					"internalType": "uint256",
					"name": "tokenId",
					"type": "uint256"
				}
			],
			"name": "Approval",
			"type": "event"
		},
		{
			"anonymous": false,
			"inputs": [
				{
					"indexed": true,
					"internalType": "address",
					"name": "owner",
					"type": "address"
				},
				{
					"indexed": true,
					"internalType": "address",
					"name": "operator",
					"type": "address"
				},
				{
					"indexed": false,
					"internalType": "bool",
					"name": "approved",
					"type": "bool"
				}
			],
			"name": "ApprovalForAll",
			"type": "event"
		},
		{
			"anonymous": false,
			"inputs": [
				{
					"indexed": true,
					"internalType": "address",
					"name": "previousOwner",
					"type": "address"
				},
				{
					"indexed": true,
					"internalType": "address",
					"name": "newOwner",
					"type": "address"
				}
			],
			"name": "OwnershipTransferred",
			"type": "event"
		},
		{
			"anonymous": false,
			"inputs": [
				{
					"indexed": true,
					"internalType": "address",
					"name": "from",
					"type": "address"
				},
				{
					"indexed": true,
					"internalType": "address",
					"name": "to",
					"type": "address"
				},
				{
					"indexed": true,
					"internalType": "uint256",
					"name": "tokenId",
					"type": "uint256"
				}
			],
			"name": "Transfer",
			"type": "event"
		},
		{
			"inputs": [],
			"name": "GENESIS_PRICE",
			"outputs": [
				{
					"internalType": "uint256",
					"name": "",
					"type": "uint256"
				}
			],
			"stateMutability": "view",
			"type": "function"
		},
		{
			"inputs": [],
			"name": "GENESIS_SUPPLY",
			"outputs": [
				{
					"internalType": "uint256",
					"name": "",
					"type": "uint256"
				}
			],
			"stateMutability": "view",
			"type": "function"
		},
		{
			"inputs": [],
			"name": "MAX_ROYALTY_BPS",
			"outputs": [
				{
					"internalType": "uint96",
					"name": "",
					"type": "uint96"
				}
			],
			"stateMutability": "view",
			"type": "function"
		},
		{
			"inputs": [
				{
					"internalType": "address",
					"name": "to",
					"type": "address"
				},
				{
					"internalType": "uint256",
					"name": "tokenId",
					"type": "uint256"
				}
			],
			"name": "approve",
			"outputs": [],
			"stateMutability": "nonpayable",
			"type": "function"
		},
		{
			"inputs": [
				{
					"internalType": "address",
					"name": "owner",
					"type": "address"
				}
			],
			"name": "balanceOf",
			"outputs": [
				{
					"internalType": "uint256",
					"name": "",
					"type": "uint256"
				}
			],
			"stateMutability": "view",
			"type": "function"
		},
		{
			"inputs": [
				{
					"internalType": "uint256",
					"name": "tokenId",
					"type": "uint256"
				}
			],
			"name": "getApproved",
			"outputs": [
				{
					"internalType": "address",
					"name": "",
					"type": "address"
				}
			],
			"stateMutability": "view",
			"type": "function"
		},
		{
			"inputs": [
				{
					"internalType": "address",
					"name": "owner",
					"type": "address"
				},
				{
					"internalType": "address",
					"name": "operator",
					"type": "address"
				}
			],
			"name": "isApprovedForAll",
			"outputs": [
				{
					"internalType": "bool",
					"name": "",
					"type": "bool"
				}
			],
			"stateMutability": "view",
			"type": "function"
		},
		{
			"inputs": [],
			"name": "mint",
			"outputs": [],
			"stateMutability": "payable",
			"type": "function"
		},
		{
			"inputs": [],
			"name": "name",
			"outputs": [
				{
					"internalType": "string",
					"name": "",
					"type": "string"
				}
			],
			"stateMutability": "view",
			"type": "function"
		},
		{
			"inputs": [],
			"name": "owner",
			"outputs": [
				{
					"internalType": "address",
					"name": "",
					"type": "address"
				}
			],
			"stateMutability": "view",
			"type": "function"
		},
		{
			"inputs": [
				{
					"internalType": "uint256",
					"name": "tokenId",
					"type": "uint256"
				}
			],
			"name": "ownerOf",
			"outputs": [
				{
					"internalType": "address",
					"name": "",
					"type": "address"
				}
			],
			"stateMutability": "view",
			"type": "function"
		},
		{
			"inputs": [],
			"name": "renderer",
			"outputs": [
				{
					"internalType": "contract IMandalaRenderer",
					"name": "",
					"type": "address"
				}
			],
			"stateMutability": "view",
			"type": "function"
		},
		{
			"inputs": [],
			"name": "renounceOwnership",
			"outputs": [],
			"stateMutability": "pure",
			"type": "function"
		},
		{
			"inputs": [
				{
					"internalType": "uint256",
					"name": "tokenId",
					"type": "uint256"
				},
				{
					"internalType": "uint256",
					"name": "salePrice",
					"type": "uint256"
				}
			],
			"name": "royaltyInfo",
			"outputs": [
				{
					"internalType": "address",
					"name": "receiver",
					"type": "address"
				},
				{
					"internalType": "uint256",
					"name": "amount",
					"type": "uint256"
				}
			],
			"stateMutability": "view",
			"type": "function"
		},
		{
			"inputs": [
				{
					"internalType": "address",
					"name": "from",
					"type": "address"
				},
				{
					"internalType": "address",
					"name": "to",
					"type": "address"
				},
				{
					"internalType": "uint256",
					"name": "tokenId",
					"type": "uint256"
				}
			],
			"name": "safeTransferFrom",
			"outputs": [],
			"stateMutability": "nonpayable",
			"type": "function"
		},
		{
			"inputs": [
				{
					"internalType": "address",
					"name": "from",
					"type": "address"
				},
				{
					"internalType": "address",
					"name": "to",
					"type": "address"
				},
				{
					"internalType": "uint256",
					"name": "tokenId",
					"type": "uint256"
				},
				{
					"internalType": "bytes",
					"name": "data",
					"type": "bytes"
				}
			],
			"name": "safeTransferFrom",
			"outputs": [],
			"stateMutability": "nonpayable",
			"type": "function"
		},
		{
			"inputs": [
				{
					"internalType": "address",
					"name": "operator",
					"type": "address"
				},
				{
					"internalType": "bool",
					"name": "approved",
					"type": "bool"
				}
			],
			"name": "setApprovalForAll",
			"outputs": [],
			"stateMutability": "nonpayable",
			"type": "function"
		},
		{
			"inputs": [
				{
					"internalType": "address",
					"name": "receiver",
					"type": "address"
				},
				{
					"internalType": "uint96",
					"name": "feeBps",
					"type": "uint96"
				}
			],
			"name": "setRoyalty",
			"outputs": [],
			"stateMutability": "nonpayable",
			"type": "function"
		},
		{
			"inputs": [
				{
					"internalType": "bytes4",
					"name": "iid",
					"type": "bytes4"
				}
			],
			"name": "supportsInterface",
			"outputs": [
				{
					"internalType": "bool",
					"name": "",
					"type": "bool"
				}
			],
			"stateMutability": "view",
			"type": "function"
		},
		{
			"inputs": [],
			"name": "symbol",
			"outputs": [
				{
					"internalType": "string",
					"name": "",
					"type": "string"
				}
			],
			"stateMutability": "view",
			"type": "function"
		},
		{
			"inputs": [
				{
					"internalType": "uint256",
					"name": "id",
					"type": "uint256"
				}
			],
			"name": "tokenURI",
			"outputs": [
				{
					"internalType": "string",
					"name": "",
					"type": "string"
				}
			],
			"stateMutability": "view",
			"type": "function"
		},
		{
			"inputs": [],
			"name": "totalSupply",
			"outputs": [
				{
					"internalType": "uint256",
					"name": "",
					"type": "uint256"
				}
			],
			"stateMutability": "view",
			"type": "function"
		},
		{
			"inputs": [
				{
					"internalType": "address",
					"name": "from",
					"type": "address"
				},
				{
					"internalType": "address",
					"name": "to",
					"type": "address"
				},
				{
					"internalType": "uint256",
					"name": "tokenId",
					"type": "uint256"
				}
			],
			"name": "transferFrom",
			"outputs": [],
			"stateMutability": "nonpayable",
			"type": "function"
		},
		{
			"inputs": [
				{
					"internalType": "address",
					"name": "newOwner",
					"type": "address"
				}
			],
			"name": "transferOwnership",
			"outputs": [],
			"stateMutability": "nonpayable",
			"type": "function"
		},
		{
			"inputs": [],
			"name": "treasury",
			"outputs": [
				{
					"internalType": "address payable",
					"name": "",
					"type": "address"
				}
			],
			"stateMutability": "view",
			"type": "function"
		},
		{
			"inputs": [],
			"name": "withdraw",
			"outputs": [],
			"stateMutability": "nonpayable",
			"type": "function"
		}
	]
}